:100000008031EF28080008347E1480312000911DD3
:100010000A280B28ED2891112400151B10281128FF
:100020001528951F14281528182815139513ED2841
:10003000941A1B281C28242814191F282028242837
:10004000110824001516ED28941A2728282874284A
:10005000141D2B282C2874281108613021005F06FC
:10006000031D3328342837286130240091003F30A5
:1000700021005F06031D3D283E2841287A08240000
:100080009100753021005F06031D472848284B2842
:10009000753024009100763021005F06031D512841
:1000A00052285528763024009100773021005F06D1
:1000B000031D5B285C285F287730240091003D30C9
:1000C00021005F06031D6528662869283D3024004D
:1000D00091002A3021005F06031D6F287028212817
:1000E0002A30240091002128941E77287828D028CF
:1000F00014197B287C28D0281108F0007008F20021
:1001000015163F307206031D862887288C283F303D
:10011000F00070082100DF0061307206031D912895
:10012000922897286130F00070082100DF007530B8
:100130007206031D9C289D28A2287530F0007008C7
:100140002100DF0076307206031DA728A828AD28FD
:100150007630F00070082100DF0077307206031D52
:10016000B228B328B8287730F00070082100DF00EB
:100170003D307206031DBD28BE28C3283D30F00067
:1001800070082100DF002A307206031DC828C92824
:10019000ED282A30F00070082100DF00ED28ED285E
:1001A000941ED328D428CF28141DD728D828CF2888
:1001B0001108F0007008F100151658307106031D83
:1001C000E228E328E528223091004D307106031D16
:1001D000EA28EB28CF28993091007E100900803161
:1001E000F1288731FF278031FA0021008031032078
:1001F0008031E0005330840090308500203086004C
:10020000013087002830883101208031D6308400C9
:100210009D308500C0308600013087001430883161
:1002200001208031F801F901DB01DC01DD01DE0193
:10023000DF015A3084000130850008309C31F324FE
:100240008031A03084000130850020309C31F324BF
:1002500080317E1020008C31C92C550803193129BA
:1002600032294729D3302000A600A230A7002B3026
:10027000A800A130A900F830AA00A030AB003830A7
:10028000AC00A030AD0092315C22813153290330A3
:100290002100D7000830D6007730890B4D29D60BC6
:1002A0004D29D70B4D2901309D315D258131063017
:1002B0002100D7001330D600AD30890B5D29D60B55
:1002C0005D29D70B5D29003200309D315D258131DC
:1002D0000B302100D7002630D6005D30890B6E2907
:1002E000D60B6E29D70B6E2900320C309E31A72613
:1002F000813174082200D4007308D300DB30210060
:10030000A300A230A400220054082100A60022006D
:1003100053082100A5004C3091310A218131210080
:1003200024082200C900210023082200C800540824
:10033000803A2100D60083305602031DA2292030C6
:10034000220053020318A529A629AC294A3021000E
:10035000D6005608FA00FC29D3302100A500A230AF
:10036000A6005930A7000130A8005830A90001307C
:10037000AA009331CC238131220055080319C129E9
:10038000C229D729D3302000A600A230A7002B30E5
:10039000A800A130A9004C30AA000130AB003830D1
:1003A000AC00A030AD0092315C228131E3290330F2
:1003B0002100D7000830D6007730890BDD29D60B15
:1003C000DD29D70BDD2957302000A8000130A90016
:1003D0005930AA000130AB005830AC000130AD00FC
:1003E0005630AE000130AF008731A82781316A3026
:1003F0002100D6005608FA0029302100D700963097
:10040000D6007F30890B022AD60B022AD70B022A8C
:100410002200590803190D2A0E2AE92A5508031942
:10042000122A132A282A2A302000A600A230A70068
:100430002B30A800A130A9003C30AA00A130AB00AD
:100440003830AC00A030AD0092315C228131342ACA
:1004500003302100D7000830D6007730890B2E2AD0
:10046000D60B2E2AD70B2E2A01309D315D258131E6
:1004700006302100D7001330D600AD30890B3E2A5C
:10048000D60B3E2AD70B3E2A003200309D315D2527
:1004900081310B302100D7002630D6005D30890B2A
:1004A0004F2AD60B4F2AD70B4F2A00320C309E31E1
:1004B000A726813174082200D4007308D300DB30F2
:1004C0002100A300A230A400220054082100A600AD
:1004D000220053082100A5004C3091310A218131BE
:1004E000210024082200CB00210023082200CA009A
:1004F0005408803A2100D60082305602031D832A18
:10050000BC30220053020318862A872A8D2A4B30DA
:100510002100D6005608FA00DD2A2A302100A50065
:10052000A230A6005930A7000130A8005830A90019
:100530000130AA009331CC238131220055080319E0
:10054000A22AA32AB82A2A302000A600A230A70097
:100550002B30A800A130A9004C30AA000130AB001C
:100560003830AC00A030AD0092315C228131C42A19
:1005700003302100D7000830D6007730890BBE2A1F
:10058000D60BBE2AD70BBE2A57302000A800013058
:10059000A9005930AA000130AB005830AC0001303E
:1005A000AD005630AE000130AF008731A827813151
:1005B0006B302100D6005608FA0029302100D70000
:1005C0009630D6007F30890BE32AD60BE32AD70B6F
:1005D000E32A220059080319EE2AEF2ACF2B5508E7
:1005E0000319F32AF42A092B33302000A600A23085
:1005F000A700FC30A800A130A9003830AA00A03024
:10060000AB003830AC00A030AD0092315C228131BB
:10061000152B03302100D7000830D6007730890B26
:100620000F2BD60B0F2BD70B0F2B0B302100D70026
:100630002630D6005D30890B1B2BD60B1B2BD70B1E
:100640001B2B003201309D315D25813106302100A8
:10065000D7001330D600AD30890B2C2BD60B2C2BAA
:10066000D70B2C2B003200309D315D2581313D3080
:100670002100D700E130D6003F30890B3D2BD60B4F
:100680003D2BD70B3D2B003201309D315D25813153
:1006900006302100D7001330D600AD30890B4E2B29
:1006A000D60B4E2BD70B4E2B003200309D315D25E3
:1006B000813110302100D7003930D6000D30890B40
:1006C0005F2BD60B5F2BD70B5F2B003201309F3196
:1006D0006F278131003A03196E2B6F2B872B013066
:1006E0009F3193278131003A0319772B782B872B81
:1006F00000309F31B7278131003A0319802B812BBD
:10070000872B4C302100D6005608FA00BA2B220065
:10071000D90100309D315D25813100309D31692541
:10072000813133302100A500A230A6005930A70046
:100730000130A8005830A9000130AA009331CC2321
:10074000813157302000A8000130A9005930AA009B
:100750000130AB005830AC000130AD005630AE0077
:100760000130AF008731A82781316C302100D600DD
:100770005608FA0015302100D7004B30D600BE30A5
:10078000890BC02BD60BC02BD70BC02B0000003021
:100790009D315D25813100309D31692581312200F7
:1007A00059080319D42BD52B5B2C55080319D92BC9
:1007B000DA2BEF2B45302000A600A230A7004C30EA
:1007C000A800A130A900E130AA00A130AB00093097
:1007D000AC00A130AD0092315C228131FB2B0330A3
:1007E0002100D7000830D6007730890BF52BD60BC7
:1007F000F52BD70BF52B01309D315D25813106306E
:100800002100D7001330D600AD30890B052CD60B54
:10081000052CD70B052C003200309D315D25813130
:100820001F302000EE00A030EF009D31FF25813108
:10083000DF30F5000030F6002200570892310C221C
:1008400081312100D60056082200D8005808031D27
:100850002A2C2B2C562CD90145302100A500A23082
:10086000A6005930A7000130A8005830A900013077
:10087000AA009331CC23813157302000A8000130E9
:10088000A9005930AA000130AB005830AC0001304B
:10089000AD005630AE000130AF008731A82781315E
:1008A0006D302100D6005608FA005B2C4D30210037
:1008B000D6005608FA00220059080319602C612C52
:1008C000F52C55080319652C662C7B2C4E30200026
:1008D000A600A230A7003C30A800A230A900383002
:1008E000AA00A030AB003830AC00A030AD0092318F
:1008F0005C228131872C03302100D7000830D600DC
:100900007730890B812CD60B812CD70B812C0130B1
:100910009D316925813106302100D7001330D60082
:10092000AD30890B912CD60B912CD70B912C00322A
:1009300000309D31692581310B302100D7002630F0
:10094000D6005D30890BA22CD60BA22CD70BA22C83
:10095000003201309F316F278131003A0319B12CE9
:10096000B22CCA2C01309F3193278131003A0319F0
:10097000BA2CBB2CCA2C01309F31B7278131003AE9
:100980000319C32CC42CCA2C4E302100D6005608A3
:10099000FA00F52C2200D9014E302100A500A2302A
:1009A000A6005930A7000130A8005830A900013036
:1009B000AA009331CC23813157302000A8000130A8
:1009C000A9005930AA000130AB005830AC0001300A
:1009D000AD005630AE000130AF008731A82781311D
:1009E0006E302100D6005608FA002200590803197B
:1009F000FA2CFB2C8F2D55080319FF2C002D152DDB
:100A000057302000A600A230A700EF30A800A13088
:100A1000A9003830AA00A030AB003830AC00A030BC
:100A2000AD0092315C228131212D03302100D700AD
:100A30000830D6007730890B1B2DD60B1B2DD70B1A
:100A40001B2D01309D318D25813106302100D700CD
:100A50001330D600AD30890B2B2DD60B2B2DD70B99
:100A60002B2D003200309D318D2581310B3021003E
:100A7000D7002630D6005D30890B3C2DD60B3C2D9F
:100A8000D70B3C2D003200309F316F278131003A67
:100A900003194B2D4C2D642D00309F31932781314C
:100AA000003A0319542D552D642D00309F31B7277E
:100AB0008131003A03195D2D5E2D642D4F302100E8
:100AC000D6005608FA008F2D2200D9015730210098
:100AD000A500A230A6005930A7000130A800583068
:100AE000A9000130AA009331CC2381315730200076
:100AF000A8000130A9005930AA000130AB005830DD
:100B0000AC000130AD005630AE000130AF0087318F
:100B1000A82781316F302100D6005608FA00220044
:100B200059080319942D952D1F2E55080319992D39
:100B30009A2DAF2D60302000A600A230A7008B3088
:100B4000A800A230A9003830AA00A030AB0038308D
:100B5000AC00A030AD0092315C228131BB2D03305E
:100B60002100D7000830D6007730890BB52DD60B81
:100B7000B52DD70BB52D01309D317525813119303B
:100B80002100D7005A30D600B130890BC52DD60BC5
:100B9000C52DD70BC52D003200309D317525813113
:100BA0000B302100D7002630D6005D30890BD62DC2
:100BB000D60BD62DD70BD62D003201309F316F27A3
:100BC0008131003A0319E52DE62DFE2D01309F31CC
:100BD00093278131003A0319EE2DEF2DFE2D0130C0
:100BE0009F31B7278131003A0319F72DF82DFE2DDB
:100BF00050302100D6005608FA001F2E6030210028
:100C0000CC00A230CD005930D6005608CE00583066
:100C1000D7005708CF005730D8005808D0005630BA
:100C2000D9005908D100DF30DA005A08D2008A31E1
:100C30000722813170302100D6005608FA002200C8
:100C400059080319242E252EB92E55080319292ECB
:100C50002A2E3F2E69302000A600A230A7009B302C
:100C6000A800A230A9003830AA00A030AB0038306C
:100C7000AC00A030AD0092315C2281314B2E0330AC
:100C80002100D7000830D6007730890B452ED60BCF
:100C9000452ED70B452E01309D31812581311930EC
:100CA0002100D7005A30D600B130890B552ED60B13
:100CB000552ED70B552E003200309D3181258131C4
:100CC0000B302100D7002630D6005D30890B662E10
:100CD000D60B662ED70B662E003200309F316F2761
:100CE0008131003A0319752E762E8E2E00309F31F9
:100CF00093278131003A03197E2E7F2E8E2E0030ED
:100D00009F31B7278131003A0319872E882E8E2E06
:100D100051302100D6005608FA00B92E2200D90120
:100D200069302100A500A230A6005930A70001308B
:100D3000A8005830A9000130AA009331CC2381319A
:100D400057302000A8000130A9005930AA00013016
:100D5000AB005830AC000130AD005630AE00013071
:100D6000AF008731A827813171302100D6005608A5
:100D7000FA00220059080319BE2EBF2E372F55083E
:100D80000319C32EC42ED92E72302000A600A23023
:100D9000A700A730A800A130A9001430AA00A230F3
:100DA000AB000930AC00A130AD0092315C22813142
:100DB000E52E03302100D7000830D6007730890BAC
:100DC000DF2ED60BDF2ED70BDF2E9E31C2268131D0
:100DD000DF30F5000030F6002200570892310C2277
:100DE00081312100D60056082200D8005808031D82
:100DF000FA2EFB2E322FD90172302100A500A2302D
:100E0000A6005930A7000130A8005830A9000130D1
:100E1000AA009331CC23813157302000A800013043
:100E2000A9005930AA000130AB005830AC000130A5
:100E3000AD005630AE000130AF008731A8278131B8
:100E400072302100D6005608FA0029302100D70060
:100E50009630D6007F30890B2B2FD60B2B2FD70B3C
:100E60002B2F372F52302100D6005608FA002200CF
:100E7000590803193C2F3E2F8D31062D55080319B3
:100E8000422F432F582F08302000A600A230A70081
:100E9000CB30A800A030A900D330AA00A130AB000D
:100EA0004E30AC00A030AD0092315C228131642F15
:100EB00003302100D7000830D6007730890B5E2F31
:100EC000D60B5E2FD70B5E2F01309D313925813136
:100ED00000309D312D2581319E318E268131533058
:100EE0002100D6005608FA005930D6005608F30003
:100EF000DF30D7005708F40057309131C0218131DD
:100F000059302000A0000130A1005830A20001306B
:100F1000A3005730A4000130A5005630A6000130D0
:100F2000A7009131422181317A302100D600560844
:100F3000FA0029302100D7009630D6007F30890B87
:100F40009F2FD60B9F2FD70B9F2F3C2F8031EF2841
:100F5000200028088600290887000108B000B10198
:100F60003008F3003108F4002A0886002B088700B7
:100F70000108B200B3013208F5003308F6009E31D3
:100F80007526873120002A0886002B088700010873
:100F9000B000B1013008A0003108A1002C08860083
:100FA0002D0887000108B200B3013208A2003308FF
:100FB000A30028088600290887000108B400B501AD
:100FC0003408A4003508A5002E0886002F088700E5
:100FD0000108B600B7013608A6003708A70091310E
:100FE0004221873129302000B1009630B0007F3097
:100FF000890BF82FB00BF82FB10BF82F08007A34BB
:10100200FE0012001E00FE0B02280034F5012830FB
:10101200860000308700473FF300F31F1128122893
:1010220033282000A809A909AA09AB09AC09AD090E
:10103200AE09AF09A80A031D3128A90A031D3128E8
:10104200AA0A031D3128AB0A031D3128AC0A031D6D
:101052003128AD0A031D3128AE0A031D3128AF0A1B
:10106200F501F50A2030860000308700473FF30083
:10107200F31F3C283D285C282000A009A109A209F1
:10108200A309A409A509A609A709A00A031D5C28AA
:10109200A10A031D5C28A20A031D5C28A30A031DE2
:1010A2005C28A40A031D5C28A50A031D5C28A60A65
:1010B200031D5C28A70A200020082104220423041F
:1010C2002404250426042704031968286928BC2857
:1010D200F401F40A7828A035A10DA20DA30DA40DE8
:1010E200A50DA60DA70D0130F3007308F407A71F85
:1010F2007B287C286C2827082F02031D9A282608A3
:101102002E02031D9A2825082D02031D9A28240861
:101112002C02031D9A2823082B02031D9A28220859
:101122002A02031D9A2821082902031D9A28200851
:101132002802031C9D289E28AE282008A802210808
:10114200A93B2208AA3B2308AB3B2408AC3B250859
:10115200AD3B2608AE3B2708AF3BA736A60CA50C35
:10116200A40CA30CA20CA10CA00C0130F402031DD0
:10117200BB28BC287C2875080319C028C128DF2891
:10118200A809A909AA09AB09AC09AD09AE09AF09B9
:10119200A80A031DDF28A90A031DDF28AA0A031DC6
:1011A200DF28AB0A031DDF28AC0A031DDF28AD0AC6
:1011B200031DDF28AE0A031DDF28AF0A200028081E
:1011C200A0002908A1002A08A2002B08A3002C08CD
:1011D200A4002D08A5002E08A6002F08A7000800CD
:1011E20055080319F528F6280B2993302000A6008C
:1011F200A230A700E630A800A030A9003830AA002B
:10120200A030AB003830AC00A030AD0092315C228F
:101212008831172903302100D7000830D6007730F3
:10122200890B1129D60B1129D70B112900309D31B9
:101232005D25883100309D31692588310B302100D0
:10124200D7002630D6005D30890B2529D60B2529FB
:10125200D70B2529003201309F316F278831003AA0
:10126200031D342935294D2901309F3193278831B7
:10127200003A031D3D293E294D2901309F31B727F0
:101282008831003A031D462947294D294230210061
:10129200D6005608FA0078292200D901933021009D
:1012A200A500A230A6005930A7000130A80058308E
:1012B200A9000130AA009331CC2388315730200095
:1012C200A8000130A9005930AA000130AB00583003
:1012D200AC000130AD005630AE000130AF008731B6
:1012E200A827883162302100D6005608FA00220071
:1012F200590803197D297F299631F12E55080319C2
:10130200832984299929A3302000A600A230A700AE
:101312006B30A800A130A9003830AA00A030AB0081
:101322003830AC00A030AD0092315C228831A52962
:1013320003302100D7000830D6007730890B9F296F
:10134200D60B9F29D70B9F2901309D315D2588310E
:1013520006302100D7001330D600AD30890BAF29FB
:10136200D60BAF29D70BAF29003200309D315D2556
:101372008831220052080319BF29C0297D29003073
:101382002000EE00A030EF009D31FF258831DF30D4
:10139200F5000030F6002200570892310C22883105
:1013A2002100D60056082200D8005808031DDA2969
:1013B200DC299631EC2ED901A3302100A500A23000
:1013C200A6005930A7000130A8005830A90001300A
:1013D200AA009331CC23883157302000A800013075
:1013E200A9005930AA000130AB005830AC000130DE
:1013F200AD005630AE000130AF008731A8278831EA
:1014020063302100D6005608FA007D29C0308600DC
:10141200013087002A308400023085001430210018
:10142200D30016001A00D30B122A34308600013082
:10143200870020308400023085000A30D300160075
:101442001A00D30B202A01309D3145258A31013003
:101452009D3151258A3100309D3139258A31210053
:101462004D082000A70021004C082000A600C23031
:10147200A800A030A9009E30AA00A030AB003930ED
:10148200AC00A030AD0092315C228A312A302000BB
:10149200AC000230AD0021004D082000AF00210059
:1014A2004C082000AE009E3114268A3120002D08FF
:1014B2002400BF0020002C082400BE003F082000AA
:1014C200AD0024003E082000AC002030AE00023007
:1014D200AF009E3114268A3120002D08EF002C081F
:1014E200EE009D31FF258A3191317B218A31210025
:1014F2005208860087010108D300D4015308F50081
:101502005408F60050088600013087000108923125
:101512000C228A312100D50055082400C0000B306E
:101522002100D4002630D3005D30890B962AD30BDC
:10153200962AD40B962A0032240040080319A22AC4
:10154200A32AD72A21004E08860001308700810194
:101552004F08860001308700810160302000A6001C
:10156200A230A700C730A800A030A900B030AA005E
:10157200A030AB004E30AC00A030AD0092315C2206
:101582008A31D0302000A8000030A900CE30AA0055
:101592000030AB00CF30AC000030AD00D130AE0037
:1015A2000030AF008731A8278A315F2B60302000DE
:1015B200A600A230A7008B30A800A230A9003830C4
:1015C200AA00A030AB003830AC00A030AD009231A0
:1015D2005C228A3100309D3145258A3101309D31AE
:1015E20051258A3100309D3139258A3101309D31B2
:1015F20075258A3119302100D4005A30D300B13018
:10160200890B012BD30B012BD40B012B00320030A1
:101612009D3175258A3115302100D4004B30D3001D
:10162200BE30890B122BD30B122BD40B122B0000C2
:1016320001309F316F278A31003A0319212B222B67
:10164200492B01309F3193278A31003A03192A2B03
:101652002B2B492B01309F31B7278A31003A0319CE
:10166200332B342B492B60302000A600A230A70078
:101672008B30A800A230A9005C30AA00A130AB00D8
:101682007B30AC00A230AD0092315C228A315F2BFC
:1016920021004E0886000130870081016030A500DC
:1016A200A230A600CE30A7000030A800CF30A9009B
:1016B2000030AA009331CC238A31C22A08002000CC
:1016C200C5003A08CE003B08CF003C08D0003D08D8
:1016D200D1003E08D2003F08D3004008D4004108A0
:1016E200D5004E30860000308700473FC200C21B43
:1016F2007B2B7D2B01307E2B00302000C300C401E8
:101702004308CC004408CD004C084D0403198A2B31
:101712008B2BA92BCE09CF09D009D109D209D30924
:10172200D409D509CE0A031DA92BCF0A031DA92B63
:10173200D00A031DA92BD10A031DA92BD20A031D0E
:10174200A92BD30A031DA92BD40A031DA92BD50A41
:101752002100DC1BAD2BAE2BB22BFD30F805FF3088
:10176200F9055C08803A2000C20080304202031D65
:10177200BD2B013021005B020318C02BC12BC72BEC
:1017820001302000C8000030C900CF2B21005C08C6
:101792002000C90021005B082000C80022005D086B
:1017A2002000CB0022005C082000CA004C084D0437
:1017B200031DDC2BDD2BE12B781DE02BE12BE52B30
:1017C200FF30CA07FF30CB3D1F30D6000030D700B4
:1017D2002300BF01552CFF302000D607FF30D73D34
:1017E2000A30A000A101A201A301A401A501A60142
:1017F200A7014E08A8004F08A9005008AA005108E6
:10180200AB005208AC005308AD005408AE005508B6
:10181200AF00883107208B3120002108F700200813
:10182200F6009E31DD268B317608303E2000C20064
:101832005608A03E86000130870042088100FF3032
:10184200C807FF30C93DFF30CA07FF30CB3D0A3021
:10185200A000A101A201A301A401A501A601A70163
:101862004E08A8004F08A9005008AA005108AB0072
:101872005208AC005308AD005408AE005508AF0042
:101882009431DE248B3120002008CE002108CF00C5
:101892002208D0002308D1002408D2002508D30052
:1018A2002608D4002708D50020005708803AC20035
:1018B20080304202031D5F2C01305602031C622C51
:1018C200632C8F2C20004E084F0450045104520404
:1018D200530454045504031D6F2C702CEC2B49083F
:1018E200803AC20080304202031D792C0130480246
:1018F20003187C2C7D2CEC2B20004B08803AC20074
:1019020080304202031D872C01304A02031C8A2CBC
:101912008B2C8F2CF8188E2C8F2CEC2B20004C0843
:101922004D04031D952C962C9A2C781D992C9A2CDB
:10193200B62CFF30D607FF30D73D4C084D04031DAF
:10194200A32CA42CA92C2B30C6000030C700AD2C30
:101952002D30C6000030C7004608C2005608A03E1F
:10196200860001308700420881005608A03EC2006E
:101972004208AD004B08AF004A08AE00450892315C
:10198200FF228B3120002E08BB002D08BA00080070
:101992009D3199258C312200D901D801D701D1017D
:1019A200D601D60AD501D50A20008E1AD92CDA2CF6
:1019B200E02C2200D5019D31B4258C31E32C9D31E0
:1019C2000A258C3120000E1CE72CE82CEC2C22007E
:1019D200D201D20AEE2C2200D20120008E18F22C63
:1019E200F32CF72C2200D101D10AF92C2200D101CB
:1019F20015302100D7004B30D600BE30890BFF2CAA
:101A0200D60BFF2CD70BFF2C000022005508031920
:101A12000B2D0C2D662D4E30943152248C318B308F
:101A22002000A600A030A700C530A800A130A90060
:101A3200D430AA00A030AB00B630AC00A130AD006B
:101A420092315C228C3103302100D7000830D6005D
:101A52007730890B2A2DD60B2A2DD70B2A2D46300B
:101A6200943152248C318B302000A600A030A70084
:101A72009830A800A130A900D430AA00A030AB0051
:101A8200B630AC00A130AD0092315C228C31033013
:101A92002100D7000830D6007730890B4E2DD60BA7
:101AA2004E2DD70B4E2D662D59302100D6005608EB
:101AB200F3005630D7005708F400DF30D80058083A
:101AC200F5005730933158238C31220059080319FD
:101AD2006B2D6C2D552D8C13D6019F31DB278C314C
:101AE2002200D901D90A00309D3139258C310030CC
:101AF2009D3145258C3101309D3151258C3103308A
:101B02002100D7000830D6007730890B862DD60BFE
:101B1200862DD70B862D220055080319912D922D63
:101B2200A72D83302000A600A230A7001A30A800FB
:101B3200A130A9003830AA00A030AB003830AC0088
:101B4200A030AD0092315C228C31B32D03302100E4
:101B5200D7000830D6007730890BAD2DD60BAD2DCE
:101B6200D70BAD2D01309D315D258C3101309D317A
:101B720069258C3115302100D7004B30D600BE309C
:101B8200890BC12DD60BC12DD70BC12D0000013001
:101B92009D312D258C3129302100D7009630D60079
:101BA2007F30890BD22DD60BD22DD70BD22D0130FF
:101BB2009F316F278C31003A0319E02DE12DF92D69
:101BC20001309F3193278C31003A0319E92DEA2D18
:101BD200F92D01309F31B7278C31003A0319F22DCC
:101BE200F32DF92D41302100D6005608FA002C2E93
:101BF2002200D90100309D315D258C3100309D31AC
:101C020069258C3183302100A500A230A60059300D
:101C1200A7000130A8005830A9000130AA00933172
:101C2200CC238C3157302000A8000130A900593054
:101C3200AA000130AB005830AC000130AD00563084
:101C4200AE000130AF008731A8278C31613021000E
:101C5200D6005608FA0015302100D7004B30D600C6
:101C6200BE30890B322ED60B322ED70B322E00000D
:101C720000309D315D258C3100309D3169258C31DC
:101C8200220059080319472E8831F1288931782911
:101C920045302100D6005608FA00220059080319DF
:101CA200532E542ED62E55080319582E592E6E2E09
:101CB200BB302000A600A230A7001F30A800A2302F
:101CC200A9003830AA00A030AB003830AC00A030F8
:101CD200AD0092315C228E317A2E03302100D70082
:101CE2000830D6007730890B742ED60B742ED70BA2
:101CF200742E01309D315D258E3115302100D700C3
:101D02004B30D600BE30890B842ED60B842ED70BD7
:101D1200842E000000309D315D258E31153021006A
:101D2200D7004B30D600BE30890B952ED60B952EA0
:101D3200D70B952E000001309F316F278E31003A6C
:101D42000319A42EA52EAB2E46302100D60056082C
:101D5200FA00D62E2200D901BB302100A500A23004
:101D6200A6005930A7000130A8005830A900013060
:101D7200AA009331CC238E3157302000A8000130C5
:101D8200A9005930AA000130AB005830AC00013034
:101D9200AD005630AE000130AF008731A8278E313A
:101DA20066302100D6005608FA00220059080319AD
:101DB200DB2EDC2E672F55080319E02EE12EF62EBE
:101DC200C3302000A600A230A7006330A800A030D4
:101DD200A9003830AA00A030AB003830AC00A030E7
:101DE200AD0092315C228E31022F03302100D700E8
:101DF2000830D6007730890BFC2ED60BFC2ED70B81
:101E0200FC2E01309D315D258E3115302100D70029
:101E12004B30D600BE30890B0C2FD60B0C2FD70BB4
:101E22000C2F000000309D315D258E3115302100D0
:101E3200D7004B30D600BE30890B1D2FD60B1D2F7D
:101E4200D70B1D2F000000309F316F278E31003AD3
:101E520003192C2F2D2F3C2F01309F3193278E31C8
:101E6200003A0319352F362F3C2F47302100D60078
:101E72005608FA00672F2200D901C3302100A500BD
:101E8200A230A6005930A7000130A8005830A9009E
:101E92000130AA009331CC238E3157302000A800A4
:101EA2000130A9005930AA000130AB005830AC0013
:101EB2000130AD005630AE000130AF008731A827A7
:101EC2008E3167302100D6005608FA0022005908E8
:101ED20003196C2F6D2FF82F55080319712F722FCC
:101EE200872FCB302000A600A230A7007730A800B1
:101EF200A030A9003830AA00A030AB003830AC00C6
:101F0200A030AD0092315C228E31932F033021003C
:101F1200D7000830D6007730890B8D2FD60B8D2F46
:101F2200D70B8D2F01309D315D258E31153021006B
:101F3200D7004B30D600BE30890B9D2FD60B9D2F7C
:101F4200D70B9D2F000000309D315D258E3115305D
:101F52002100D7004B30D600BE30890BAE2FD60BF6
:101F6200AE2FD70BAE2F000000309F3193278E315A
:101F7200003A0319BD2FBE2FCD2F01309F31B72755
:101F82008E31003A0319C62FC72FCD2F49302100B9
:101F9200D6005608FA00F82F2200D901CB302100D2
:101FA200A500A230A6005930A7000130A800583081
:101FB200A9000130AA009331CC238E315730200082
:101FC200A8000130A9005930AA000130AB005830F6
:101FD200AC000130AD005630AE000130AF008731A9
:101FE200A8278E3169302100D6005608FA00220057
:101FF20059080319FE2F81312D298231082A163002
:1020020021009700080020002308A9002208A80048
:102012002108AB002008AA002B08A5002A08A4006A
:10202200AA0A0319AB0A2408860025088700290892
:10203200A7002808A600A80A0319A90A26088400EE
:10204200270885000008C03F8908031D29282A287F
:102052000D280800F401F50122000D160630F300E8
:102062003030890B3228F30B3228003222000D1255
:102072000630F3003030890B3C28F30B3C28003249
:102082000130F4070030F53D7508803AF3008030E6
:102092007302031D4E2832307402031C5128522849
:1020A2002D2808002D343E34203445345234523425
:1020B2004534553452343A34203400340034003438
:1020C2000034003400340034003400340D340A3457
:1020D200003400340034003400340034003400345E
:1020E2000D340A3400340034003400340034003437
:1020F200003400342000AC00AA01AB019328290867
:10210200A600A7012608F3002708F4002508A80066
:102112002808F5009231AD22903101302000AA0743
:102122000030AB3D2A082C07A600260886000130A5
:1021320087000108A7002708A9002908031DA22873
:10214200A328802808002000A400BF282108BF3E41
:102152009E312B269031D2282108933E9E312B2688
:102162009031D2282108D33E9E312B269031D2289D
:1021720021087F3E9E312B269031D2282408A200CE
:10218200A3012308003A0319C728B9282208023AF2
:102192000319A728013A0319AD28073A0319B328EE
:1021A200B92808002100A00020006A082100A2002E
:1021B200200069082100A1002200DA01DB01F728D2
:1021C200A1302000EC006C08D8006B08ED006D080F
:1021D200D900210020089531E225903120005808CD
:1021E2002200DA07200059082200DB3D21002108E5
:1021F2008400220885001200031D00290129E1281C
:1022020022005B082000EA0022005A082000E900B0
:1022120008002100AA00A5302000EE006E0821006F
:10222200A9002A082000EE006E082100AB00AC01D4
:10223200AD01AE01AF0124082000EA00210023080D
:102242002000E900A930EE006E08EB00AB309031BF
:10225200D320913120006A082100A80020006908DB
:102262002100A7002C082A072000EE006E08860035
:1022720001308700810121002808A4002708A3005B
:10228200080020002008860021088700810122081A
:10229200860023088700810124088600250887001C
:1022A200810126088600270887000130810000305E
:1022B2009D313925913100309D31452591310030D4
:1022C2009D315125913100309D312D2591310030C4
:1022D2009D315D25913100309D316925913100306C
:1022E2009D317525913100309D318125913122003A
:1022F2008C1308002000A001A1012000A201A3016B
:1023020090312B2091311530F7004B30F600BE3062
:10231200890B8929F60B8929F70B892900320130AB
:102322002000A2070030A33D2308803AF600803047
:102332007602031D9E2904302202031CA129A22930
:1023420081290B30F7002630F6005E30890BA72971
:10235200F60BA729F70BA72901302000A0070030B0
:10236200A13D2108803AF60080307602031DBB2988
:1023720004302002031CBE29BF297E290800200048
:10238200A100A001062A0F19C729C829F629A00110
:10239200A00A2108860001308700810173088600A7
:1023A200013087008101F62921088600013087006B
:1023B2008101730886000130870081010230F60036
:1023C2000430F500BA30890BE429F50BE429F60B49
:1023D200E42900322000A001A00A7A30F500740836
:1023E2008600870175088100062A74088600870125
:1023F2000108F500F6017608003A0319012A062AB7
:102402007508773A0319D529062A200803190A2ADA
:102412000B2AC42908002000A300A201A40123085A
:102422000319142A152A332A2E2A01305B2A003076
:102432005B2A75088600760887000108A000A101C2
:102442002108003A0319262A2E2A2008753A031970
:10245200162A033A0319182A2E2A24080319322AA3
:10246200332A1A2A2308031D372A382A5A2A542AB9
:1024720001309E31F9269231003A0319412A422A4B
:10248200462A2000A201A401A40A01309F31152787
:102492009231003A03194E2A4F2A542A2000A201EF
:1024A200A20AA401A40A200024080319592A5A2ABC
:1024B200392A220808009D310125923106309E31C9
:1024C2002B26923102302000AF000430AE00BA3029
:1024D200890B692AAE0B692AAF0B692A000020001A
:1024E200A101A10A01309031A420923120002708D5
:1024F200A2002608A1009F31502792312000A1019D
:10250200A10A02309031A420923120002908A200B1
:102512002808A1009F31502792312000A101A10A71
:1025220003309031A420923120002B08A2002A0807
:10253200A1009F31502792312000A101A10A04304D
:102542009031A420923120002D08A2002C08A10075
:102552009F3150279231080075080319B12AB22A17
:10256200B72A7508031DB62AB72ABC2A7308803118
:1025720002209231FE2A7508033E8600870116006A
:1025820001040319C52AC62AE42A7508033E8600F7
:102592008701403F2000A000413FA100750A86004C
:1025A2008701403FA200413FA3002308803AA400D4
:1025B2002108803A2402031DE02A2008220203187F
:1025C200E32AE42AFE2A73082000A0007508860088
:1025D2008701750A8400850100080107A10021080E
:1025E20086000130870020088100750A8600870175
:1025F2000130810741310318810A08002000B4002C
:10260200781C042B052B0D2B3408F7007708A50046
:102612002D0890317B2092312000AF1B112B122B01
:10262200172B2F08B3002E08B200192BB201B301E9
:10263200B001B1012D2B2030F3000030F400200056
:102642003408F7007708F5009231AD22923101305B
:102652002000B0070030B13D3108803AF70033085E
:10266200803A7702031D372B32083002031C3A2BC3
:102672003B2B1C2B78183E2B3F2B482B2000340879
:10268200F7007708A5002D0890317B2092312000B9
:102692002D08F3000130F4009E315C2692312000B7
:1026A20032087307AD003308743DAE000800F7002E
:1026B200F601C62B20000F195F2B602B722BF6013F
:1026C200F60A7708860001308700810174088600C7
:1026D2000130870081017308860001308700810183
:1026E200810A75088600870161300106031D7A2B75
:1026F2007B2B8E2BF601F60A7708860001308700C5
:102702008101810A74088600013087008101730803
:102712008600013087008101810A750886008701E1
:102722003D300106031D962B972BAA2BF601770845
:10273200860001308700810174088600013087001D
:102742008101810A7308860001308700810122001D
:102752008C177508860087012A300106031DB22BEB
:10276200B32BC62BF601F60A7708860001308700E4
:102772008101740886000130870081017308860098
:1027820001308700810122008C1376080319CA2BBD
:10279200CB2B5B2B08002030860001308700B6303F
:1027A20084000030850014302100AB0016001A00AE
:1027B200AB0BD72B3E30860001308700AC30840053
:1027C200003085000A30AB0016001A00AB0BE52B77
:1027D20001309D314525933101309D315125933191
:1027E20000309D313925933100309D312D259331B3
:1027F200210026082000A700210025082000A600AD
:10280200C230A800A030A9004E30AA00A030AB0010
:102812003830AC00A030AD0092315C229331B6303A
:102822002000AC000030AD00210026082000AF00DF
:10283200210025082000AE009E311426933120008D
:102842002D082100CB0020002C082100CA004B08D3
:102852002000AD0021004A082000AC00AC30AE00E0
:102862000030AF009E311426933120002D08EF0076
:102872002C08EE009D31FF25933191317B2193315C
:1028820020000F1D452C462C412C210027088600D4
:10289200280887008101290886002A08870081010B
:1028A20008002000A3002308A10021082100DD0068
:1028B20000309D31C32594319C302000A100D730D7
:1028C200890B612CA10B612C03309E312B26943194
:1028D2001A302000A100F830890B6D2CA10B6D2C51
:1028E200000003309E312B2694311A302000A100C3
:1028F200F830890B7A2CA10B7A2C000003309E3120
:102902002B2694311A302000A100F830890B872C35
:10291200A10B872C000002309E312B2694311A30F5
:102922002000A100F830890B942CA10B942C0000FC
:1029320028309E312B26943102302000A200043030
:10294200A100BA30890BA32CA10BA32CA20BA32CA0
:1029520000000C309E312B26943102302000A20060
:102962000430A100BA30890BB42CA10BB42CA20BF9
:10297200B42C000001309E312B269431023020000D
:10298200A2000430A100BA30890BC52CA10BC52CC2
:10299200A20BC52C000006309E312B26943102304A
:1029A2002000A2000430A100BA30890BD62CA10B62
:1029B200D62CA20BD62C000008002000B10120303A
:1029C200860000308700473FF300F31FE92CEA2C12
:1029D2000C2D2000A009A109A209A309A409A50997
:1029E200A609A709A00A031D092DA10A031D092D85
:1029F200A20A031D092DA30A031D092DA40A031D02
:102A0200092DA50A031D092DA60A031D092DA70AD2
:102A12002000B101B10A2830860000308700473F0C
:102A2200F300F31F152D162D3A2D2000A809A90930
:102A3200AA09AB09AC09AD09AE09AF09A80A031D81
:102A4200352DA90A031D352DAA0A031D352DAB0A02
:102A5200031D352DAC0A031D352DAD0A031D352D81
:102A6200AE0A031D352DAF0A0130F30073082000B2
:102A7200B10632308600003087000830F3000030A3
:102A82001E00F30B412D2000200821042204230400
:102A920024042504260427040319502D512DAD2D9D
:102AA200B001B00A602DA035A10DA20DA30DA40D99
:102AB200A50DA60DA70D0130F3007308B007A71FDF
:102AC200632D642D542DB235B30DB40DB50DB60D75
:102AD200B70DB80DB90D27082F02031D8A2D260840
:102AE2002E02031D8A2D25082D02031D8A2D24087E
:102AF2002C02031D8A2D23082B02031D8A2D220876
:102B02002A02031D8A2D21082902031D8A2D20086D
:102B12002802031C8D2D8E2D9F2D2008A80221082E
:102B2200A93B2208AA3B2308AB3B2408AC3B25085F
:102B3200AD3B2608AE3B2708AF3B3214A736A60CA6
:102B4200A50CA40CA30CA20CA10CA00C0130B00289
:102B5200031DAC2DAD2D642D31080319B12DB22DFD
:102B6200D02DB209B309B409B509B609B709B80934
:102B7200B909B20A031DD02DB30A031DD02DB40A20
:102B8200031DD02DB50A031DD02DB60A031DD02D6D
:102B9200B70A031DD02DB80A031DD02DB90A200093
:102BA2003208A0003308A1003408A2003508A300AF
:102BB2003608A4003708A5003808A6003908A7007F
:102BC20008002000E800580886008701403FDA002C
:102BD200413FDB005A0884005B0885001200253A59
:102BE200031DF42DF52DC82E5808860087010130EB
:102BF200810741310318810A2200DC01DD01F8015D
:102C0200F901FF302100DB00FF30DC002000580812
:102C120086008701403FDA00413FDB005A0884000A
:102C22005B0885001200643A0319182E192E2A2E09
:102C3200580886008701403FDA00413FDB005A080E
:102C420084005B0885001200693A031D292E2A2E92
:102C5200652E58088600870101308107413103182B
:102C6200810A590886008701010884008501023023
:102C72008107003FDA00013FDB005A08DF005B08F2
:102C8200E000890D893B8909E100E200E300E400EC
:102C9200E500E6005F08BA006008BB006108BC00FE
:102CA2006208BD006308BE006408BF006508C0007A
:102CB2006608C10068088B316023953120003B080B
:102CC200D9003A08D800EB2E580886008701403F09
:102CD200DA00413FDB005A0884005B0885001200DD
:102CE2006E3A031D752E762E952E580886008701A2
:102CF2000130810741310318810A59088600870192
:102D0200403F84008501810A0008DA005A08E70082
:102D120067088600870122005A08C03F5B08C13F4E
:102D22002000D801D901EB2E580886008701403FC8
:102D3200DA00413FDB005A0884005B08850012007C
:102D4200253A031DA52EA62EBF2E58088600870100
:102D52000130810741310318810A2530F300003028
:102D6200F4006808DA005A08F5009231AD22953174
:102D720001302000D8000030D900EB2E5808860020
:102D820087010130810741310318810A912E5808C9
:102D920086008701403FDA00413FDB005A08840089
:102DA2005B0885000008DC00DD015C08F3005D08BB
:102DB200F4006808DE005E08F5009231AD2295311C
:102DC200200058088600870101308107413103182D
:102DD200810AB92E080043302100D6005608FA00B5
:102DE200220059080319F62EF72E7A2F55080319D7
:102DF200FB2EFC2E112FAB302000A600A230A70024
:102E02008930A800A130A9003830AA00A030AB0058
:102E12003830AC00A030AD0092315C2296311D2FCB
:102E220003302100D7000830D6007730890B172FE6
:102E3200D60B172FD70B172F01309D315D259631F9
:102E420006302100D7001330D600AD30890B272F72
:102E5200D60B272FD70B272F003200309D315D254F
:102E62009631220052080319372F382F7A2FDF307C
:102E7200F5000030F600570892310C2296312100FD
:102E8200D60056082200D8005808031D492F4A2FA1
:102E9200752FD901AB302100A500A230A600593010
:102EA200A7000130A8005830A9000130AA009331D0
:102EB200CC23963157302000A8000130A9005930A8
:102EC200AA000130AB005830AC000130AD005630E2
:102ED200AE000130AF008731A8279631643021005F
:102EE200D6005608FA007A2F44302100D600560840
:102EF200FA002200590803197F2F812F8E314E2E9E
:102F020055080319852F862F9B2FB3302000A6006A
:102F1200A230A7007A30A800A130A9003830AA0058
:102F2200A030AB003830AC00A030AD0092315C2252
:102F32009631A72F03302100D7000830D600773012
:102F4200890BA12FD60BA12FD70BA12F01309D31B9
:102F52005D25963106302100D7001330D600AD3002
:102F6200890BB12FD60BB12FD70BB12F0032003006
:102F72009D315D259631220052080319C12FC22FBF
:102F82007F2FDF30F5000030F600570892310C2217
:102F920096312100D60056082200D8005808031D99
:102FA200D32FD52F8E31492ED901B3302100A50060
:102FB200A230A6005930A7000130A8005830A9005D
:102FC2000130AA009331CC23963157302000A8005B
:102FD2000130A9005930AA000130AB005830AC00D2
:102FE2000130AD005630AE000130AF008731A82766
:0E2FF200963165302100D6005608FA007F2F78
:1039CE009D3115259C312400161408009D311525B6
:1039DE009C31240016150800640080010131890B0A
:1039EE00F42C0034F03021009E009B019C0101302C
:1039FE009D00080001309E312B269D313530890BFC
:103A0E00062D000008002830240095009601940130
:103A1E002730920021008E150E160800240014196E
:103A2E00192D1A2D152D16081F39031D1F2D202D8A
:103A3E00152D080070302100990098012200960182
:103A4E0021001A1F2B2D2C2D272D0800F300730893
:103A5E000319322D332D362D22000C14382D220051
:103A6E000C100800F300730803193E2D3F2D422D54
:103A7E0022001014442D220010100800F3007308C9
:103A8E0003194A2D4B2D4E2D22009014502D22003D
:103A9E0090100800F30073080319562D572D5A2D58
:103AAE00220010155C2D220010110800F30073087F
:103ABE000319622D632D662D22008C14682D2200B1
:103ACE008C100800F300730803196E2D6F2D722DE4
:103ADE0022000C15742D22000C110800F30073083F
:103AEE0003197A2D7B2D7E2D22000C16802D22009F
:103AFE000C120800F30073080319862D872D8A2DEA
:103B0E0022008C168C2D22008C120800F3007308F4
:103B1E000319922D932D962D22008C15982D22008F
:103B2E008C1108009F3131279D319D3121259D310A
:103B3E00903100209D319C31F9249D310800F30015
:103B4E009D3115259D317308240091002000911D93
:103B5E00B12DB22DAD2D91110800323024009200FE
:103B6E003630950096018030940021008E150E1689
:103B7E008B170B1791150800F4009C31E7249D312B
:103B8E0021005D089D31A6259D3174082100600439
:103B9E009D31A6259D319C31ED249D3108002D349B
:103BAE003E34203445345234523445345534523434
:103BBE003A342034003400340034003400340034FD
:103BCE00003400340034F60021005E08F50075085C
:103BDE00F604760804389D31C3259D317608FB39ED
:103BEE009D31C3259D314230890BFB2D00320800DB
:103BFE0070302100A3002308A40020006F08EA0003
:103C0E006E08E900A4302100A30023082000EB0079
:103C1E0000309031D3209D31080020002D08F40093
:103C2E002C08F3009E315C269E31730820002C0771
:103C3E00A00074082D3DA1002F08A3002E08A2009D
:103C4E00903104209E3108002000A0002100DE01EA
:103C5E0020002008F0399D31EA259E3120002008F1
:103C6E00F7000330F735FF3E031D392E7735F03957
:103C7E009D31EA259E3108002000A0002100DE01C2
:103C8E00DE0A20002008F0399D31EA259E31200001
:103C9E002008F7000330F735FF3E031D522E77350F
:103CAE00F0399D31EA259E3108007408F60073083C
:103CBE00F500652E0130F3070030F43D73088600E1
:103CCE00740887000108031D6D2E6E2E612E750877
:103CDE007302F3007608743BF4000800F701882E97
:103CEE0020000F197B2E7C2E882EF701F70A730801
:103CFE0086007408870081017508860076088700A3
:103D0E008101770803198C2E8D2E772E0800200046
:103D1E00A301A4019F31DB279E3101302000A307B0
:103D2E000030A43D2408803AA20080302202031DF8
:103D3E00A22E02302302031CA52EA62E912E0800C1
:103D4E00F6007608F500F50DF50D21001D08750637
:103D5E00833975069D001D140D30890BB42E00009D
:103D6E0021009D149D18BC2EBD2EB92E1C08F400EA
:103D7E001B08F300080022000C170630F400133065
:103D8E00F300AE30890BC92EF30BC92EF40BC92EDE
:103D9E0022000C130630F4001330F300AE30890B02
:103DAE00D62EF30BD62EF40BD62E08007708803ABB
:103DBE002000B00080303002031DE72E0130760265
:103DCE000318EA2EEB2EF82E76092000B0007709A4
:103DDE00B100B00A0319B10A3008F6003108F70035
:103DEE00F82E0800F400F30174080319FF2E002FBB
:103DFE00072F20008F1B042F052F072FF301F30A27
:103E0E007408031D0B2F0C2F132F20008F1F102F44
:103E1E00112F132FF301F30A73080800F400F301B6
:103E2E00740803191B2F1C2F232F20000F19202F6E
:103E3E00212F232FF301F30A7408031D272F282F98
:103E4E002F2F20000F1D2C2F2D2F2F2FF301F30AB4
:103E5E0073080800220090018F018C018D018E01E4
:103E6E000830210090008C01CF308D00FF308E0085
:103E7E00FF308F0023008F013F308D0090013C30CA
:103E8E008C00240090018D012100951722009D01C8
:103E9E0008002000A401A501632F21082407840037
:103EAE002208253D850000089E3143269F310130B2
:103EBE002000A4070030A53D210824078400220815
:103ECE00253D85001200031D6D2F6E2F542F080007
:103EDE00F400F30174080319752F762F812F20003B
:103EEE000F1C7A2F7B2F812F8F187E2F7F2F812FE4
:103EFE00F301F30A7408031D852F862F912F2000DE
:103F0E000F188A2F8B2F912F8F1C8E2F8F2F912F63
:103F1E00F301F30A73080800F400F301740803199F
:103F2E00992F9A2FA52F20008F1D9E2F9F2FA52FE3
:103F3E000F1AA22FA32FA52FF301F30A7408031D46
:103F4E00A92FAA2FB52F20008F19AE2FAF2FB52F67
:103F5E000F1EB22FB32FB52FF301F30A730808000B
:103F6E00F400F30174080319BD2FBE2FC92F2000D2
:103F7E008F1EC22FC32FC92F0F1BC62FC72FC92F9E
:103F8E00F301F30A7408031DCD2FCE2FD92F200075
:103F9E008F1AD22FD32FD92F0F1FD62FD72FD92F1E
:103FAE00F301F30A730808002000A001A10190316B
:103FBE002B209F310230F700A030F6009230890B93
:103FCE00E62FF60BE62FF70BE62F0032013020001E
:103FDE00A0070030A13D2108803AF600803076021D
:103FEE00031DFB2F02302002031CFE2FFF2FDE2F9E
:103FFE00080041347434743465346E34743465346A
:10400E002034763461346C346934643461347434FD
:10401E0069346F346E3420346C3465346434203437
:10402E0072346F347534673465340D340A340034A9
:10403E0041345434543445344E345434453420349D
:10404E00563441344C344934443441345434493474
:10405E004F344E3420344C344534443453340D34C0
:10406E000A340034503452344534533453344534C6
:10407E00523420344F344B3420344F3455342034A2
:10408E00453452345234453455345234003441346C
:10409E005434543445344E3454344534203441343D
:1040AE0043345134553449345434543445344D34F6
:1040BE0045344E345434003454344534533454342B
:1040CE0020345234313420344F3446344634203484
:1040DE002D3420345234323420344F344E340034A4
:1040EE00543445345334543420345234323420341E
:1040FE004F344634463420342D3420345234333445
:10410E0020344F344E340034543445345334543404
:10411E0020344334413452345434453420344434FE
:10412E00393432343534453444343434003456342E
:10413E0045345234493446344934453452342034AB
:10414E0050343134203445345434203450343234E5
:10415E00003452344534533455344C345434413491
:10416E005434203443344F344E344634493452346C
:10417E004D3445340034543445345334543420349F
:10418E004E344F344E34203443344F344E34463450
:10419E004F3452344D344534003450344F3453344C
:1041AE004934543449344F344E344E3445345234F9
:1041BE00203443344134523454344534003454346E
:1041CE00453453345434203433342034523445344B
:1041DE004C3441344934533420344F34463446340D
:1041EE00003443344C34413456344934453452341B
:1041FE002034453443344C344134493452344534FC
:10420E003F340034503452344534533453344534EF
:10421E00523420344F344B3420342F3420344E3427
:10422E004F344B34003454344534533454342034E6
:10423E0033342034523445344C34413449345334BD
:10424E0020344F344E3400345434453453345434C3
:10425E0020344C3445344434203443344C344134CB
:10426E005634493445345234003443344C3441349A
:10427E00563449344534523420344534543445345C
:10428E0049344E3454343F3400345434453453346A
:10429E00543420344C344534443453342034433471
:1042AE00413452345434453400344534523452344B
:1042BE004534553452342034563441344C34493418
:1042CE004434453445340034543445345334543432
:1042DE0020344C3445344434203452344F34553425
:1042EE004734453400345434453453345434203434
:1042FE004C344534443420345634453452345434DA
:10430E0045340034543445345334543420344C340E
:10431E0045344434203442344C34453455344534D9
:10432E0000344D344F34443455344C3445342034F9
:10433E004534533443344C344134563445340034CC
:10434E005434453453345434203442344C3455347C
:10435E00453454344F344F3454344834003441349B
:10436E005034503455345934453452342034533447
:10437E005534523420344F344B3400344D344F3492
:10438E00443455344C34453420344D34413449345E
:10439E005434523445340034523445345434493450
:1043AE00523445345234203443344134523454342C
:1043BE00453400344C344534443453342034413481
:1043CE004C344C3455344D34453445345334003428
:1043DE005434453453345434203448344F345234E6
:1043EE004C344F344734453400345434453453340C
:1043FE0054342034533446344C34413453344834DA
:10440E000034463449344E34203444344534203458
:10441E005434453453345434003456344F344934C0
:10442E00523420344134503450344C3449340034F6
:10443E0054344534533454342034523431342034CB
:10444E004F344E34003445345434413450344534B2
:10445E002034313430340034453454344134503403
:10446E0045342034313432340034543445345334EA
:10447E0054342034423450343234003445345434BD
:10448E0041345034453420343134333400344534DF
:10449E0054344134503445342034313434340034BF
:1044AE004534543441345034453420343134353469
:1044BE00003445345434413450344534203431348E
:1044CE003634003445345434413450344534203479
:1044DE003134373400344534543441345034453457
:1044EE002034313438340034543445345334543455
:1044FE0020344F344B34003445345434413450342A
:10450E004534203431340034543445345334543427
:10451E002034503431340034453454344134503422
:10452E004534203432340034543445345334543406
:10453E002034503432340034453454344134503401
:10454E0045342034333400344534543441345034FB
:10455E0045342034343400344534543441345034EA
:10456E0045342034353400344534543441345034D9
:10457E0045342034363400344534543441345034C8
:10458E0045342034373400344534543441345034B7
:10459E0045342034383400344534543441345034A6
:0E45AE0045342034393400342534643400346C
:020000040001F9
:08000000FF3FFF3FFF3FFF3F00
:04000E00E43FFF3F8D
:00000001FF
