:1000000080319B2808347A347E14803122008C178A
:100010002000911D0C280D28992891112400151BF2
:10002000122813281728951F162817281A28151381
:1000300095139928941A1D281E282628141921285A
:10004000222826281108240015169928941A2928F0
:100050002A285728141D2D282E2857281108193012
:1000600021005E06031D3528362839285530240026
:100070009100613021005E06031D3F28402848287A
:100080006130240091003030F00070082100DE0063
:100090003F305E06031D4D284E2823287A08240091
:1000A00091003030F00070082100DE002328941EFB
:1000B0005A285B287C2814195E285F287C281108A0
:1000C000F0007008F10015163F307106031D692815
:1000D0006A286F283F30F00070082100DE00613090
:1000E0007106031D7428752899286130F000700886
:1000F0002100DE0099289928941E7F2880287B28DB
:10010000141D832884287B281108F0007008F20051
:10011000151658307206031D8E288F28912822301C
:1001200091004D307206031D962897287B28993040
:1001300091007E10090080319D288031032080319C
:10014000FA002100803102208031DF003830840045
:1001500091308500203086000130870028309E31A4
:100160000F268031DD3084009E308500C03086004F
:100170000130870014309E310F268031F801F901DB
:10018000D83084000030850007309E310926803148
:100190002200E901EA01EB01EC01ED01EE01A030E2
:1001A00084000130850020309E31092680317E1088
:1001B00020008C31C02C62080319DF28E028F528C4
:1001C000B4302000A600A230A7000C30A800A13057
:1001D000A900D930AA00A030AB001930AC00A03083
:1001E000AD0093310D238031012903302100D5006A
:1001F0000830D4007730890BFB28D40BFB28D50BB3
:10020000FB2801309E317026803106302100D50058
:100210001330D400AD30890B0B29D40B0B29D50B2F
:100220000B29003200309E31702680310B302100C6
:10023000D5002630D4005D30890B1C29D40B1C2935
:10024000D50B1C2900320C309F31AE278031740849
:100250002300E0007308DF00BC302100A300A230BF
:10026000A400230060082100A60023005F082100ED
:10027000A500D83092311B228031210024082300B0
:10028000D500210023082300D4006008803A210013
:10029000D40083305402031D5029203023005F0214
:1002A0000318532954295A294A302100D4005408EC
:1002B000FA00AC29B4302100A500A230A600E53038
:1002C000A7000130A800E430A9000130AA00943151
:1002D000602480312300620803196F297029852961
:1002E000B4302000A600A230A7000C30A800A13036
:1002F000A900D830AA000130AB001930AC00A03002
:10030000AD0093310D238031912903302100D500B8
:100310000830D4007730890B8B29D40B8B29D50B6F
:100320008B2922008C13E3302000A8000130A900A3
:10033000E530AA000130AB00E430AC000130AD0084
:10034000E130AE000130AF009331B02380316A302C
:100350002100D4005408FA0029302100D50096303D
:10036000D4007F30890BB229D40BB229D50BB22926
:10037000230065080319BD29BE299B2A62080319B9
:10038000C229C329D8290B302000A600A230A7001B
:100390000C30A800A130A9001D30AA00A130AB008C
:1003A0001930AC00A030AD0093310D238031E42929
:1003B00003302100D5000830D4007730890BDE29C6
:1003C000D40BDE29D50BDE2901309E317026803119
:1003D00006302100D5001330D400AD30890BEE2952
:1003E000D40BEE29D50BEE29003200309E31702659
:1003F00080310B302100D5002630D4005D30890BD0
:10040000FF29D40BFF29D50BFF2900320C309F3177
:10041000AE27803174082300E0007308DF00BC3091
:100420002100A300A230A400230060082100A60040
:1004300023005F082100A500D83092311B228031B3
:10044000210024082300D700210023082300D60020
:100450006008803A2100D40082305402031D332A00
:10046000BC3023005F020318362A372A3D2A4B305E
:100470002100D4005408FA008F2A0B302100A50077
:10048000A230A600E530A7000130A800E430A900A2
:100490000130AA00943160248031230062080319DE
:1004A000522A532A682A0B302000A600A230A70047
:1004B0000C30A800A130A900D830AA000130AB0050
:1004C0001930AC00A030AD0093310D238031742A77
:1004D00003302100D5000830D4007730890B6E2A14
:1004E000D40B6E2AD50B6E2A22008C17E330200025
:1004F000A8000130A900E530AA000130AB00E430CB
:10050000AC000130AD00E130AE000130AF009331FE
:10051000B02380316B302100D4005408FA00293018
:100520002100D5009630D4007F30890B952AD40B5A
:10053000952AD50B952A230065080319A02AA12A1C
:10054000812B62080319A52AA62ABB2A1430200091
:10055000A600A230A700DD30A800A130A900193004
:10056000AA00A030AB001930AC00A030AD00933130
:100570000D238031C72A03302100D5000830D40074
:100580007730890BC12AD40BC12AD50BC12A0B3075
:100590002100D5002630D4005D30890BCD2AD40B44
:1005A000CD2AD50BCD2A003201309E317026803104
:1005B00006302100D5001330D400AD30890BDE2A7F
:1005C000D40BDE2AD50BDE2A003200309E31702695
:1005D00080313D302100D500E130D4003F30890B1F
:1005E000EF2AD40BEF2AD50BEF2A003201309E31CF
:1005F0007026803106302100D5001330D400AD3094
:10060000890B002BD40B002BD50B002B00320030B4
:100610009E317026803110302100D5003930D40051
:100620000D30890B112BD40B112BD50B112B003254
:10063000013090317F208031003A0319202B212B8B
:10064000392B01309031A3208031003A0319292B36
:100650002A2B392B00309031C7208031003A031902
:10066000322B332B392B4C302100D4005408FA00A4
:100670006C2B2300E50100309E3170268031003064
:100680009E317C26803114302100A500A230A600C6
:10069000E530A7000130A800E430A9000130AA002D
:1006A000943160248031E3302000A8000130A9009B
:1006B000E530AA000130AB00E430AC000130AD0001
:1006C000E130AE000130AF009331B02380316C30A7
:1006D0002100D4005408FA0015302100D5004B3019
:1006E000D400BE30890B722BD40B722BD50B722B1E
:1006F000000000309E317026803100309E317C2613
:100700008031230065080319862B872B092C62088A
:1007100003198B2B8C2BA12B26302000A600A23096
:10072000A7002D30A800A130A900C230AA00A13036
:10073000AB00EA30AC00A030AD0093310D23803126
:10074000AD2B03302100D5000830D4007730890B61
:10075000A72BD40BA72BD50BA72B01309E317026CE
:10076000803106302100D5001330D400AD30890B24
:10077000B72BD40BB72BD50BB72B003200309E31E3
:100780007026803100302000EE00A030EF009F3155
:1007900006278031230063089131B8218031210080
:1007A000D40054082300E4006408031DD82BD92B7F
:1007B000042CE50126302100A500A230A600E5307A
:1007C000A7000130A800E430A9000130AA0094314C
:1007D00060248031E3302000A8000130A900E5301A
:1007E000AA000130AB00E430AC000130AD00E130D4
:1007F000AE000130AF009331B02380316D30210065
:10080000D4005408FA00092C4D302100D4005408BB
:10081000FA002300650803190E2C0F2CA32C620884
:100820000319132C142C292C2F302000A600A230E1
:10083000A7001D30A800A230A9001930AA00A030DE
:10084000AB001930AC00A030AD0093310D238031E6
:10085000352C03302100D5000830D4007730890BC7
:100860002F2CD40B2F2CD50B2F2C01309E317C2616
:10087000803106302100D5001330D400AD30890B13
:100880003F2CD40B3F2CD50B3F2C003200309E3137
:100890007C2680310B302100D5002630D4005D301D
:1008A000890B502CD40B502CD50B502C003201301E
:1008B00090317F208031003A03195F2C602C782C16
:1008C00001309031A3208031003A0319682C692C43
:1008D000782C01309031C7208031003A0319712CF7
:1008E000722C782C4E302100D4005408FA00A32C2E
:1008F0002300E5012F302100A500A230A600E5303D
:10090000A7000130A800E430A9000130AA0094310A
:1009100060248031E3302000A8000130A900E530D8
:10092000AA000130AB00E430AC000130AD00E13092
:10093000AE000130AF009331B02380316E30210022
:10094000D4005408FA00230065080319A82CA92C28
:100950003D2D62080319AD2CAE2CC32C383020007D
:10096000A600A230A700D030A800A130A9001930FD
:10097000AA00A030AB001930AC00A030AD0093311C
:100980000D238031CF2C03302100D5000830D40056
:100990007730890BC92CD40BC92CD50BC92C01304D
:1009A00088310020803106302100D5001330D4007A
:1009B000AD30890BD92CD40BD92CD50BD92C0032C6
:1009C00000308831002080310B302100D5002630E6
:1009D000D4005D30890BEA2CD40BEA2CD50BEA2C21
:1009E0000032003090317F208031003A0319F92C19
:1009F000FA2C122D00309031A3208031003A0319D7
:100A0000022D032D122D00309031C7208031003A85
:100A100003190B2D0C2D122D4F302100D40054083A
:100A2000FA003D2D2300E50138302100A500A23059
:100A3000A600E530A7000130A800E430A90001308D
:100A4000AA00943160248031E3302000A8000130F6
:100A5000A900E530AA000130AB00E430AC00013061
:100A6000AD00E130AE000130AF009331B0238031F2
:100A70006F302100D4005408FA00230065080319E0
:100A8000422D432DC92D62080319472D482D5D2D98
:100A900041302000A600A230A7006C30A800A23090
:100AA000A9001930AA00A030AB001930AC00A0306A
:100AB000AD0093310D238031692D03302100D50025
:100AC0000830D4007730890B632DD40B632DD50B00
:100AD000632D01309E318826803119302100D500E8
:100AE0005A30D400B130890B732DD40B732DD50B34
:100AF000732D003200309E31882680310B3021006A
:100B0000D5002630D4005D30890B842DD40B842D84
:100B1000D50B842D0032013090317F208031003A96
:100B20000319932D942DAC2D01309031A3208031E9
:100B3000003A03199C2D9D2DAC2D01309031C7201A
:100B40008031003A0319A52DA62DAC2D503021007F
:100B5000D4005408FA00C92D41302100CC00A23045
:100B6000CD00E530D4005408CE00E430D50055085F
:100B7000CF00E330D6005608D000E130D700570848
:100B8000D1008A310822803170302100D40054080D
:100B9000FA00230065080319CE2DCF2D632E6208BD
:100BA0000319D32DD42DE92D4A302000A600A23000
:100BB000A7007C30A800A230A9001930AA00A030FC
:100BC000AB001930AC00A030AD0093310D23803163
:100BD000F52D03302100D5000830D4007730890B83
:100BE000EF2DD40BEF2DD50BEF2D01309E31942638
:100BF000803119302100D5005A30D400B130890B32
:100C0000FF2DD40BFF2DD50BFF2D003200309E3170
:100C1000942680310B302100D5002630D4005D3081
:100C2000890B102ED40B102ED50B102E0032003055
:100C300090317F208031003A03191F2E202E382E4C
:100C400000309031A3208031003A0319282E292E3C
:100C5000382E00309031C7208031003A0319312EF0
:100C6000322E382E51302100D4005408FA00632E61
:100C70002300E5014A302100A500A230A600E5309E
:100C8000A7000130A800E430A9000130AA00943187
:100C900060248031E3302000A8000130A900E53055
:100CA000AA000130AB00E430AC000130AD00E1300F
:100CB000AE000130AF009331B0238031713021009C
:100CC000D4005408FA00230065080319682E692E21
:100CD000DD2E620803196D2E6E2E832E53302000F8
:100CE000A600A230A7008830A800A130A900F530E6
:100CF000AA00A130AB00EA30AC00A030AD009331C7
:100D00000D2380318F2E03302100D5000830D40010
:100D10007730890B892ED40B892ED50B892E9F31E4
:100D2000C9278031230063089131B8218031210027
:100D3000D40054082300E4006408031DA02EA12E53
:100D4000D82EE50153302100A500A230A600E530E1
:100D5000A7000130A800E430A9000130AA009431B6
:100D600060248031E3302000A8000130A900E53084
:100D7000AA000130AB00E430AC000130AD00E1303E
:100D8000AE000130AF009331B023803172302100CA
:100D9000D4005408FA0029302100D5009630D40040
:100DA0007F30890BD12ED40BD12ED50BD12EDD2E39
:100DB00052302100D4005408FA00230065080319BA
:100DC000E22EE42E8D31072D62080319E82EE92E5C
:100DD000FE2EE9302000A600A130A700AC30A8000C
:100DE000A030A900B430AA00A130AB002F30AC0075
:100DF000A030AD0093310D2380310A2F0330210044
:100E0000D5000830D4007730890B042FD40B042F81
:100E1000D50B042F01309E314C26803100309E319D
:100E2000402680319F319527803153302100D400F6
:100E30005408FA00E330F3000130F400E530F50027
:100E40000130F6009F317C278031E5302000A00082
:100E50000130A100E430A2000130A300E330A4007F
:100E60000130A500E130A6000130A70092315322E5
:100E700080317A302100D4005408FA002930210052
:100E8000D5009630D4007F30890B442FD40B442FEB
:100E9000D50B442FE22E80319B282000A30023088D
:100EA000A10021082100DC0000309E31CA268731D4
:100EB0009C302000A100D730890B5C2FA10B5C2F48
:100EC00003309F31322787311A302000A100F830DB
:100ED000890B682FA10B682F000003309F31322748
:100EE00087311A302000A100F830890B752FA10B33
:100EF000752F000003309F31322787311A302000D0
:100F0000A100F830890B822FA10B822F0000023044
:100F10009F31322787311A302000A100F830890B29
:100F20008F2FA10B8F2F000028309F313227873160
:100F300002302000A2000430A100BA30890B9E2F9D
:100F4000A10B9E2FA20B9E2F00000C309F31322749
:100F5000873102302000A2000430A100BA30890B92
:100F6000AF2FA10BAF2FA20BAF2F000001309F318D
:100F70003227873102302000A2000430A100BA30AD
:100F8000890BC02FA10BC02FA20BC02F0000063071
:100F90009F313227873102302000A2000430A100A7
:100FA000BA30890BD12FA10BD12FA20BD12F00006A
:100FB000080020002308A9002208A8002108AB008F
:100FC0002008AA002B08A5002A08A400AA0A0319D1
:100FD000AB0A24088600250887002908A7002808EE
:100FE000A600A80A0319A90A260884002708850074
:100FF0000008C03F8908031DFE2FFF2FE22F0800C5
:10100000F3007308031905280628092822008C1507
:101010000B2822008C110800F501283086000030D2
:101020008700473FF300F31F1628172838282000B1
:10103000A809A909AA09AB09AC09AD09AE09AF090C
:10104000A80A031D3628A90A031D3628AA0A031D6B
:101050003628AB0A031D3628AC0A031D3628AD0A14
:10106000031D3628AE0A031D3628AF0AF501F50A1E
:101070002030860000308700473FF300F31F4128EF
:10108000422861282000A009A109A209A309A409F6
:10109000A509A609A709A00A031D6128A10A031D25
:1010A0006128A20A031D6128A30A031D6128A40A5E
:1010B000031D6128A50A031D6128A60A031D6128D6
:1010C000A70A200020082104220423042404250464
:1010D0002604270403196D286E28C128F401F40A98
:1010E0007D28A035A10DA20DA30DA40DA50DA60D63
:1010F000A70D0130F3007308F407A71F802881288B
:10110000712827082F02031D9F2826082E02031D81
:101110009F2825082D02031D9F2824082C02031D4B
:101120009F2823082B02031D9F2822082A02031D43
:101130009F2821082902031D9F2820082802031C3C
:10114000A228A328B3282008A8022108A93B220826
:10115000AA3B2308AB3B2408AC3B2508AD3B260843
:10116000AE3B2708AF3BA736A60CA50CA40CA30CDE
:10117000A20CA10CA00C0130F402031DC028C12850
:10118000812875080319C528C628E428A809A909D3
:10119000AA09AB09AC09AD09AE09AF09A80A031D3C
:1011A000E428A90A031DE428AA0A031DE428AB0ABF
:1011B000031DE428AC0A031DE428AD0A031DE4283E
:1011C000AE0A031DE428AF0A20002808A000290861
:1011D000A1002A08A2002B08A3002C08A4002D08B7
:1011E000A5002E08A6002F08A70008006208031912
:1011F000FA28FB28102974302000A600A230A7008E
:10120000C730A800A030A9001930AA00A030AB0058
:101210001930AC00A030AD0093310D2388311C296A
:1012200003302100D5000830D4007730890B16290F
:10123000D40B1629D50B162900309E317026883123
:1012400000309E317C2688310B302100D5002630BD
:10125000D4005D30890B2A29D40B2A29D50B2A29E1
:101260000032013090317F208831003A031D392946
:101270003A29522901309031A3208831003A031DC8
:1012800042294329522901309031C7208831003A40
:10129000031D4B294C29522942302100D400540807
:1012A000FA007D292300E50174302100A500A23059
:1012B000A600E530A7000130A800E430A900013005
:1012C000AA00943160248831E3302000A800013066
:1012D000A900E530AA000130AB00E430AC000130D9
:1012E000AD00E130AE000130AF009331B023883162
:1012F00062302100D4005408FA0023006508031965
:10130000822984299631F92E6208031988298929AE
:101310009E2984302000A600A230A7004C30A800EF
:10132000A130A9001930AA00A030AB001930AC00E0
:10133000A030AD0093310D238831AA29033021005C
:10134000D5000830D4007730890BA429D40BA42908
:10135000D50BA42901309E3170268831063021003A
:10136000D5001330D400AD30890BB429D40BB42987
:10137000D50BB429003200309E317026883123000D
:101380005E080319C429C529822900302000EE0017
:101390009830EF009F310627883123006308913190
:1013A000B82188312100D40054082300E4006408E7
:1013B000031DDB29DD299631F42EE501843021005F
:1013C000A500A230A600E530A7000130A800E43057
:1013D000A9000130AA00943160248831E330200054
:1013E000A8000130A900E530AA000130AB00E430CC
:1013F000AC000130AD00E130AE000130AF00933100
:10140000B023883163302100D4005408FA008229C7
:10141000C0308600013087005230840001308500E2
:1014200014302100D20016001A00D20B132A3430D7
:1014300086000130870048308400013085000A3082
:10144000D20016001A00D20B212A01309E315826F4
:101450008A3101309E3164268A3100309E314C261B
:101460008A3121004D082000A70021004C082000EF
:10147000A600A330A800A030A9007F30AA00A030A9
:10148000AB001A30AC00A030AD0093310D238A318F
:1014900052302000AC000130AD0021004D0820008A
:1014A000AF0021004C082000AE009F311B278A317D
:1014B00020002D082200E70020002C082200E60072
:1014C00067082000AD00220066082000AC0048300C
:1014D000AE000130AF009F311B278A3120002D085C
:1014E000EF002C08EE009F3106278A319231C82286
:1014F0008A312100500886000130870001089131AF
:10150000B8218A312100D20052082200E8000B30B5
:101510002100D3002630D2005D30890B8D2AD20BFA
:101520008D2AD30B8D2A0032220068080319992ACC
:101530009A2ACE2A21004E088600013087008101B8
:101540004F08860001308700810141302000A6004D
:10155000A230A700A830A800A030A9009130AA00AE
:10156000A030AB002F30AC00A030AD0093310D2384
:101570008A31D0302000A8000030A900CE30AA0067
:101580000030AB00CF30AC000030AD00D130AE0049
:101590000030AF009331B0238A31562B4130200008
:1015A000A600A230A7006C30A800A230A900193014
:1015B000AA00A030AB001930AC00A030AD009331D0
:1015C0000D238A3100309E3158268A3101309E31F8
:1015D00064268A3100309E314C268A3101309E319A
:1015E00088268A3119302100D3005A30D200B13018
:1015F000890BF82AD20BF82AD30BF82A00320030D4
:101600009E3188268A3115302100D3004B30D2001C
:10161000BE30890B092BD20B092BD30B092B0000F1
:10162000013090317F208A31003A0319182B192B91
:10163000402B01309031A3208A31003A0319212B2D
:10164000222B402B01309031C7208A31003A0319F8
:101650002A2B2B2B402B41302000A600A230A700C4
:101660006C30A800A230A9003D30AA00A130AB0028
:101670005C30AC00A230AD0093310D238A31562B83
:1016800021004E0886000130870081014130A5000D
:10169000A230A600CE30A7000030A800CF30A900AD
:1016A0000030AA00943160248A31B92A0800200051
:1016B000C5003A08CE003B08CF003C08D0003D08EA
:1016C000D1003E08D2003F08D3004008D4004108B2
:1016D000D5004E30860000308700473FC200C21B55
:1016E000722B742B0130752B00302000C300C40115
:1016F0004308CC004408CD004C084D040319812B4D
:10170000822BA02BCE09CF09D009D109D209D30948
:10171000D409D509CE0A031DA02BCF0A031DA02B87
:10172000D00A031DA02BD10A031DA02BD20A031D32
:10173000A02BD30A031DA02BD40A031DA02BD50A6E
:101740002100DB1BA42BA52BA92BFD30F805FF30B6
:10175000F9055B08803A2000C20080304202031D78
:10176000B42B013021005A020318B72BB82BBE2B23
:1017700001302000C8000030C900C62B21005B08E2
:101780002000C90021005A082000C80022006A0871
:101790002000CB00220069082000CA004C084D043C
:1017A000031DD32BD42BD82B781DD72BD82BDC2B78
:1017B000FF30CA07FF30CB3D1F30D6000030D700C6
:1017C0002300BF014C2CFF302000D607FF30D73D4F
:1017D0000A30A000A101A201A301A401A501A60154
:1017E000A7014E08A8004F08A9005008AA005108F8
:1017F000AB005208AC005308AD005408AE005508C9
:10180000AF0088310C208B3120002108F700200820
:10181000F6009F31E4278B317608303E2000C2006D
:101820005608A03E86000130870042088100FF3044
:10183000C807FF30C93DFF30CA07FF30CB3D0A3033
:10184000A000A101A201A301A401A501A601A70175
:101850004E08A8004F08A9005008AA005108AB0084
:101860005208AC005308AD005408AE005508AF0054
:101870009431E6248B3120002008CE002108CF00CF
:101880002208D0002308D1002408D2002508D30064
:101890002608D4002708D50020005708803AC20047
:1018A00080304202031D562C01305602031C592C75
:1018B0005A2C862C20004E084F0450045104520428
:1018C000530454045504031D662C672CE32B49086C
:1018D000803AC20080304202031D702C0130480261
:1018E0000318732C742CE32B20004B08803AC200A1
:1018F00080304202031D7E2C01304A02031C812CE1
:10190000822C862CF818852C862CE32B20004C0882
:101910004D04031D8C2C8D2C912C781D902C912C1A
:10192000AD2CFF30D607FF30D73D4C084D04031DCA
:101930009A2C9B2CA02C2B30C6000030C700A42C66
:101940002D30C6000030C7004608C2005608A03E31
:10195000860001308700420881005608A03EC20080
:101960004208AD004B08AF004A08AE00450894316C
:1019700007248B3120002E08BB002D08BA00080078
:101980009E31A0268C312300E501E401E301DD0155
:10199000E101E10AE201E20A20008E1AD02CD12CEA
:1019A000D72C2300E2019E31BB268C31DA2C9E31EC
:1019B0001D268C3120000E1CDE2CDF2CE32C230096
:1019C000DE01DE0AE52C2300DE0120008E18E92C62
:1019D000EA2CEE2C2300DD01DD0AF02C2300DD01D2
:1019E00062080319F42CF52CF82C22008C13FA2C25
:1019F00022008C1715302100D5004B30D400BE30AA
:101A0000890B002DD40B002DD50B002D00002300D9
:101A1000620803190C2D0D2D672D4E3087314D278F
:101A20008C316C302000A600A030A700A630A800A2
:101A3000A130A900B530AA00A030AB009730AC00AF
:101A4000A130AD0093310D238C3103302100D5003E
:101A50000830D4007730890B2B2DD40B2B2DD50BD0
:101A60002B2D463087314D278C316C302000A6005D
:101A7000A030A7007930A800A130A900B530AA0095
:101A8000A030AB009730AC00A130AD0093310D23F6
:101A90008C3103302100D5000830D4007730890B19
:101AA0004F2DD40B4F2DD50B4F2D672DE530210039
:101AB000D4005408F300E130D5005508F400DE30BE
:101AC000D6005608F500E33092318C228C31230089
:101AD000650803196C2D6D2D562DE1019031EB2019
:101AE0008C312300E501E50A00309E314C268C3113
:101AF00000309E3158268C3101309E3164268C3165
:101B000003302100D5000830D4007730890B862DB2
:101B1000D40B862DD50B862D230062080319912D39
:101B2000922DA72D64302000A600A230A700FB3024
:101B3000A800A030A9001930AA00A030AB001930CD
:101B4000AC00A030AD0093310D238C31B32D0330A8
:101B50002100D5000830D4007730890BAD2DD40B8F
:101B6000AD2DD50BAD2D01309E3170268C3101305D
:101B70009E317C268C3115302100D5004B30D400AD
:101B8000BE30890BC12DD40BC12DD50BC12D00004A
:101B900001309E3140268C3129302100D50096300D
:101BA000D4007F30890BD22DD40BD22DD50BD22D62
:101BB000013090317F208C31003A0319E02DE12D66
:101BC000F92D01309031A3208C31003A0319E92D11
:101BD000EA2DF92D01309031C7208C31003A0319DC
:101BE000F22DF32DF92D41302100D4005408FA00D4
:101BF0002C2E2300E50100309E3170268C31003000
:101C00009E317C268C3164302100A500A230A600D4
:101C1000E530A7000130A800E430A9000130AA0097
:101C2000943160248C31E3302000A8000130A900F9
:101C3000E530AA000130AB00E430AC000130AD006B
:101C4000E130AE000130AF009331B0238C31613010
:101C50002100D4005408FA0015302100D5004B3083
:101C6000D400BE30890B322ED40B322ED50B322E3F
:101C7000000000309E3170268C3100309E317C2671
:101C80008C31230065080319472E8831F6288931E5
:101C90007D2945302100D4005408FA00230065084E
:101CA0000319532E542ED62E62080319582E592E7E
:101CB0006E2E9C302000A600A230A7000030A800A5
:101CC000A230A9001930AA00A030AB001930AC0036
:101CD000A030AD0093310D238E317A2E03302100D8
:101CE000D5000830D4007730890B742ED40B742EB5
:101CF000D50B742E01309E3170268E3115302100A7
:101D0000D5004B30D400BE30890B842ED40B842EEA
:101D1000D50B842E000000309E3170268E31153098
:101D20002100D5004B30D400BE30890B952ED40B4A
:101D3000952ED50B952E0000013090317F208E31ED
:101D4000003A0319A42EA52EAB2E46302100D40054
:101D50005408FA00D62E2300E5019C302100A5008E
:101D6000A230A600E530A7000130A800E430A900A9
:101D70000130AA00943160248E31E3302000A800A5
:101D80000130A900E530AA000130AB00E430AC001E
:101D90000130AD00E130AE000130AF009331B0232F
:101DA0008E3166302100D4005408FA002300650803
:101DB0000319DB2EDC2E672F62080319E02EE12EBB
:101DC000F62EA4302000A600A230A7004430A800C0
:101DD000A030A9001930AA00A030AB001930AC0027
:101DE000A030AD0093310D238E31022F033021003E
:101DF000D5000830D4007730890BFC2ED40BFC2E94
:101E0000D50BFC2E01309E3170268E31153021000D
:101E1000D5004B30D400BE30890B0C2FD40B0C2FC7
:101E2000D50B0C2F000000309E3170268E311530FE
:101E30002100D5004B30D400BE30890B1D2FD40BB0
:101E40001D2FD50B1D2F0000003090317F208E31CB
:101E5000003A03192C2F2D2F3C2F01309031A32055
:101E60008E31003A0319352F362F3C2F4730210091
:101E7000D4005408FA00672F2300E501A4302100A4
:101E8000A500A230A600E530A7000130A800E4308C
:101E9000A9000130AA00943160248E31E330200083
:101EA000A8000130A900E530AA000130AB00E43001
:101EB000AC000130AD00E130AE000130AF00933135
:101EC000B0238E3167302100D4005408FA0023007B
:101ED000650803196C2F6D2FF82F62080319712FF5
:101EE000722F872FAC302000A600A230A7005830F8
:101EF000A800A030A9001930AA00A030AB0019300A
:101F0000AC00A030AD0093310D238E31932F033000
:101F10002100D5000830D4007730890B8D2FD40BE9
:101F20008D2FD50B8D2F01309E3170268E311530BF
:101F30002100D5004B30D400BE30890B9D2FD40B2F
:101F40009D2FD50B9D2F000000309E3170268E31C5
:101F500015302100D5004B30D400BE30890BAE2F98
:101F6000D40BAE2FD50BAE2F000000309031A32044
:101F70008E31003A0319BD2FBE2FCD2F0130903185
:101F8000C7208E31003A0319C62FC72FCD2F4930F5
:101F90002100D4005408FA00F82F2300E501AC30EA
:101FA0002100A500A230A600E530A7000130A8005E
:101FB000E430A9000130AA00943160248E31E3306E
:101FC0002000A8000130A900E530AA000130AB00D4
:101FD000E430AC000130AD00E130AE000130AF00C4
:101FE0009331B0238E3169302100D4005408FA00B7
:101FF000230065080319FE2F8031DB288131B829C1
:1020000001309F31322790313530890B052800008F
:102010000800F400F301740803190F28102817288A
:1020200020008F1B142815281728F301F30A7408C1
:10203000031D1B281C28232820008F1F202821284F
:102040002328F301F30A73080800F400F30174086D
:1020500003192B282C28332820000F193028312869
:102060003328F301F30A7408031D372838283F2862
:1020700020000F1D3C283D283F28F301F30A730878
:102080000800220090018F018C018D018E01083023
:10209000210090008C01CF308D00FF308E00FF308A
:1020A0008F0023008F013F308D0090013C308C0069
:1020B000240090018D012100951722009D01080048
:1020C0002000A401A5017328210824078400220808
:1020D000253D850000089F314A27903101302000BE
:1020E000A4070030A53D2108240784002208253DCF
:1020F00085001200031D7D287E2864280800F40056
:10210000F3017408031985288628912820000F1CE4
:102110008A288B2891288F188E288F289128F301E0
:10212000F30A7408031D95289628A12820000F188B
:102130009A289B28A1288F1C9E289F28A128F3015C
:10214000F30A73080800F400F30174080319A928BE
:10215000AA28B52820008F1DAE28AF28B5280F1A51
:10216000B228B328B528F301F30A7408031DB9286F
:10217000BA28C52820008F19BE28BF28C5280F1EE1
:10218000C228C328C528F301F30A73080800F40025
:10219000F30174080319CD28CE28D92820008F1EFA
:1021A000D228D328D9280F1BD628D728D928F3011D
:1021B000F30A7408031DDD28DE28E92820008F1AA1
:1021C000E228E328E9280F1FE628E728E928F30199
:1021D000F30A730808002000A001A1019131102129
:1021E00090310230F700A030F6009230890BF628CB
:1021F000F60BF628F70BF628003201302000A00776
:102200000030A13D2108803AF60080307602031D9F
:102210000B2902302002031C0E290F29EE2808008A
:10222000F401F50122000D160630F3003030890B61
:102230001729F30B1729003222000D120630F30084
:102240003030890B2129F30B212900320130F407AA
:102250000030F53D7508803AF30080307302031DAD
:10226000332932307402031C362937291229080019
:102270002D343E34203445345234523445345534B0
:1022800052343A3420340034003400340034003402
:1022900000340034003400340D340A340034003487
:1022A0000034003400340034003400340D340A3477
:1022B000003400340034003400340034003400347E
:1022C0002000AC00AA01AB0178292908A600A701CB
:1022D0002608F3002708F4002508A8002808F500C0
:1022E00093315E23913101302000AA070030AB3DCD
:1022F0002A082C07A600260886000130870001085E
:10230000A7002708A9002908031D8729882965290E
:1023100008002000A400A4292108BF3E9F313227D5
:102320009131B7292108933E9F3132279131B72946
:102330002108D33E9F3132279131B72921087F3EB2
:102340009F3132279131B7292408A200A301230825
:10235000003A0319AC299E292208023A03198C2954
:10236000013A03199229073A031998299E2908006E
:10237000F500F601F70175080319BF29C029C12925
:10238000C0297508031DC529C629E529E0290130A2
:10239000903109209131003A0319CF29D029D3294E
:1023A000F601F701F70A0130903125209131003A0A
:1023B0000319DB29DC29E029F601F60AF701F70AFF
:1023C00077080319E429E529C729760808002100C0
:1023D000A00020006A082100A20020006908210056
:1023E000A100D801D9010A2AA1302000EC006C0814
:1023F000D8006B08ED006D08D90021002008953148
:10240000EA259131200058082100D80720005908FA
:102410002100D93D21088400220885001200031DF7
:10242000122A132AF42959082000EA00210058082A
:102430002000E90008002100AA00A5302000EE00DD
:102440006E082100A9002A082000EE006E08210075
:10245000AB00AC01AD01AE01AF0124082000EA00E1
:10246000210023082000E900A930EE006E08EB00EF
:10247000AB309131E721923120006A082100A80099
:10248000200069082100A7002C082A072000EE0080
:102490006E08860001308700810121002808A40011
:1024A0002708A300080020002008860021088700D4
:1024B0008101220886002308870081012408860004
:1024C000250887008101260886002708870001303B
:1024D000810000309E314C26923100309E315826CA
:1024E000923100309E316426923100309E31402678
:1024F000923100309E317026923100309E317C2620
:10250000923100309E318826923100309E319426DF
:10251000923122008C130800F700F601C22A200035
:102520000F19932A942AA62AF601F60A770886003C
:102530000130870081017408860001308700810125
:1025400073088600013087008101810A75088600C2
:10255000870161300106031DAE2AAF2AC22AF601A7
:10256000F60A77088600013087008101810A740825
:1025700086000130870081017308860001308700E2
:102580008101810A76080319C62AC72A8F2A080002
:102590002000A001A1012000A201A301913110217E
:1025A00092311530F7004B30F600BE30890BD62A39
:1025B000F60BD62AF70BD62A003201302000A207EC
:1025C0000030A33D2308803AF60080307602031DD8
:1025D000EB2A04302202031CEE2AEF2ACE2A0B300B
:1025E000F7002630F6005E30890BF42AF60BF42A49
:1025F000F70BF42A01302000A0070030A13D21088C
:10260000803AF60080307602031D082B0430200249
:10261000031C0B2B0C2BCB2A08009031002093318C
:1026200006309F313227933102302000AF00043052
:10263000AE00BA30890B1A2BAE0B1A2BAF0B1A2B2C
:1026400000002000A101A10A0130913189219331BC
:1026500020002708A2002608A100903160209331B5
:102660002000A101A10A023091318921933120007B
:102670002908A2002808A100903160209331200091
:10268000A101A10A033091318921933120002B0847
:10269000A2002A08A1009031602093312000A101FE
:1026A000A10A043091318921933120002D08A20024
:1026B0002C08A1009031602093310800750803199F
:1026C000622B632B682B7508031D672B682B6D2B02
:1026D00073089D31F8259331AF2B7508033E8600B2
:1026E0008701160001040319762B772B952B7508AB
:1026F000033E86008701403F2000A000413FA1002B
:10270000750A86008701403FA200413FA3002308CD
:10271000803AA4002108803A2402031D912B20084E
:1027200022020318942B952BAF2B73082000A000D6
:10273000750886008701750A840085010008010775
:10274000A100210886000130870020088100750A59
:10275000860087010130810741310318810A080092
:10276000200028088600290887000108B000B10170
:102770003008F3003108F4002A0886002B0887008F
:102780000108B200B3013208F5003308F6009F31AA
:102790007C27933120002A0886002B088700010837
:1027A000B000B1013008A0003108A1002C0886005B
:1027B0002D0887000108B200B3013208A2003308D7
:1027C000A30028088600290887000108B400B50185
:1027D0003408A4003508A5002E0886002F088700BD
:1027E0000108B600B7013608A6003708A7009231E5
:1027F0005322933129302000B1009630B0007F3051
:10280000890B002CB00B002CB10B002C0800200011
:10281000B400781C0C2C0D2C152C3408F70077080C
:10282000A5002D089131602194312000AF1B192C97
:102830001A2C1F2C2F08B3002E08B200212CB20135
:10284000B301B001B101352C2030F3000030F400A9
:1028500020003408F7007708F50093315E239431A7
:1028600001302000B0070030B13D3108803AF70058
:102870003308803A7702031D3F2C32083002031CD4
:10288000422C432C242C7818462C472C502C20000A
:102890003408F7007708A5002D08913160219431A4
:1028A00020002D08F3000130F4009F31632794319C
:1028B000200032087307AD003308743DAE000800F5
:1028C0002030860001308700B6308400003085005B
:1028D00014302100AB0016001A00AB0B6B2C3E30FD
:1028E000860001308700AC308400003085000A305B
:1028F000AB0016001A00AB0B792C01309E31582624
:10290000943101309E316426943100309E314C2642
:10291000943100309E314026943121002608200059
:10292000A700210025082000A600A330A800A030A1
:10293000A9002F30AA00A030AB001930AC00A030A5
:10294000AD0093310D239431B6302000AC0000303F
:10295000AD00210026082000AF002100250820003E
:10296000AE009F311B27943120002D082100CB00A1
:1029700020002C082100CA004B082000AD002100D7
:102980004A082000AC00AC30AE000030AF009F31F0
:102990001B27943120002D08EF002C08EE009F31FA
:1029A000062794319231C822943120000F1DD92C72
:1029B000DA2CD52C21002708860028088700810101
:1029C000290886002A088700810108002000B1013B
:1029D0002030860000308700473FF300F31FF12CC2
:1029E000F22C142D2000A009A109A209A309A40911
:1029F000A509A609A709A00A031D112DA10A031DF7
:102A0000112DA20A031D112DA30A031D112DA40AC5
:102A1000031D112DA50A031D112DA60A031D112D3D
:102A2000A70A2000B101B10A2830860000308700D3
:102A3000473FF300F31F1D2D1E2D422D2000A80936
:102A4000A909AA09AB09AC09AD09AE09AF09A80AE1
:102A5000031D3D2DA90A031D3D2DAA0A031D3D2D71
:102A6000AB0A031D3D2DAC0A031D3D2DAD0A031D10
:102A70003D2DAE0A031D3D2DAF0A0130F300730852
:102A80002000B10632308600003087000830F300A5
:102A900000301E00F30B492D2000200821042204E1
:102AA000230424042504260427040319582D592D32
:102AB000B52DB001B00A682DA035A10DA20DA30D52
:102AC000A40DA50DA60DA70D0130F3007308B007E6
:102AD000A71F6B2D6C2D5C2DB235B30DB40DB50D4C
:102AE000B60DB70DB80DB90D27082F02031D922D95
:102AF00026082E02031D922D25082D02031D922D5E
:102B000024082C02031D922D23082B02031D922D55
:102B100022082A02031D922D21082902031D922D4D
:102B200020082802031C952D962DA72D2008A80209
:102B30002108A93B2208AA3B2308AB3B2408AC3B55
:102B40002508AD3B2608AE3B2708AF3B3214A7361D
:102B5000A60CA50CA40CA30CA20CA10CA00C01307B
:102B6000B002031DB42DB52D6C2D31080319B92DFC
:102B7000BA2DD82DB209B309B409B509B609B709F8
:102B8000B809B909B20A031DD82DB30A031DD82DFF
:102B9000B40A031DD82DB50A031DD82DB60A031D8E
:102BA000D82DB70A031DD82DB80A031DD82DB90A90
:102BB00020003208A0003308A1003408A200350824
:102BC000A3003608A4003708A5003808A600390875
:102BD000A70008002000E800580886008701403F51
:102BE000DA00413FDB005A0884005B0885001200D0
:102BF000253A031DFC2DFD2DD02E58088600870197
:102C00000130810741310318810A2200E901EA01FC
:102C1000F801F901FF302100DA00FF30DB0020006D
:102C2000580886008701403FDA00413FDB005A0820
:102C300084005B0885001200643A0319202E212EBF
:102C4000322E580886008701403FDA00413FDB0002
:102C50005A0884005B0885001200693A031D312E72
:102C6000322E6D2E580886008701013081074131D0
:102C70000318810A5908860087010108840085012C
:102C800002308107003FDA00013FDB005A08DF0015
:102C90005B08E000890D893B8909E100E200E3005F
:102CA000E400E500E6005F08BA006008BB006108C8
:102CB000BC006208BD006308BE006408BF00650870
:102CC000C0006608C10068088B3157239531200089
:102CD0003B08D9003A08D800F32E5808860087012F
:102CE000403FDA00413FDB005A0884005B08850062
:102CF00012006E3A031D7D2E7E2E9D2E58088600F2
:102D000087010130810741310318810A5908860083
:102D10008701403F84008501810A0008DA005A08D3
:102D2000E70067088600870121005808C03F59085E
:102D3000C13F2000D801D901F32E58088600870131
:102D4000403FDA00413FDB005A0884005B08850001
:102D50001200253A031DAD2EAE2EC72E5808860050
:102D600087010130810741310318810A2530F300C2
:102D70000030F4006808DA005A08F50093315E2349
:102D8000953101302000D8000030D900F32E5808CA
:102D9000860087010130810741310318810A992E8D
:102DA000580886008701403FDA00413FDB005A089F
:102DB00084005B0885000008DC00DD015C08F3008E
:102DC0005D08F4006808DE005E08F50093315E23BC
:102DD0009531200058088600870101308107413174
:102DE0000318810AC12E080043302100D400540882
:102DF000FA00230065080319FE2EFF2E7E2F6208BD
:102E00000319032F042F192F8C302000A600A230A5
:102E1000A7006A30A800A130A9001930AA00A0308C
:102E2000AB001930AC00A030AD0093310D239631CA
:102E3000252F03302100D5000830D4007730890BCE
:102E40001F2FD40B1F2FD50B1F2F01309E31702643
:102E5000963106302100D5001330D400AD30890BF7
:102E60002F2FD40B2F2FD50B2F2F003200309E3158
:102E70007026963123005E0803193F2F402F7E2FC6
:102E800063089131B82196312100D4005408230001
:102E9000E4006408031D4D2F4E2F792FE5018C307F
:102EA0002100A500A230A600E530A7000130A8004F
:102EB000E430A9000130AA00943160249631E33057
:102EC0002000A8000130A900E530AA000130AB00C5
:102ED000E430AC000130AD00E130AE000130AF00B5
:102EE0009331B023963164302100D4005408FA00A5
:102EF0007E2F44302100D4005408FA0023006508D6
:102F00000319832F852F8E314E2E62080319892FC6
:102F10008A2F9F2F94302000A600A230A7005B309C
:102F2000A800A130A9001930AA00A030AB001930C8
:102F3000AC00A030AD0093310D239631AB2F0330A0
:102F40002100D5000830D4007730890BA52FD40B91
:102F5000A52FD50BA52F01309E3170269631063056
:102F60002100D5001330D400AD30890BB52FD40B20
:102F7000B52FD50BB52F003200309E31702696311B
:102F800023005E080319C52FC62F832F63089131D4
:102F9000B82196312100D40054082300E4006408CD
:102FA000031DD32FD52F8E31492EE50194302100FA
:102FB000A500A230A600E530A7000130A800E4304B
:102FC000A9000130AA00943160249631E33020003A
:102FD000A8000130A900E530AA000130AB00E430C0
:102FE000AC000130AD00E130AE000130AF009331F4
:102FF000B023963165302100D4005408FA00832FA5
:1030000041347434743465346E347434653420342B
:10301000763461346C3469346434613474346934C2
:103020006F346E3420346C3465346434203472343C
:0E3030006F347534673465340D340A3400345F
:103BF000080016302100970008009E3128269D31CC
:103C00002400161408009E3128269E312400161523
:103C10000800640080010131890B0A2E0034FE0087
:103C200012001E00FE0B102E0034F03021009E000A
:103C30009B019C0101309D00080028302400950064
:103C4000960194012730920021008E150E1608006F
:103C5000240014192C2E2D2E282E16081F39031D72
:103C6000322E332E282E0800703021009900980142
:103C70002200960121001A1F3E2E3F2E3A2E0800E8
:103C8000F30073080319452E462E492E22000C140A
:103C90004B2E22000C100800F30073080319512E5C
:103CA000522E552E22001014572E220010100800FC
:103CB000F300730803195D2E5E2E612E220090140E
:103CC000632E220090100800F30073080319692E78
:103CD0006A2E6D2E220010156F2E22001011080082
:103CE000F30073080319752E762E792E22008C149A
:103CF0007B2E22008C100800F30073080319812E1C
:103D0000822E852E22000C15872E22000C11080011
:103D1000F300730803198D2E8E2E912E22000C169F
:103D2000932E22000C120800F30073080319992E39
:103D30009A2E9D2E22008C169F2E22008C12080097
:103D4000903141209E319E3134269E319D31F9259E
:103D50009E319E3115269E310800F3009E312826A3
:103D60009E317308240091002000911DB82EB92EB9
:103D7000B42E9111080032302400920036309500A4
:103D800096018030940021008E150E168B170B17AC
:103D900091150800F4009D31FD259E3121005C083D
:103DA0009E31AD269E31740821005F049E31AD2600
:103DB0009E319E3103269E3108002D343E3420343E
:103DC0004534523452344534553452343A34203424
:103DD0000034003400340034003400340034003443
:103DE0000034F60021005D08F5007508F604760839
:103DF00004389E31CA269E317608FB399E31CA2688
:103E00009E314230890B022F0032080070302100B1
:103E1000A3002308A40020006F08EA006E08E90050
:103E2000A4302100A30023082000EB0000309131D2
:103E3000E7219F31080020002D08F4002C08F30032
:103E40009F3163279F31730820002C07A00074085E
:103E50002D3DA1002F08A3002E08A2008731D927ED
:103E60009F3108002000A0002100DD012000200873
:103E7000F0399E31F1269F3120002008F7000330F1
:103E8000F735FF3E031D402F7735F0399E31F1267F
:103E90009F3108002000A0002100DD01DD0A200084
:103EA0002008F0399E31F1269F3120002008F700CC
:103EB0000330F735FF3E031D592F7735F0399E311A
:103EC000F1269F3108007408F6007308F5006C2F86
:103ED0000130F3070030F43D730886007408870052
:103EE0000108031D742F752F682F75087302F300E6
:103EF0007608743BF4000800F7018F2F20000F199B
:103F0000822F832F8F2FF701F70A7308860074081A
:103F1000870081017508860076088700810177088F
:103F20000319932F942F7E2F08002000A301A401D2
:103F30009031EB209F3101302000A3070030A43DD9
:103F40002408803AA20080302202031DA92F0230EB
:103F50002302031CAC2FAD2F982F0800F600760823
:103F6000F500F50DF50D21001D0875068339750660
:103F70009D001D140D30890BBB2F000021009D14E6
:103F80009D18C32FC42FC02F1C08F4001B08F3007A
:103F9000080022000C170630F4001330F300AE3096
:103FA000890BD02FF30BD02FF40BD02F22000C1342
:103FB0000630F4001330F300AE30890BDD2FF30B25
:103FC000DD2FF40BDD2F08007708803A2000B000C9
:103FD00080303002031DEE2F013076020318F12FDE
:103FE000F22FFF2F76092000B0007709B100B00A48
:103FF0000319B10A3008F6003108F700FF2F080056
:1040000041345434543445344E34543445342034DB
:10401000563441344C3449344434413454344934B2
:104020004F344E3420344C344534443453340D34FE
:104030000A34003450345234453453345334453404
:10404000523420344F344B3420344F3455342034E0
:1040500045345234523445345534523400344134AA
:104060005434543445344E3454344534203441347B
:1040700043345134553449345434543445344D3434
:1040800045344E3454340034543445345334543469
:1040900020345234313420344F34463446342034C2
:1040A0002D3420345234323420344F344E340034E2
:1040B000543445345334543420345234323420345C
:1040C0004F344634463420342D3420345234333483
:1040D00020344F344E340034543445345334543443
:1040E000203443344134523454344534203444343D
:1040F000393432343534453444343434003456346D
:1041000045345234493446344934453452342034E9
:104110005034313420344534543420345034323423
:10412000003452344534533455344C3454344134CF
:104130005434203443344F344E34463449345234AA
:104140004D344534003454344534533454342034DD
:104150004E344F344E34203443344F344E3446348E
:104160004F3452344D344534003450344F3453348A
:104170004934543449344F344E344E344534523437
:1041800020344334413452345434453400345434AC
:104190004534533454342034333420345234453489
:1041A0004C3441344934533420344F34463446344B
:1041B000003443344C344134563449344534523459
:1041C0002034453443344C3441344934523445343A
:1041D0003F3400345034523445345334533445342E
:1041E000523420344F344B3420342F3420344E3466
:1041F0004F344B3400345434453453345434203425
:1042000033342034523445344C34413449345334FB
:1042100020344F344E340034543445345334543401
:1042200020344C3445344434203443344C34413409
:104230005634493445345234003443344C344134D8
:10424000563449344534523420344534543445349A
:1042500049344E3454343F340034543445345334A8
:10426000543420344C3445344434533420344334AF
:104270004134523454344534003445345234523489
:104280004534553452342034563441344C34493456
:104290004434453445340034543445345334543470
:1042A00020344C3445344434203452344F34553463
:1042B0004734453400345434453453345434203472
:1042C0004C34453444342034563445345234543418
:1042D00045340034543445345334543420344C344D
:1042E00045344434203442344C3445345534453418
:1042F00000344D344F34443455344C344534203438
:104300004534533443344C3441345634453400340A
:104310005434453453345434203442344C345534BA
:10432000453454344F344F345434483400344134D9
:104330005034503455345934453452342034533485
:104340005534523420344F344B3400344D344F34D0
:10435000443455344C34453420344D34413449349C
:10436000543452344534003452344534543449348E
:10437000523445345234203443344134523454346A
:10438000453400344C3445344434533420344134BF
:104390004C344C3455344D34453445345334003466
:1043A0005434453453345434203448344F34523424
:1043B0004C344F344734453400345434453453344A
:1043C00054342034533446344C3441345334483418
:1043D0000034463449344E34203444344534203497
:1043E0005434453453345434003456344F344934FF
:1043F000523420344134503450344C344934003435
:104400005434453453345434203452343134203409
:104410004F344E34003445345434413450344534F0
:104420002034313430340034453454344134503441
:104430004534203431343234003454344534533428
:1044400054342034423450343234003445345434FB
:10445000413450344534203431343334003445341D
:1044600054344134503445342034313434340034FD
:1044700045345434413450344534203431343534A7
:1044800000344534543441345034453420343134CC
:1044900036340034453454344134503445342034B7
:1044A0003134373400344534543441345034453495
:1044B0002034313438340034543445345334543493
:1044C00020344F344B340034453454344134503468
:1044D0004534203431340034543445345334543466
:1044E0002034503431340034453454344134503461
:1044F0004534203432340034543445345334543445
:10450000203450343234003445345434413450343F
:104510004534203433340034453454344134503439
:104520004534203434340034453454344134503428
:104530004534203435340034453454344134503417
:104540004534203436340034453454344134503406
:1045500045342034373400344534543441345034F5
:1045600045342034383400344534543441345034E4
:0E4570004534203439340034253464340034AA
:020000040001F9
:08000000FF3FFF3FFF3FFF3F00
:04000E00E43FFF3F8D
:00000001FF
