:100000008031C52808347A347E1480312000911D57
:100010000A280B28C32891112400151B1028112829
:100020001528951F14281528182815139513C3286B
:10003000941A1B281C28242814191F282028242837
:10004000110824001516C328941A27282828602888
:10005000141D2B282C2860281108613021005F0610
:10006000031D3328342837286130240091003F30A5
:1000700021005F06031D3D283E2841287A08240000
:100080009100753021005F06031D472848284B2842
:10009000753024009100763021005F06031D512841
:1000A00052285528763024009100773021005F06D1
:1000B000031D5B285C28212877302400910021282B
:1000C000941E63286428A628141967286828A6287F
:1000D0001108F0007008F20015163F307206031D7B
:1000E0007228732878283F30F00070082100DF0064
:1000F00061307206031D7D287E2883286130F00060
:1001000070082100DF0075307206031D88288928D9
:100110008E287530F00070082100DF0076307206FE
:10012000031D9328942899287630F0007008210048
:10013000DF0077307206031D9E289F28C328773082
:10014000F00070082100DF00C328C328941EA928EE
:10015000AA28A528141DAD28AE28A5281108F0004E
:100160007008F100151658307106031DB828B9281B
:10017000BB28223091004D307106031DC028C128D4
:10018000A528993091007E1009008031C728803160
:1001900003208031FA002100803102208031E0000C
:1001A0009730840090308500203086000130870031
:1001B00028309D3168258031433084009E30850091
:1001C000C03086000130870014309D3168258031B1
:1001D000F801F901DB01DC01DD01DE01DF015A304C
:1001E00084000130850008309D3162258031A030C7
:1001F00084000130850020309D31622580317E10E1
:1002000020008C31CA2C56080319072908291D29FA
:10021000D3302000A600A230A7002B30A800A130C8
:10022000A900F830AA00A030AB003830AC00A030F4
:10023000AD009231D2228131292903302100D7002B
:100240000830D6007730890B2329D60B2329D70B0A
:10025000232901309D31CA25813106302100D70084
:100260001330D600AD30890B3329D60B3329D70B89
:100270003329003200309D31CA2581310B302100F5
:10028000D7002630D6005D30890B4429D60B44298F
:10029000D70B442900320C309F3114278131740868
:1002A0002200D4007308D300DB302100A300A23069
:1002B000A400220054082100A600220053082100B7
:1002C000A5004C3091314E218131210024082200BB
:1002D000C900210023082200C8005408803A2100E8
:1002E000D60083305602031D7829203022005302A5
:1002F00003187B297C2982294A302100D600560820
:10030000FA00D429D3302100A500A230A60059302C
:10031000A7000130A8005830A9000130AA0093318D
:10032000CC23813122005608031997299829AD2939
:10033000D3302000A600A230A7002B30A800A130A7
:10034000A9004C30AA000130AB003830AC00A0301E
:10035000AD009231D2228131B92903302100D7007A
:100360000830D6007730890BB329D60BB329D70BC9
:10037000B32922008C1357302000A8000130A900B7
:100380005930AA000130AB005830AC000130AD004C
:100390005530AE000130AF009331752381316A30A2
:1003A0002100D6005608FA0029302100D7009630E7
:1003B000D6007F30890BDA29D60BDA29D70BDA2958
:1003C000220059080319E529E629C32A560803190A
:1003D000EA29EB29002A2A302000A600A230A70033
:1003E0002B30A800A130A9003C30AA00A130AB00FE
:1003F0003830AC00A030AD009231D22281310C2ACD
:1004000003302100D7000830D6007730890B062A48
:10041000D60B062AD70B062A01309D31CA25813119
:1004200006302100D7001330D600AD30890B162AD4
:10043000D60B162AD70B162A003200309D31CA255A
:1004400081310B302100D7002630D6005D30890B7A
:10045000272AD60B272AD70B272A00320C309F31A8
:100460001427813174082200D4007308D300DB30D4
:100470002100A300A230A400220054082100A600FD
:10048000220053082100A5004C3091314E218131CA
:10049000210024082200CB00210023082200CA00EA
:1004A0005408803A2100D60082305602031D5B2A90
:1004B000BC302200530203185E2A5F2A652A4B30A3
:1004C0002100D6005608FA00B72A2A302100A500DC
:1004D000A230A6005930A7000130A8005830A9006A
:1004E0000130AA009331CC23813122005608031930
:1004F0007A2A7B2A902A2A302000A600A230A70060
:100500002B30A800A130A9004C30AA000130AB006C
:100510003830AC00A030AD009231D22281319C2A1B
:1005200003302100D7000830D6007730890B962A97
:10053000D60B962AD70B962A22008C17573020000C
:10054000A8000130A9005930AA000130AB00583092
:10055000AC000130AD005530AE000130AF0093313A
:10056000752381316B302100D6005608FA002930FE
:100570002100D7009630D6007F30890BBD2AD60BDC
:10058000BD2AD70BBD2A220059080319C82AC92A37
:10059000A92B56080319CD2ACE2AE32A333020008E
:1005A000A600A230A700FC30A800A130A900383076
:1005B000AA00A030AB003830AC00A030AD009231C2
:1005C000D2228131EF2A03302100D7000830D60033
:1005D0007730890BE92AD60BE92AD70BE92A0B30A9
:1005E0002100D7002630D6005D30890BF52AD60BC6
:1005F000F52AD70BF52A003201309D31CA25813109
:1006000006302100D7001330D600AD30890B062B01
:10061000D60B062BD70B062B003200309D31CA2596
:1006200081313D302100D700E130D6003F30890BC9
:10063000172BD60B172BD70B172B003201309D3100
:10064000CA25813106302100D7001330D600AD30E5
:10065000890B282BD60B282BD70B282B00320030E8
:100660009D31CA25813110302100D7003930D600A4
:100670000D30890B392BD60B392BD70B392B003288
:1006800001309F31DC278131003A0319482B492B77
:10069000612B0130903100208131003A0319512B38
:1006A000522B612B0030903124208131003A031904
:1006B0005A2B5B2B612B4C302100D6005608FA00D8
:1006C000942B2200D90100309D31CA2581310030A0
:1006D0009D31D625813133302100A500A230A600FE
:1006E0005930A7000130A8005830A9000130AA00F5
:1006F0009331CC23813157302000A8000130A9006C
:100700005930AA000130AB005830AC000130AD00C8
:100710005530AE000130AF009331752381316C301C
:100720002100D6005608FA0015302100D7004B30C2
:10073000D600BE30890B9A2BD60B9A2BD70B9A2B4F
:10074000000000309D31CA25813100309D31D62511
:100750008131220059080319AE2BAF2B352C5608D6
:100760000319B32BB42BC92B45302000A600A230AF
:10077000A7004C30A800A130A900E130AA00A130A8
:10078000AB000930AC00A130AD009231D2228131F2
:10079000D52B03302100D7000830D6007730890BE5
:1007A000CF2BD60BCF2BD70BCF2B01309D31CA25AA
:1007B000813106302100D7001330D600AD30890BCF
:1007C000DF2BD60BDF2BD70BDF2B003200309D3118
:1007D000CA2581311F302000EE00A030EF009E318D
:1007E0006C268131DF30F5000030F600220057081A
:1007F0009231822281312100D60056082200D80091
:100800005808031D042C052C302CD901453021003B
:10081000A500A230A6005930A7000130A80058302A
:10082000A9000130AA009331CC2381315730200038
:10083000A8000130A9005930AA000130AB0058309F
:10084000AC000130AD005530AE000130AF00933147
:10085000752381316D302100D6005608FA00352C01
:100860004D302100D6005608FA002200590803191D
:100870003A2C3B2CCF2C560803193F2C402C552CDE
:100880004E302000A600A230A7003C30A800A230C5
:10089000A9003830AA00A030AB003830AC00A0303E
:1008A000AD009231D2228131612C03302100D7007A
:1008B0000830D6007730890B5B2CD60B5B2CD70B1E
:1008C0005B2C01309D31D625813106302100D700C7
:1008D0001330D600AD30890B6B2CD60B6B2CD70B9D
:1008E0006B2C003200309D31D62581310B30210038
:1008F000D7002630D6005D30890B7C2CD60B7C2CA3
:10090000D70B7C2C003201309F31DC278131003A3B
:1009100003198B2C8C2CA42C0130903100208131B8
:10092000003A0319942C952CA42C013090312420EA
:100930008131003A03199D2C9E2CA42C4E302100AD
:10094000D6005608FA00CF2C2200D9014E302100E3
:10095000A500A230A6005930A7000130A8005830E9
:10096000A9000130AA009331CC23813157302000F7
:10097000A8000130A9005930AA000130AB0058305E
:10098000AC000130AD005530AE000130AF00933106
:10099000752381316E302100D6005608FA002200FE
:1009A00059080319D42CD52C692D56080319D92CB4
:1009B000DA2CEF2C57302000A600A230A700EF3031
:1009C000A800A130A9003830AA00A030AB00383010
:1009D000AC00A030AD009231D2228131FB2C03302B
:1009E0002100D7000830D6007730890BF52CD60BC4
:1009F000F52CD70BF52C01309D31FA2581310630CD
:100A00002100D7001330D600AD30890B052DD60B51
:100A1000052DD70B052D003200309D31FA2581318F
:100A20000B302100D7002630D6005D30890B162D03
:100A3000D60B162DD70B162D003200309F31DC2738
:100A40008131003A0319252D262D3E2D003090319D
:100A500000208131003A03192E2D2F2D3E2D00301C
:100A6000903124208131003A0319372D382D3E2D45
:100A70004F302100D6005608FA00692D2200D90116
:100A800057302100A500A230A6005930A700013040
:100A9000A8005830A9000130AA009331CC2381313D
:100AA00057302000A8000130A9005930AA000130B9
:100AB000AB005830AC000130AD005530AE00013015
:100AC000AF009331752381316F302100D600560875
:100AD000FA002200590803196E2D6F2DF92D5608C2
:100AE0000319732D742D892D60302000A600A230CB
:100AF000A7008B30A800A230A9003830AA00A0308F
:100B0000AB003830AC00A030AD009231D222813140
:100B1000952D03302100D7000830D6007730890B9F
:100B20008F2DD60B8F2DD70B8F2D01309D31E225C8
:100B3000813119302100D7005A30D600B130890BED
:100B40009F2DD60B9F2DD70B9F2D003200309D314E
:100B5000E22581310B302100D7002630D6005D30F0
:100B6000890BB02DD60BB02DD70BB02D0032013034
:100B70009F31DC278131003A0319BF2DC02DD82DBC
:100B80000130903100208131003A0319C82DC92D60
:100B9000D82D0130903124208131003A0319D12D14
:100BA000D22DD82D50302100D6005608FA00F92D4C
:100BB00060302100CC00A230CD005930D60056085C
:100BC000CE005830D7005708CF005730D80058080B
:100BD000D0005530D9005908D100DF30DA005A086A
:100BE000D2008A310822813170302100D6005608A7
:100BF000FA00220059080319FE2DFF2D932E5608E6
:100C00000319032E042E192E69302000A600A230ED
:100C1000A7009B30A800A230A9003830AA00A0305D
:100C2000AB003830AC00A030AD009231D22281311F
:100C3000252E03302100D7000830D6007730890BED
:100C40001F2ED60B1F2ED70B1F2E01309D31EE25E8
:100C5000813119302100D7005A30D600B130890BCC
:100C60002F2ED60B2F2ED70B2F2E003200309D317A
:100C7000EE2581310B302100D7002630D6005D30C3
:100C8000890B402ED60B402ED70B402E0032003061
:100C90009F31DC278131003A03194F2E502E682EE8
:100CA0000030903100208131003A0319582E592E1E
:100CB000682E0030903124208131003A0319612ED2
:100CC000622E682E51302100D6005608FA00932E6D
:100CD0002200D90169302100A500A230A6005930B8
:100CE000A7000130A8005830A9000130AA009331B4
:100CF000CC23813157302000A8000130A9005930A1
:100D0000AA000130AB005830AC000130AD005530C6
:100D1000AE000130AF009331752381317130210075
:100D2000D6005608FA00220059080319982E992E69
:100D3000112F560803199D2E9E2EB32E72302000BF
:100D4000A600A230A700A730A800A130A900143047
:100D5000AA00A230AB000930AC00A130AD00923146
:100D6000D2228131BF2E03302100D7000830D600B7
:100D70007730890BB92ED60BB92ED70BB92E9F31F0
:100D80002F278131DF30F5000030F60022005708B0
:100D90009231822281312100D60056082200D800EB
:100DA0005808031DD42ED52E0C2FD90172302100E6
:100DB000A500A230A6005930A7000130A800583085
:100DC000A9000130AA009331CC2381315730200093
:100DD000A8000130A9005930AA000130AB005830FA
:100DE000AC000130AD005530AE000130AF009331A2
:100DF0007523813172302100D6005608FA0029305F
:100E00002100D7009630D6007F30890B052FD60BF6
:100E1000052FD70B052F112F52302100D600560871
:100E2000FA00220059080319162F182F8D31072DAB
:100E3000560803191C2F1D2F322F08302000A60042
:100E4000A230A700CB30A800A030A900D330AA0060
:100E5000A130AB004E30AC00A030AD009231D222B8
:100E600081313E2F03302100D7000830D600773083
:100E7000890B382FD60B382FD70B382F01309D31E7
:100E8000A625813100309D319A2581319E31FB2686
:100E9000813153302100D6005608FA005930D6006F
:100EA0005608F3005F08D7005708F4005730913117
:100EB000FB21813159302000A0000130A1005830C1
:100EC000A2000130A3005730A4000130A500553026
:100ED000A6000130A7009131862181317A302100AE
:100EE000D6005608FA0029302100D7009630D600E7
:100EF0007F30890B792FD60B792FD70B792F162FAF
:100F00008031C5282000B400781C872F882F902FAF
:100F10003408F7007708A5002D089031BF208731ED
:100F20002000AF1B942F952F9A2F2F08B3002E0867
:100F3000B2009C2FB201B301B001B101B02F20303B
:100F4000F3000030F40020003408F7007708F500C3
:100F500093312323873101302000B0070030B13DA9
:100F60003108803AF7003308803A7702031DBA2F20
:100F700032083002031CBD2FBE2F9F2F7818C12FBF
:100F8000C22FCB2F20003408F7007708A5002D08CA
:100F90009031BF20873120002D08F3000130F4008C
:100FA0009E31C9268731200032087307AD0033080F
:100FB000743DAE0008002000A001A10190316F2017
:100FC00087310230F700A030F6009230890BE62F0F
:100FD000F60BE62FF70BE62F003201302000A007BA
:100FE0000030A13D2108803AF60080307602031DD2
:100FF000FB2F02302002031CFE2FFF2FDE2F0800E4
:10100000F03021009E009B019C0101309D000800F2
:10101000F5012830860000308700473FF300F31FBA
:101020001228132834282000A809A909AA09AB0905
:10103000AC09AD09AE09AF09A80A031D3228A90AF7
:10104000031D3228AA0A031D3228AB0A031D3228C9
:10105000AC0A031D3228AD0A031D3228AE0A031D57
:101060003228AF0AF501F50A2030860000308700EB
:10107000473FF300F31F3D283E285D282000A009CC
:10108000A109A209A309A409A509A609A709A00AFB
:10109000031D5D28A10A031D5D28A20A031D5D280A
:1010A000A30A031D5D28A40A031D5D28A50A031DCC
:1010B0005D28A60A031D5D28A70A20002008210438
:1010C0002204230424042504260427040319692880
:1010D0006A28BD28F401F40A7928A035A10DA20DD3
:1010E000A30DA40DA50DA60DA70D0130F3007308E7
:1010F000F407A71F7C287D286D2827082F02031DD1
:101100009B2826082E02031D9B2825082D02031D5F
:101110009B2824082C02031D9B2823082B02031D57
:101120009B2822082A02031D9B2821082902031D4F
:101130009B2820082802031C9E289F28AF282008EF
:10114000A8022108A93B2208AA3B2308AB3B24089C
:10115000AC3B2508AD3B2608AE3B2708AF3BA73686
:10116000A60CA50CA40CA30CA20CA10CA00C013085
:10117000F402031DBC28BD287D2875080319C12869
:10118000C228E028A809A909AA09AB09AC09AD0938
:10119000AE09AF09A80A031DE028A90A031DE0282B
:1011A000AA0A031DE028AB0A031DE028AC0A031DB0
:1011B000E028AD0A031DE028AE0A031DE028AF0AAF
:1011C00020002808A0002908A1002A08A2002B0856
:1011D000A3002C08A4002D08A5002E08A6002F08A7
:1011E000A700080056080319F628F7280C299330A1
:1011F0002000A600A230A700E630A800A030A90079
:101200003830AA00A030AB003830AC00A030AD00C0
:101210009231D2228831182903302100D7000830BA
:10122000D6007730890B1229D60B1229D70B122939
:1012300000309D31CA25883100309D31D625883156
:101240000B302100D7002630D6005D30890B2629CF
:10125000D60B2629D70B2629003201309F31DC27F7
:101260008831003A031D352936294E290130903145
:1012700000208831003A031D3E293F294E290130C4
:10128000903124208831003A031D472948294E29EE
:1012900042302100D6005608FA0079292200D901EF
:1012A00093302100A500A230A6005930A7000130DC
:1012B000A8005830A9000130AA009331CC2388310E
:1012C00057302000A8000130A9005930AA00013091
:1012D000AB005830AC000130AD005530AE000130ED
:1012E000AF0093317523883162302100D600560853
:1012F000FA002200590803197E2980299631F12E1F
:1013000056080319842985299A29A3302000A600AC
:10131000A230A7006B30A800A130A9003830AA0085
:10132000A030AB003830AC00A030AD009231D222FA
:101330008831A62903302100D7000830D600773045
:10134000890BA029D60BA029D70BA02901309D31EC
:10135000CA25883106302100D7001330D600AD30C1
:10136000890BB029D60BB029D70BB0290032003039
:101370009D31CA258831220052080319C029C1298C
:101380007E2900302000EE00A030EF009E316C2658
:101390008831DF30F5000030F60022005708923126
:1013A000822288312100D60056082200D800580831
:1013B000031DDB29DD299631EC2ED901A330210054
:1013C000A500A230A6005930A7000130A80058306F
:1013D000A9000130AA009331CC2388315730200076
:1013E000A8000130A9005930AA000130AB005830E4
:1013F000AC000130AD005530AE000130AF0093318C
:101400007523883163302100D6005608FA007E2902
:10141000C0308600013087002A3084000230850009
:1014200014302100D30016001A00D30B132A3430D5
:1014300086000130870020308400023085000A30A9
:10144000D30016001A00D30B212A01309D31B2259A
:101450008A3101309D31BE258A3100309D31A6256B
:101460008A3121004D082000A70021004C082000EF
:10147000A600C230A800A030A9009E30AA00A0306B
:10148000AB003930AC00A030AD009231D2228A31AD
:101490002A302000AC000230AD0021004D082000B1
:1014A000AF0021004C082000AE009E3181268A3119
:1014B00020002D082400BF0020002C082400BE00BE
:1014C0003F082000AD0024003E082000AC00203082
:1014D000AE000230AF009E3181268A3120002D08F7
:1014E000EF002C08EE009E316C268A3192313D22AD
:1014F0008A3121005208860087010108D300D401F7
:101500005308F5005408F6005008860001308700A3
:101510000108923182228A312100D5005508240029
:10152000C0000B302100D4002630D3005D30890B81
:10153000972AD30B972AD40B972A0032240040080D
:101540000319A32AA42AD82A21004E0886000130B4
:10155000870081014F0886000130870081016030DB
:101560002000A600A230A700C730A800A030A90024
:10157000B030AA00A030AB004E30AC00A030AD00BF
:101580009231D2228A31D0302000A8000030A90048
:10159000CE30AA000030AB00CF30AC000030AD0040
:1015A000D130AE000030AF00933175238A31602B0B
:1015B00060302000A600A230A7008B30A800A23027
:1015C000A9003830AA00A030AB003830AC00A03001
:1015D000AD009231D2228A3100309D31B2258A315C
:1015E00001309D31BE258A3100309D31A6258A31DA
:1015F00001309D31E2258A3119302100D4005A3062
:10160000D300B130890B022BD30B022BD40B022B4E
:10161000003200309D31E2258A3115302100D4009E
:101620004B30D300BE30890B132BD30B132BD40BB1
:10163000132B000001309F31DC278A31003A031957
:10164000222B232B4A2B0130903100208A31003A83
:1016500003192B2B2C2B4A2B0130903124208A315B
:10166000003A0319342B352B4A2B60302000A6009A
:10167000A230A7008B30A800A230A9005C30AA00DD
:10168000A130AB007B30AC00A230AD009231D22251
:101690008A31602B21004E088600013087008101CD
:1016A0006030A500A230A600CE30A7000030A80010
:1016B000CF30A9000030AA009331CC238A31C32A4D
:1016C00008002000C5003A08CE003B08CF003C08C7
:1016D000D0003D08D1003E08D2003F08D3004008AA
:1016E000D4004108D5004E30860000308700473FC7
:1016F000C200C21B7C2B7E2B01307F2B00302000D0
:10170000C300C4014308CC004408CD004C084D047C
:1017100003198B2B8C2BAA2BCE09CF09D009D10909
:10172000D209D309D409D509CE0A031DAA2BCF0AA1
:10173000031DAA2BD00A031DAA2BD10A031DAA2B15
:10174000D20A031DAA2BD30A031DAA2BD40A031DF8
:10175000AA2BD50A2100DC1BAE2BAF2BB32BFD30FF
:10176000F805FF30F9055C08803A2000C20080309F
:101770004202031DBE2B013021005B020318C12B66
:10178000C22BC82B01302000C8000030C900D02B6C
:1017900021005C082000C90021005B082000C8006F
:1017A00022005D082000CB0022005C082000CA0057
:1017B0004C084D04031DDD2BDE2BE22B781DE12BA5
:1017C000E22BE62BFF30CA07FF30CB3D1F30D6009F
:1017D0000030D7002300BF01562CFF302000D60771
:1017E000FF30D73D0A30A000A101A201A301A4014E
:1017F000A501A601A7014E08A8004F08A90050089E
:10180000AA005108AB005208AC005308AD005408C0
:10181000AE005508AF00883108208B312000210828
:10182000F7002008F6009F314A278B317608303EBA
:101830002000C2005608A03E860001308700420802
:101840008100FF30C807FF30C93DFF30CA07FF30B5
:10185000CB3D0A30A000A101A201A301A401A50172
:10186000A601A7014E08A8004F08A9005008AA0029
:101870005108AB005208AC005308AD005408AE004C
:101880005508AF009431DE248B3120002008CE00B3
:101890002108CF002208D0002308D1002408D2005C
:1018A0002508D3002608D4002708D50020005708B3
:1018B000803AC20080304202031D602C0130560283
:1018C000031C632C642C902C20004E084F04500401
:1018D00051045204530454045504031D702C712CFC
:1018E000ED2B4908803AC20080304202031D7A2C59
:1018F0000130480203187D2C7E2CED2B20004B0874
:10190000803AC20080304202031D882C01304A0216
:10191000031C8B2C8C2C902CF8188F2C902CED2BDE
:1019200020004C084D04031D962C972C9B2C781DF1
:101930009A2C9B2CB72CFF30D607FF30D73D4C0894
:101940004D04031DA42CA52CAA2C2B30C60000305E
:10195000C700AE2C2D30C6000030C7004608C200BC
:101960005608A03E860001308700420881005608D4
:10197000A03EC2004208AD004B08AF004A08AE00CE
:101980004508873182278B3120002E08BB002D08A7
:10199000BA0008009E3106268C312200D901D801F8
:1019A000D701D101D501D50AD601D60A20008E1A59
:1019B000DA2CDB2CE12C2200D6019E3121268C3141
:1019C000E42C9D3177258C3120000E1CE82CE92C6D
:1019D000ED2C2200D201D20AEF2C2200D2012000ED
:1019E0008E18F32CF42CF82C2200D101D10AFA2CF9
:1019F0002200D10115302100D7004B30D600BE3077
:101A0000890B002DD60B002DD70B002D00002200D6
:101A1000560803190C2D0D2D672D4E30943152248C
:101A20008C318B302000A600A030A700C530A80064
:101A3000A130A900D430AA00A030AB00B630AC0071
:101A4000A130AD009231D2228C3103302100D70079
:101A50000830D6007730890B2B2DD60B2B2DD70BCA
:101A60002B2D4630943152248C318B302000A6002F
:101A7000A030A7009830A800A130A900D430AA0057
:101A8000A030AB00B630AC00A130AD009231D22214
:101A90008C3103302100D7000830D6007730890B15
:101AA0004F2DD60B4F2DD70B4F2D672D59302100C1
:101AB000D6005608F3005530D7005708F400DF3041
:101AC000D8005808F50057309131BF218C312200E1
:101AD000590803196C2D6D2D562DD5018731DB2743
:101AE0008C312200D901D90A00309D31A6258C31D4
:101AF00000309D31B2258C3101309D31BE258C31B5
:101B000003302100D7000830D6007730890B862DAE
:101B1000D60B862DD70B862D220056080319912D42
:101B2000922DA72D83302000A600A230A7001A30E6
:101B3000A800A130A9003830AA00A030AB0038308E
:101B4000AC00A030AD009231D2228C31B32D0330E5
:101B50002100D7000830D6007730890BAD2DD60B89
:101B6000AD2DD70BAD2D01309D31CA258C31013003
:101B70009D31D6258C3115302100D7004B30D60051
:101B8000BE30890BC12DD60BC12DD70BC12D000046
:101B900001309D319A258C3129302100D7009630B3
:101BA000D6007F30890BD22DD60BD22DD70BD22D5C
:101BB00001309F31DC278C31003A0319E02DE12DF3
:101BC000F92D0130903100208C31003A0319E92DB4
:101BD000EA2DF92D0130903124208C31003A03197F
:101BE000F22DF32DF92D41302100D6005608FA00D0
:101BF0002C2E2200D90100309D31CA258C310030B5
:101C00009D31D6258C3183302100A500A230A6005D
:101C10005930A7000130A8005830A9000130AA00AF
:101C20009331CC238C3157302000A8000130A9001B
:101C30005930AA000130AB005830AC000130AD0083
:101C40005530AE000130AF00933175238C316130D7
:101C50002100D6005608FA0015302100D7004B307D
:101C6000D600BE30890B322ED60B322ED70B322E39
:101C7000000000309D31CA258C3100309D31D625C1
:101C80008C31220059080319472E8831F2288931F6
:101C9000792945302100D6005608FA00220059085B
:101CA0000319532E542ED62E56080319582E592E8A
:101CB0006E2EBB302000A600A230A7001F30A80067
:101CC000A230A9003830AA00A030AB003830AC00F8
:101CD000A030AD009231D2228E317A2E0330210015
:101CE000D7000830D6007730890B742ED60B742EAF
:101CF000D70B742E01309D31CA258E31153021004D
:101D0000D7004B30D600BE30890B842ED60B842EE4
:101D1000D70B842E000000309D31CA258E3115303E
:101D20002100D7004B30D600BE30890B952ED60B44
:101D3000952ED70B952E000001309F31DC278E3178
:101D4000003A0319A42EA52EAB2E46302100D60052
:101D50005608FA00D62E2200D901BB302100A5007A
:101D6000A230A6005930A7000130A8005830A900C1
:101D70000130AA009331CC238E3157302000A800C7
:101D80000130A9005930AA000130AB005830AC0036
:101D90000130AD005530AE000130AF0093317523F6
:101DA0008E3166302100D6005608FA00220059080C
:101DB0000319DB2EDC2E672F56080319E02EE12EC7
:101DC000F62EC3302000A600A230A7006330A80082
:101DD000A030A9003830AA00A030AB003830AC00E9
:101DE000A030AD009231D2228E31022F033021007B
:101DF000D7000830D6007730890BFC2ED60BFC2E8E
:101E0000D70BFC2E01309D31CA258E3115302100B3
:101E1000D7004B30D600BE30890B0C2FD60B0C2FC1
:101E2000D70B0C2F000000309D31CA258E311530A4
:101E30002100D7004B30D600BE30890B1D2FD60BAA
:101E40001D2FD70B1D2F000000309F31DC278E3156
:101E5000003A03192C2F2D2F3C2F013090310020F8
:101E60008E31003A0319352F362F3C2F4730210091
:101E7000D6005608FA00672F2200D901C33021008E
:101E8000A500A230A6005930A7000130A8005830A4
:101E9000A9000130AA009331CC238E3157302000A5
:101EA000A8000130A9005930AA000130AB00583019
:101EB000AC000130AD005530AE000130AF009331C1
:101EC00075238E3167302100D6005608FA002200B3
:101ED000590803196C2F6D2FF82F56080319712F0D
:101EE000722F872FCB302000A600A230A7007730BA
:101EF000A800A030A9003830AA00A030AB003830CC
:101F0000AC00A030AD009231D2228E31932F03303D
:101F10002100D7000830D6007730890B8D2FD60BE3
:101F20008D2FD70B8D2F01309D31CA258E31153065
:101F30002100D7004B30D600BE30890B9D2FD60B29
:101F40009D2FD70B9D2F000000309D31CA258E316B
:101F500015302100D7004B30D600BE30890BAE2F94
:101F6000D60BAE2FD70BAE2F0000003090310020E3
:101F70008E31003A0319BD2FBE2FCD2F0130903185
:101F800024208E31003A0319C62FC72FCD2F493098
:101F90002100D6005608FA00F82F2200D901CB30D4
:101FA0002100A500A230A6005930A7000130A800EA
:101FB0005830A9000130AA009331CC238E3157301C
:101FC0002000A8000130A9005930AA000130AB0060
:101FD0005830AC000130AD005530AE000130AF00DC
:101FE000933175238E3169302100D6005608FA00EE
:101FF000220059080319FE2F813103298131E0297C
:10200000F400F30174080319062807281228200099
:102010008F1D0B280C2812280F1A0F2810281228A1
:10202000F301F30A7408031D16281728222820003C
:102030008F191B281C2822280F1E1F282028222821
:10204000F301F30A73080800F400F301740803199C
:102050002A282B28362820008F1E2F2830283628A3
:102060000F1B332834283628F301F30A7408031DA4
:102070003A283B28462820008F1A3F284028462827
:102080000F1F432844284628F301F30A7308080069
:1020900020002308A9002208A8002108AB0020087E
:1020A000AA002B08A5002A08A400AA0A0319AB0A53
:1020B00024088600250887002908A7002808A6000C
:1020C000A80A0319A90A2608840027088500000821
:1020D000C03F8908031D6D286E2851280800F401AF
:1020E000F50122000D160630F3003030890B7628FA
:1020F000F30B7628003222000D120630F300303048
:10210000890B8028F30B802800320130F40700305F
:10211000F53D7508803AF30080307302031D922864
:1021200032307402031C95289628712808002D343B
:102130003E342034453452345234453455345234CC
:102140003A34203400340034003400340034003495
:102150000034003400340D340A34003400340034C8
:10216000003400340034003400340D340A340034B8
:1021700000340034003400340034003400342000D3
:10218000AC00AA01AB01D7282908A600A7012608A0
:10219000F3002708F4002508A8002808F50093316B
:1021A0002323903101302000AA070030AB3D2A08DC
:1021B0002C07A60026088600013087000108A7002A
:1021C0002708A9002908031DE628E728C4280800D5
:1021D0002000A40003292108BF3E9E31982690319B
:1021E00016292108933E9E31982690311629210800
:1021F000D33E9E3198269031162921087F3E9E318C
:102200009826903116292408A200A3012308003A39
:1022100003190B29FD282208023A0319EB28013A79
:102220000319F128073A0319F728FD2808002100AF
:10223000A00020006A082100A200200069082100F7
:10224000A1002200DA01DB013B29A1302000EC00D3
:102250006C08D8006B08ED006D08D900210020083B
:102260009531E2259131200058082200DA0720003C
:1022700059082200DB3D2100210884002208850046
:102280001200031D44294529252922005B0820004E
:10229000EA0022005A082000E90008002100AA00F4
:1022A000A5302000EE006E082100A9002A082000B9
:1022B000EE006E082100AB00AC01AD01AE01AF0134
:1022C00024082000EA00210023082000E900A930AA
:1022D000EE006E08EB00AB309131172191312000F8
:1022E0006A082100A800200069082100A7002C0826
:1022F0002A072000EE006E08860001308700810169
:1023000021002808A4002708A300080020002008B6
:1023100086002108870081012208860023088700A3
:10232000810124088600250887008101260886008F
:10233000270887000130810000309D31A6259131AA
:1023400000309D31B225913100309D31BE25913153
:1023500000309D319A25913100309D31CA2591314F
:1023600000309D31D625913100309D31E2259131EB
:1023700000309D31EE25913122008C130800F700CA
:10238000F601F52920000F19C629C729D929F60118
:10239000F60A7708860001308700810174088600FC
:1023A00001308700810173088600013087008101B8
:1023B000810A75088600870161300106031DE12945
:1023C000E229F529F601F60A770886000130870030
:1023D0008101810A74088600013087008101730839
:1023E0008600013087008101810A76080319F929E6
:1023F000FA29C22908002000A100A001372A0F19DC
:10240000022A032A2A2AA001A00A210886000130F4
:1024100087008101730886000130870081012A2A24
:102420002108860001308700810173088600013091
:10243000870081010230F6000430F500BA30890BC4
:102440001F2AF50B1F2AF60B1F2A00322000A001BD
:10245000A00A372A7408F500F6017608003A031935
:10246000322A372A7508773A0319102A372A2008A2
:1024700003193B2A3C2AFF2908002000A001A101E2
:102480002000A201A30190316F2092311530F70096
:102490004B30F600BE30890B4B2AF60B4B2AF70B5C
:1024A0004B2A003201302000A2070030A33D230850
:1024B000803AF60080307602031D602A0430220242
:1024C000031C632A642A432A0B30F7002630F600E7
:1024D0005E30890B692AF60B692AF70B692A0130ED
:1024E0002000A0070030A13D2108803AF60080308E
:1024F0007602031D7D2A04302002031C802A812AD3
:10250000402A08002000A300A201A4012308031907
:102510008A2A8B2AA92AA42A0130D12A0030D12A5A
:1025200075088600760887000108A000A10121082F
:10253000003A03199C2AA42A2008753A03198C2A08
:10254000033A03198E2AA42A24080319A82AA92ABF
:10255000902A2308031DAD2AAE2AD02ACA2A0130A8
:102560009F3166279231003A0319B72AB82ABC2A4C
:102570002000A201A401A40A01309F3182279231D8
:10258000003A0319C42AC52ACA2A2000A201A20AB5
:10259000A401A40A200024080319CF2AD02AAF2AB4
:1025A000220808009D316E25923106309E31982612
:1025B000923102302000AF000430AE00BA30890BF7
:1025C000DF2AAE0BDF2AAF0BDF2A00002000A101BB
:1025D000A10A01309031E820923120002708A200A2
:1025E0002608A1009F31BD2792312000A101A10A38
:1025F00002309031E820923120002908A2002808FA
:10260000A1009F31BD2792312000A101A10A033012
:102610009031E820923120002B08A2002A08A10066
:102620009F31BD2792312000A101A10A04309031D1
:10263000E820923120002D08A2002C08A1009F3133
:10264000BD279231080075080319272B282B2D2B45
:102650007508031D2C2B2D2B322B73089D31512512
:102660009331742B7508033E860087011600010420
:1026700003193B2B3C2B5A2B7508033E8600870120
:10268000403F2000A000413FA100750A860087015D
:10269000403FA200413FA3002308803AA400210844
:1026A000803A2402031D562B200822020318592BBE
:1026B0005A2B742B73082000A00075088600870130
:1026C000750A8400850100080107A1002108860021
:1026D0000130870020088100750A860087010130DB
:1026E000810741310318810A08002000280886006C
:1026F000290887000108B000B1013008F300310853
:10270000F4002A0886002B0887000108B200B301F4
:102710003208F5003308F6009E31E226933120009E
:102720002A0886002B0887000108B000B101300894
:10273000A0003108A1002C0886002D0887000108A0
:10274000B200B3013208A2003308A30028088600B3
:10275000290887000108B400B5013408A400350831
:10276000A5002E0886002F0887000108B600B701D3
:102770003608A6003708A700913186219331293009
:102780002000B1009630B0007F30890BC52BB00B14
:10279000C52BB10BC52B0800203086000130870007
:1027A000B63084000030850014302100AB001600E4
:1027B0001A00AB0BD72B3E30860001308700AC30BF
:1027C0008400003085000A30AB0016001A00AB0B05
:1027D000E52B01309D31B225933101309D31BE256D
:1027E000933100309D31A625933100309D319A25DB
:1027F0009331210026082000A70021002508200091
:10280000A600C230A800A030A9004E30AA00A03017
:10281000AB003830AC00A030AD009231D222933101
:10282000B6302000AC000030AD00210026082000AA
:10283000AF00210025082000AE009E318126933193
:1028400020002D082100CB0020002C082100CA0008
:102850004B082000AD0021004A082000AC00AC303D
:10286000AE000030AF009E318126933120002D084C
:10287000EF002C08EE009E316C26933192313D2200
:10288000933120000F1D452C462C412C2100270898
:102890008600280887008101290886002A08870009
:1028A000810108002000A3002308A10021082100C5
:1028B000DD0000309E31302694319C302000A10094
:1028C000D730890B612CA10B612C03309E319826E7
:1028D00094311A302000A100F830890B6D2CA10B27
:1028E0006D2C000003309E31982694311A30200060
:1028F000A100F830890B7A2CA10B7A2C0000033050
:102900009E31982694311A302000A100F830890BAE
:10291000872CA10B872C000002309E319826943121
:102920001A302000A100F830890B942CA10B942CB4
:10293000000028309E319826943102302000A200F9
:102940000430A100BA30890BA32CA10BA32CA20B3D
:10295000A32C00000C309E319826943102302000C8
:10296000A2000430A100BA30890BB42CA10BB42C06
:10297000A20BB42C000001309E3198269431023015
:102980002000A2000430A100BA30890BC52CA10B95
:10299000C52CA20BC52C000006309E319826943120
:1029A00002302000A2000430A100BA30890BD62CDE
:1029B000A10BD62CA20BD62C000008002000B101E0
:1029C0002030860000308700473FF300F31FE92CDA
:1029D000EA2C0C2D2000A009A109A209A309A40931
:1029E000A509A609A709A00A031D092DA10A031D0F
:1029F000092DA20A031D092DA30A031D092DA40AEE
:102A0000031D092DA50A031D092DA60A031D092D65
:102A1000A70A2000B101B10A2830860000308700E3
:102A2000473FF300F31F152D162D3A2D2000A8095E
:102A3000A909AA09AB09AC09AD09AE09AF09A80AF1
:102A4000031D352DA90A031D352DAA0A031D352D99
:102A5000AB0A031D352DAC0A031D352DAD0A031D30
:102A6000352DAE0A031D352DAF0A0130F300730872
:102A70002000B10632308600003087000830F300B5
:102A800000301E00F30B412D2000200821042204F9
:102A9000230424042504260427040319502D512D52
:102AA000AD2DB001B00A602DA035A10DA20DA30D72
:102AB000A40DA50DA60DA70D0130F3007308B007F6
:102AC000A71F632D642D542DB235B30DB40DB50D74
:102AD000B60DB70DB80DB90D27082F02031D8A2DAD
:102AE00026082E02031D8A2D25082D02031D8A2D7E
:102AF00024082C02031D8A2D23082B02031D8A2D76
:102B000022082A02031D8A2D21082902031D8A2D6D
:102B100020082802031C8D2D8E2D9F2D2008A80231
:102B20002108A93B2208AA3B2308AB3B2408AC3B65
:102B30002508AD3B2608AE3B2708AF3B3214A7362D
:102B4000A60CA50CA40CA30CA20CA10CA00C01308B
:102B5000B002031DAC2DAD2D642D31080319B12D2C
:102B6000B22DD02DB209B309B409B509B609B70918
:102B7000B809B909B20A031DD02DB30A031DD02D1F
:102B8000B40A031DD02DB50A031DD02DB60A031DAE
:102B9000D02DB70A031DD02DB80A031DD02DB90AB8
:102BA00020003208A0003308A1003408A200350834
:102BB000A3003608A4003708A5003808A600390885
:102BC000A70008002000E800580886008701403F61
:102BD000DA00413FDB005A0884005B0885001200E0
:102BE000253A031DF42DF52DC82E580886008701BF
:102BF0000130810741310318810A2200DC01DD0127
:102C0000F801F901FF302100DB00FF30DC0020007B
:102C1000580886008701403FDA00413FDB005A0830
:102C200084005B0885001200643A0319182E192EDF
:102C30002A2E580886008701403FDA00413FDB001A
:102C40005A0884005B0885001200693A031D292E8A
:102C50002A2E652E580886008701013081074131F0
:102C60000318810A5908860087010108840085013C
:102C700002308107003FDA00013FDB005A08DF0025
:102C80005B08E000890D893B8909E100E200E3006F
:102C9000E400E500E6005F08BA006008BB006108D8
:102CA000BC006208BD006308BE006408BF00650880
:102CB000C0006608C10068088B316123953120008F
:102CC0003B08D9003A08D800EB2E58088600870147
:102CD000403FDA00413FDB005A0884005B08850072
:102CE00012006E3A031D752E762E952E580886001A
:102CF00087010130810741310318810A5908860094
:102D00008701403F84008501810A0008DA005A08E3
:102D1000E70067088600870122005A08C03F5B0869
:102D2000C13F2000D801D901EB2E58088600870149
:102D3000403FDA00413FDB005A0884005B08850011
:102D40001200253A031DA52EA62EBF2E5808860078
:102D500087010130810741310318810A2530F300D2
:102D60000030F4006808DA005A08F5009331232394
:102D7000953101302000D8000030D900EB2E5808E2
:102D8000860087010130810741310318810A912EA5
:102D9000580886008701403FDA00413FDB005A08AF
:102DA00084005B0885000008DC00DD015C08F3009E
:102DB0005D08F4006808DE005E08F5009331232307
:102DC0009531200058088600870101308107413184
:102DD0000318810AB92E080043302100D600560896
:102DE000FA00220059080319F62EF72E7A2F5608FA
:102DF0000319FB2EFC2E112FAB302000A600A230B1
:102E0000A7008930A800A130A9003830AA00A0305E
:102E1000AB003830AC00A030AD009231D2229631F8
:102E20001D2F03302100D7000830D6007730890BE2
:102E3000172FD60B172FD70B172F01309D31CA250F
:102E4000963106302100D7001330D600AD30890B03
:102E5000272FD60B272FD70B272F003200309D317D
:102E6000CA259631220052080319372F382F7A2F9E
:102E7000DF30F5000030F60057089231822296319B
:102E80002100D60056082200D8005808031D492FFB
:102E90004A2F752FD901AB302100A500A230A60022
:102EA0005930A7000130A8005830A9000130AA000D
:102EB0009331CC23963157302000A8000130A9006F
:102EC0005930AA000130AB005830AC000130AD00E1
:102ED0005530AE000130AF00933175239631643028
:102EE0002100D6005608FA007A2F44302100D6007F
:102EF0005608FA002200590803197F2F812F8E31BE
:102F00004E2E56080319852F862F9B2FB330200095
:102F1000A600A230A7007A30A800A130A90038305E
:102F2000AA00A030AB003830AC00A030AD00923128
:102F3000D2229631A72F03302100D7000830D600C7
:102F40007730890BA12FD60BA12FD70BA12F0130E2
:102F50009D31CA25963106302100D7001330D600A6
:102F6000AD30890BB12FD60BB12FD70BB12F00325B
:102F700000309D31CA259631220052080319C12F15
:102F8000C22F7F2FDF30F5000030F6005708923156
:102F9000822296312100D60056082200D800580817
:102FA000031DD32FD52F8E31492ED901B3302100E7
:102FB000A500A230A6005930A7000130A800583063
:102FC000A9000130AA009331CC239631573020005C
:102FD000A8000130A9005930AA000130AB005830D8
:102FE000AC000130AD005530AE000130AF00933180
:102FF0007523963165302100D6005608FA007F2FE0
:103AA200080016302100970008009D3182259D31C3
:103AB2002400161408009D3182259D31240016151C
:103AC2000800640080010131890B632D0034FE007F
:103AD20012001E00FE0B692D003401309E31982623
:103AE2009D313530890B732D0000080028302400E9
:103AF2009500960194012730920021008E150E1632
:103B0200080024001419862D872D822D16081F39CE
:103B1200031D8C2D8D2D822D0800703021009900FF
:103B220098012200960121001A1F982D992D942D9B
:103B32000800F300730803199F2DA02DA32D220066
:103B42000C14A52D22000C100800F30073080319B1
:103B5200AB2DAC2DAF2D22001014B12D2200101070
:103B62000800F30073080319B72DB82DBB2D2200EE
:103B72009014BD2D220090100800F3007308031961
:103B8200C32DC42DC72D22001015C92D22001011DE
:103B92000800F30073080319CF2DD02DD32D220076
:103BA2008C14D52D22008C100800F3007308031921
:103BB200DB2DDC2DDF2D22000C15E12D22000C1156
:103BC2000800F30073080319E72DE82DEB2D2200FE
:103BD2000C16ED2D22000C120800F30073080319D5
:103BE200F32DF42DF72D22008C16F92D22008C12C4
:103BF2000800F30073080319FF2D002E032E220084
:103C02008C15052E22008C1108009F319E279E31B3
:103C12009D318E259E319D3152259E318831002065
:103C22009E310800F3009D3182259E3173082400E5
:103C320091002000911D1E2E1F2E1A2E9111080098
:103C42003230240092003630950096018030940084
:103C520021008E150E168B170B1791150800F40014
:103C62009D3156259E3121005D089E3113269E31DD
:103C72007408210060049E3113269E319D315C251B
:103C82009E3108002D343E342034453452345234AF
:103C92004534553452343A3420340034003400343C
:103CA200003400340034003400340034F6002100C3
:103CB2005E08F5007508F604760804389E31302651
:103CC2009E317608FB399E3130269E314230890B77
:103CD200682E0032080070302100A3002308A400DF
:103CE20020006F08EA006E08E900A4302100A3005A
:103CF20023082000EB000030913117219E3108008B
:103D020020002D08F4002C08F3009E31C9269E31B4
:103D1200730820002C07A00074082D3DA1002F0875
:103D2200A3002E08A200903148209E3108002000F6
:103D3200A0002100DE0120002008F0399E31572624
:103D42009E3120002008F7000330F735FF3E031DA7
:103D5200A62E7735F0399E3157269E310800200075
:103D6200A0002100DE01DE0A20002008F0399E3189
:103D720057269E3120002008F7000330F735FF3E1A
:103D8200031DBF2E7735F0399E3157269E3108002C
:103D92007408F6007308F500D22E0130F3070030E4
:103DA200F43D73088600740887000108031DDA2EAB
:103DB200DB2ECE2E75087302F3007608743BF400F6
:103DC2000800F701F52E20000F19E82EE92EF52E36
:103DD200F701F70A730886007408870081017508E5
:103DE200860076088700810177080319F92EFA2EDA
:103DF200E42E08002000A301A4018731DB279E31B5
:103E020001302000A3070030A43D2408803AA2001C
:103E120080302202031D0F2F02302302031C122FB7
:103E2200132FFE2E0800F6007608F500F50DF50DAD
:103E320021001D087506833975069D001D140D307D
:103E4200890B212F000021009D149D18292F2A2F54
:103E5200262F1C08F4001B08F300080022000C1790
:103E62000630F4001330F300AE30890B362FF30B1B
:103E7200362FF40B362F22000C130630F4001330C9
:103E8200F300AE30890B432FF30B432FF40B432F78
:103E920008007708803A2000B00080303002031D0D
:103EA200542F013076020318572F582F652F7609A9
:103EB2002000B0007709B100B00A0319B10A300836
:103EC200F6003108F700652F0800F400F3017408CA
:103ED20003196C2F6D2F742F20008F1B712F722FDF
:103EE200742FF301F30A7408031D782F792F802FA2
:103EF20020008F1F7D2F7E2F802FF301F30A73087E
:103F02000800F400F30174080319882F892F902FF9
:103F120020000F198D2F8E2F902FF301F30A7408B2
:103F2200031D942F952F9C2F20000F1D992F9A2F40
:103F32009C2FF301F30A73080800220090018F01FD
:103F42008C018D018E010830210090008C01CF3050
:103F52008D00FF308E00FF308F0023008F013F3035
:103F62008D0090013C308C00240090018D012100D5
:103F7200951722009D0108002000A401A501D02F61
:103F82002108240784002208253D850000089E316F
:103F9200B0269F3101302000A4070030A53D210842
:103FA200240784002208253D85001200031DDA2F14
:103FB200DB2FC12F0800F400F30174080319E22F6C
:103FC200E32FEE2F20000F1CE72FE82FEE2F8F1884
:103FD200EB2FEC2FEE2FF301F30A7408031DF22FDF
:103FE200F32FFE2F20000F18F72FF82FFE2F8F1C14
:103FF200FB2FFC2FFE2FF301F30A73080800413454
:104002007434743465346E347434653420347634E4
:1040120061346C34693464346134743469346F34B7
:104022006E3420346C3465346434203472346F342A
:104032007534673465340D340A34003441345434F1
:10404200543445344E345434453420345634413497
:104052004C34493444344134543449344F344E346A
:1040620020344C344534443453340D340A3400344F
:10407200503452344534533453344534523420345A
:104082004F344B3420344F34553420344534523479
:104092005234453455345234003441345434543457
:1040A20045344E345434453420344134433451344D
:1040B200553449345434543445344D3445344E34F3
:1040C2005434003454344534533454342034523448
:1040D200313420344F344634463420342D342034A5
:1040E2005234323420344F344E3400345434453454
:1040F2005334543420345234323420344F3446341E
:10410200463420342D3420345234333420344F3466
:104112004E3400345434453453345434203443340C
:1041220041345234543445342034443439343234F2
:1041320035344534443434340034563445345234FE
:1041420049344634493445345234203450343134BD
:104152002034453454342034503432340034523410
:104162004534533455344C3454344134543420346B
:1041720043344F344E344634493452344D3445344A
:104182000034543445345334543420344E344F3490
:104192004E34203443344F344E3446344F34523448
:1041A2004D344534003450344F345334493454344C
:1041B20049344F344E344E3445345234203443342F
:1041C2004134523454344534003454344534533435
:1041D2005434203433342034523445344C34413452
:1041E2004934533420344F34463446340034433453
:1041F2004C344134563449344534523420344534F5
:1042020043344C3441344934523445343F3400341D
:1042120050345234453453345334453452342034B8
:104222004F344B3420342F3420344E344F344B34FB
:104232000034543445345334543420343334203429
:10424200523445344C3441344934533420344F349D
:104252004E340034543445345334543420344C34C2
:1042620045344434203443344C3441345634493494
:1042720045345234003443344C3441345634493496
:1042820045345234203445345434453449344E3460
:1042920054343F3400345434453453345434203489
:1042A2004C3445344434533420344334413452344E
:1042B2005434453400344534523452344534553440
:1042C20052342034563441344C3449344434453425
:1042D20045340034543445345334543420344C344B
:1042E20045344434203452344F3455344734453401
:1042F2000034543445345334543420344C3445342B
:104302004434203456344534523454344534003421
:10431200543445345334543420344C3445344434C6
:10432200203442344C3445345534453400344D3411
:104332004F34443455344C344534203445345334AA
:1043420043344C34413456344534003454344534C7
:1043520053345434203442344C3455344534543478
:104362004F344F3454344834003441345034503490
:10437200553459344534523420345334553452343C
:1043820020344F344B3400344D344F34443455349C
:104392004C34453420344D3441344934543452344D
:1043A200453400345234453454344934523445345B
:1043B200523420344334413452345434453400347A
:1043C2004C34453444345334203441344C344C342A
:1043D20055344D3445344534533400345434453423
:1043E20053345434203448344F3452344C344F34E0
:1043F200473445340034543445345334543420342F
:10440200533446344C344134533448340034463403
:1044120049344E3420344434453420345434453401
:1044220053345434003456344F34493452342034E3
:104432004134503450344C344934003454344534CB
:104442005334543420345234313420344F344E34C3
:1044520000344534543441345034453420343134FA
:1044620030340034453454344134503445342034EB
:1044720031343234003454344534533454342034D7
:10448200423450343234003445345434413450349C
:1044920045342034313433340034453454344134D7
:1044A20050344534203431343434003445345434B7
:1044B20041345034453420343134353400344534B9
:1044C2005434413450344534203431343634003499
:1044D2004534543441345034453420343134373443
:1044E200003445345434413450344534203431346A
:1044F20038340034543445345334543420344F3433
:104502004B3400344534543441345034453420342F
:104512003134003454344534533454342034503418
:104522003134003445345434413450344534203429
:1045320032340034543445345334543420345034F7
:104542003234003445345434413450344534203408
:1045520033340034453454344134503445342034F7
:1045620034340034453454344134503445342034E6
:1045720035340034453454344134503445342034D5
:1045820036340034453454344134503445342034C4
:1045920037340034453454344134503445342034B3
:1045A20038340034453454344134503445342034A2
:0A45B2003934003425346434003439
:020000040001F9
:08000000FF3FFF3FFF3FFF3F00
:04000E00E43FFF3F8D
:00000001FF
