:04000000803188289B
:100008007E14803122008C172000911D0C280D28A9
:10001800862891112400151B122813281728951FCC
:10002800162817281A28151395138628941A1D2898
:100038001E282628141921282228262811082400D9
:1000480015168628941A29282A284428141D2D288C
:100058002E2844281108193021006E06031D352862
:1000680036283928553024009100613021006E0669
:10007800031D3F2840282328783024009100232896
:10008800941E47284828692814194B284C286928A1
:100098001108F0007008F200151619307206031DD9
:1000A800562857285C281930F00070082100EE0007
:1000B80061307206031D6128622886286130F000CD
:1000C80070082100EE0086288628941E6C286D286A
:1000D8006828141D7028712868281108F000700815
:1000E800F100151658307106031D7B287C287E28E0
:1000F800223091004D307106031D8328842868281A
:10010800993091007E10090080318A2821008731BA
:10011800FE278031EF00DB308400913085002030ED
:1001280086000130870028309E318E2680317A3053
:1001380084009F308500C03086000130870014306D
:100148009E318E268031F801F901FA01E901EA01B0
:10015800EB01EC01ED01EE012200E901EA01EB01FE
:10016800EC01ED01EE01A030840001308500203063
:100178009E31882680317E1020008B31622B6508E5
:100188000319C728C828DD28BD302000A600A330E1
:10019800A7006730A800A030A9008D30AA00A030C1
:1001A800AB008D30AC00A030AD009331BB23803163
:1001B800E92803302100D4000830D3007730890BB8
:1001C800E328D30BE328D40BE32801309E31ED2636
:1001D800803115302100D4004B30D300BE30890B5C
:1001E800F328D30BF328D40BF328000000309E31FA
:1001F800ED26803115302100D4004B30D300BE30BD
:10020800890B0429D30B0429D40B042900000030DE
:1002180091311F218031003A031913291429262905
:100228000130913143218031003A03191C291D29DD
:100238002629D6302000EE00A230EF009F318E270D
:10024800803148292100E801BD30A500A330A6006F
:10025800E830D3005308A700E730D4005408A800BA
:1002680088311D208031E8302100D3005308AD00CB
:10027800E730D4005408AE00E430D5005508AF008C
:10028800E63094315D2480312100680803194D2936
:100298004E291C2A65080319522953296829C53093
:1002A8002000A600A330A7002E30A800A130A90086
:1002B800FB30AA00A030AB008D30AC00A030AD0000
:1002C8009331BB238031742903302100D4000830D6
:1002D800D3007730890B6E29D30B6E29D40B6E2986
:1002E80001309E31ED26803106302100D4001330D4
:1002F800D300AD30890B7E29D30B7E29D40B7E2900
:10030800003200309E31ED2680310B302100D400C0
:100318002630D3005D30890B8F29D30B8F29D40B5E
:100328008F2900320C3090310B2080317408210065
:10033800E3007308E200CD30A300A330A4006308F3
:10034800A6006208A500DB309231F422803121003A
:100358002408D8002308D7006308803AD3008330E4
:100368005302031DB929203062020318BC29BD2994
:10037800C629E2302000EE00A230EF009F318E2720
:100388008031102AC5302100A500A330A600E8302E
:10039800D3005308A700E730D4005408A8008831D8
:1003A8001D208031210065080319DB29DC29F1298A
:1003B800C5302000A600A330A7002E30A800A13029
:1003C800A900DB30AA000030AB008D30AC00A030B3
:1003D800AD009331BB238031FD2903302100D400C7
:1003E8000830D3007730890BF729D30BF729D40BC2
:1003F800F72922008C13E8302100D3005308AD0000
:10040800E730D4005408AE00E430D5005508AF00FA
:10041800E63094315D24803129302100D4009630B3
:10042800D3007F30890B162AD30B162AD40B162A31
:10043800210068080319212A222AF02A65080319CD
:10044800262A272A3C2A1C302000A600A330A70011
:100458002E30A800A130A9003F30AA00A130AB007F
:100468008D30AC00A030AD009331BB238031482AD9
:1004780003302100D4000830D3007730890B422A9A
:10048800D30B422AD40B422A01309E31ED2680310B
:1004980006302100D4001330D300AD30890B522A26
:1004A800D30B522AD40B522A003200309E31ED264B
:1004B80080310B302100D4002630D3005D30890B09
:1004C800632AD30B632AD40B632A00320C30903191
:1004D8000B20803174082100E3007308E200CD305E
:1004E800A300A330A4006308A6006208A500DB30BF
:1004F8009231F422803121002408DA002308D9003F
:100508006308803AD30082305302031D8D2ABC3021
:1005180062020318902A912A9A2A0D302000EE00D0
:10052800A230EF009F318E278031E42A1C30210051
:10053800A500A330A600E830D3005308A700E73091
:10054800D4005408A80088311D2080312100650896
:100558000319AF2AB02AC52A1C302000A600A330F0
:10056800A7002E30A800A130A900DB30AA00003077
:10057800AB008D30AC00A030AD009331BB2380318F
:10058800D12A03302100D4000830D3007730890BFA
:10059800CB2AD30BCB2AD40BCB2A22008C17E830DA
:1005A8002100D3005308AD00E730D4005408AE0052
:1005B800E430D5005508AF00E63094315D24803131
:1005C80029302100D4009630D3007F30890BEA2AE5
:1005D800D30BEA2AD40BEA2A210068080319F52A62
:1005E800F62AD12B65080319FA2AFB2A102B253085
:1005F8002000A600A330A700EE30A800A230A90072
:100608008D30AA00A030AB008D30AC00A030AD001A
:100618009331BB2380311C2B03302100D4000830D8
:10062800D3007730890B162BD30B162BD40B162B34
:100638000B302100D4002630D3005D30890B222BEB
:10064800D30B222BD40B222B003201309E31ED2606
:10065800803106302100D4001330D300AD30890B2F
:10066800332BD30B332BD40B332B003200309E317A
:10067800ED2680313D302100D400E130D3003F30F9
:10068800890B442BD30B442BD40B442B0032013061
:100698009E31ED26803106302100D4001330D3007E
:1006A800AD30890B552BD30B552BD40B552B003262
:1006B80000309E31ED26803110302100D4003930D1
:1006C800D3000D30890B662BD30B662BD40B662B0E
:1006D800003201309031FB208031003A0319752B2C
:1006E800762B912B013091311F218031003A03196B
:1006F8007E2B7F2B912B0030913143218031003AA2
:100708000319872B882B912B1A302000EE00A2307A
:10071800EF009F318E278031BC2B2100E80100308B
:100728009E31ED26803100309E31F926803125300A
:100738002100A500A330A600E830D3005308A70085
:10074800E730D4005408A80088311D208031E830F3
:100758002100D3005308AD00E730D4005408AE00A0
:10076800E430D5005508AF00E63094315D2480317F
:1007780015302100D4004B30D300BE30890BC22B7A
:10078800D30BC22BD40BC22B000000309E31ED26B8
:10079800803100309E31F926803121006808031924
:1007A800D62BD72B522C65080319DB2BDC2BF12B0E
:1007B80037302000A600A330A7004F30A800A13092
:1007C800A900F230AA00A130AB000C30AC00A13077
:1007D800AD009331BB238031FD2B03302100D400C1
:1007E8000830D3007730890BF72BD30BF72BD40BBA
:1007F800F72B01309E31ED26803106302100D400E0
:100808001330D300AD30890B072CD30B072CD40B36
:10081800072C003200309E31ED26803163302000F5
:10082800EE009830EF009F318E2780312100660856
:1008380092315B2280312100D3005308E70067081A
:10084800031D272C282C4A2CE8013730A500A3309B
:10085800A600E830D3005308A700E730D4005408B6
:10086800A80088311D208031E8302100D3005308CA
:10087800AD00E730D4005408AE00E430D500550888
:10088800AF00E63094315D248031522C27302000AF
:10089800EE00A230EF009F318E27803121006808DA
:1008A8000319572C582CE62C650803195C2C5D2C71
:1008B800722C40302000A600A330A7002E30A800DC
:1008C800A330A9008D30AA00A030AB008D30AC0059
:1008D800A030AD009331BB2380317E2C0330210042
:1008E800D4000830D3007730890B782CD30B782CC0
:1008F800D40B782C01309E31F92680310630210046
:10090800D4001330D300AD30890B882CD30B882C3E
:10091800D40B882C003200309E31F92680310B3000
:100928002100D4002630D3005D30890B992CD30BDD
:10093800992CD40B992C003201309031FB20803156
:10094800003A0319A82CA92CC42C013091311F217D
:100958008031003A0319B12CB22CC42C01309131EA
:1009680043218031003A0319BA2CBB2CC42C3430F3
:100978002000EE00A230EF009F318E278031E62C58
:100988002100E8014030A500A330A600E830D300DC
:100998005308A700E730D4005408A80088311D2068
:1009A8008031E8302100D3005308AD00E730D4008F
:1009B8005408AE00E430D5005508AF00E630943155
:1009C8005D248031210068080319EB2CEC2C7A2D6A
:1009D80065080319F02CF12C062D49302000A600DB
:1009E800A330A7007530A800A230A9008D30AA0056
:1009F800A030AB008D30AC00A030AD009331BB23EC
:100A08008031122D03302100D4000830D300773014
:100A1800890B0C2DD30B0C2DD40B0C2D01309F31D1
:100A28001D27803106302100D4001330D300AD30AB
:100A3800890B1C2DD30B1C2DD40B1C2D0032003020
:100A48009F311D2780310B302100D4002630D30080
:100A58005D30890B2D2DD30B2D2DD40B2D2D003270
:100A680000309031FB208031003A03193C2D3D2D98
:100A7800582D003091311F218031003A0319452D3E
:100A8800462D582D0030913143218031003A031909
:100A98004E2D4F2D582D41302000EE00A230EF0092
:100AA8009F318E2780317A2D2100E8014930A50039
:100AB800A330A600E830D3005308A700E730D400DD
:100AC8005408A80088311D208031E8302100D30067
:100AD8005308AD00E730D4005408AE00E430D50028
:100AE8005508AF00E63094315D2480312100680854
:100AF80003197F2D802D042E65080319842D852D5B
:100B08009A2D52302000A600A330A7007D30A800FF
:100B1800A330A9008D30AA00A030AB008D30AC0006
:100B2800A030AD009331BB238031A62D03302100C6
:100B3800D4000830D3007730890BA02DD30BA02D1B
:100B4800D40BA02D01309F310527803119302100A9
:100B5800D4005A30D300B130890BB02DD30BB02D4F
:100B6800D40BB02D003200309F31052780310B3077
:100B78002100D4002630D3005D30890BC12DD30B62
:100B8800C12DD40BC12D003201309031FB208031B2
:100B9800003A0319D02DD12DEC2D013091311F21B0
:100BA8008031003A0319D92DDA2DEC2D013091311D
:100BB80043218031003A0319E22DE32DEC2D4E300C
:100BC8002000EE00A230EF009F318E278031042EE6
:100BD80052302100CA00A330CB00E830D3005308BC
:100BE800CC00E730D4005408CD00E630D5005508D5
:100BF800CE00E430D6005608CF008831A1208031DD
:100C0800210068080319092E0A2E982E6508031971
:100C18000E2E0F2E242E5B302000A600A330A70036
:100C28008D30A800A330A9008D30AA00A030AB00F9
:100C38008D30AC00A030AD009331BB238031302E15
:100C480003302100D4000830D3007730890B2A2ED6
:100C5800D30B2A2ED40B2A2E01309F311127803135
:100C680019302100D4005A30D300B130890B3A2E04
:100C7800D30B3A2ED40B3A2E003200309F31112775
:100C880080310B302100D4002630D3005D30890B31
:100C98004B2ED30B4B2ED40B4B2E00320030903101
:100CA800FB208031003A03195A2E5B2E762E003035
:100CB80091311F218031003A0319632E642E762E5C
:100CC8000030913143218031003A03196C2E6D2E8A
:100CD800762E5B302000EE00A230EF009F318E2789
:100CE8008031982E2100E8015B30A500A330A600D2
:100CF800E830D3005308A700E730D4005408A80010
:100D080088311D208031E8302100D3005308AD0020
:100D1800E730D4005408AE00E430D5005508AF00E1
:100D2800E63094315D2480312100680803199D2E36
:100D38009E2E0B2F65080319A22EA32EB82E643001
:100D48002000A600A330A700AA30A800A130A9005F
:100D58000630AA00A330AB000C30AC00A130AD00C7
:100D68009331BB238031C42E03302100D4000830D6
:100D7800D3007730890BBE2ED30BBE2ED40BBE2EDC
:100D88009031262080312100660892315B22803123
:100D98002100D3005308E7006708031DD42ED52E81
:100DA800032FE8016430A500A330A600E830D30083
:100DB8005308A700E730D4005408A80088311D2044
:100DC8008031E8302100D3005308AD00E730D4006B
:100DD8005408AE00E430D5005508AF00E630943131
:100DE8005D24803129302100D4009630D3007F3033
:100DF800890BFC2ED30BFC2ED40BFC2E0B2F68304A
:100E08002000EE00A230EF009F318E2780312100B4
:100E180068080319102F122F8B31A92B65080319A5
:100E2800162F172F2C2FFA302000A600A230A7006B
:100E3800CE30A800A030A900E430AA00A130AB0051
:100E48002A30AC00A030AD009331BB238031382F5D
:100E580003302100D4000830D3007730890B322FBB
:100E6800D30B322FD40B322F01309E31C92680315B
:100E780000309E31BD2680319031B7208031E63078
:100E88002100A5000030A600E830A7000030A80027
:100E98009031D8208031E8302100A5000030A6002C
:100EA800E730A7000030A800E630A9000030AA000B
:100EB800E430AB000030AC0093317023803129302E
:100EC8002100D4009630D3007F30890B692FD30BD3
:100ED800692FD40B692F102F803188282000A30098
:100EE8002308A10021082100ED0000309F3153277D
:100EF80087319C302000A100D730890B812FA10BAE
:100F0800812F03309F31A32787311A302000A10099
:100F1800F830890B8D2FA10B8D2F000003309F31E6
:100F2800A32787311A302000A100F830890B9A2FA7
:100F3800A10B9A2F000003309F31A32787311A3065
:100F48002000A100F830890BA72FA10BA72F0000C4
:100F580002309F31A32787311A302000A100F830D2
:100F6800890BB42FA10BB42F000028309F31A32781
:100F7800873102302000A2000430A100BA30890B6A
:100F8800C32FA10BC32FA20BC32F00000C309F311E
:100F9800A327873102302000A2000430A100BA3014
:100FA800890BD42FA10BD42FA20BD42F0000013012
:100FB8009F31A327873102302000A2000430A1000E
:100FC800BA30890BE52FA10BE52FA20BE52F000006
:100FD80006309F31A327873102302000A200043059
:100FE800A100BA30890BF62FA10BF62FA20BF62F12
:080FF8000000080008340800A5
:10100200F400F30174080319072808280F282000A8
:101012000F190C280D280F28F301F30A7408031D79
:10102200132814281B2820000F1D182819281B28F4
:10103200F301F30A730808002030860001308700AC
:10104200B43084000030850014302100A90016005D
:101052001A00A90B28283E30860001308700AA30EA
:101062008400003085000A30A90016001A00A90B7E
:10107200362801309E31D526883101309E31E12655
:10108200883100309E31C926883100309E31BD261C
:101092008831210026082000A70021002508200011
:1010A200A600C530A800A030A9002A30AA00A030AE
:1010B200AB008D30AC00A030AD009331BB23883142
:1010C200B4302000AC000030AD0021002608200022
:1010D200AF00210025082000AE009F31D0278831C3
:1010E20020002D082100C90020002C082100C80082
:1010F20049082000AD00210048082000AC00AA30B9
:10110200AE000030AF009F31D027883120002D087B
:10111200EF002C08EE009F318E27883193312B236C
:10112200883120000F1D9628972892282100270831
:101132008600870181012808860087018101080055
:10114200C0308600013087005230840001308500B3
:1011520014302100D00016001A00D00BAC28343015
:1011620086000130870048308400013085000A3053
:10117200D00016001A00D00BBA2801309E31D526B5
:10118200883101309E31E126883100309E31C926F6
:10119200883121004B082000A70021004A082000C6
:1011A200A600C530A800A030A900A130AA00A03036
:1011B200AB001530AC00A030AD009331BB238831B9
:1011C20052302000AC000130AD0021004B0820005D
:1011D200AF0021004A082000AE009F31D02788319D
:1011E20020002D082200E70020002C082200E60043
:1011F20067082000AD00220066082000AC004830DD
:10120200AE000130AF009F31D027883120002D0879
:10121200EF002C08EE009F318E27883193312B236B
:10122200883121004E0886008701010892315B2235
:1012320088312100D00050082200E8000B30210044
:10124200D1002630D0005D30890B2529D00B25290D
:10125200D10B2529003222006808031931293229CD
:10126200612921004C088600870181014D08860012
:101272008701810152302000A600A330A700CA30A6
:10128200A800A030A900B330AA00A030AB002A30D9
:10129200AC00A030AD009331BB238831CC302100AB
:1012A200D0005008AD00CD30D1005108AE00CF3093
:1012B200D2005208AF00CE3094315D248831F82933
:1012C20052302000A600A330A7007D30A800A33032
:1012D200A9008D30AA00A030AB008D30AC00A03048
:1012E200AD009331BB23883100309E31D526883141
:1012F20001309E31E126883100309E31C926883185
:1013020001309F310527883119302100D1005A3030
:10131200D000B130890B8B29D00B8B29D10B8B29B3
:10132200003200309F310527883115302100D1006D
:101332004B30D000BE30890B9C29D00B9C29D10B9D
:101342009C29000001309031FB208831003A0319BA
:10135200AB29AC29D329013091311F218831003AC0
:101362000319B429B529D329013091314321883198
:10137200003A0319BD29BE29D32952302000A60004
:10138200A330A7007D30A800A330A9005F30AA00D7
:10139200A130AB006D30AC00A330AD009331BB2364
:1013A2008831F82921004C088600870181015230DA
:1013B200A500A330A600CC30D0005008A700CD3045
:1013C200D1005108A80088311D208831CC3021007D
:1013D200D0005008AD00CD30D1005108AE00CF3062
:1013E200D2005208AF00CE3094315D24883108001B
:1013F2002000C5003A08CE003B08CF003C08D000D0
:101402003D08D1003E08D2003F08D3004008D40076
:101412004108D5004E30860000308700473FC200A9
:10142200C21B142A162A0130172A00302000C300DA
:10143200C4014308CC004408CD004C084D040319F4
:10144200232A242A422ACE09CF09D009D109D20956
:10145200D309D409D509CE0A031D422ACF0A031D96
:10146200422AD00A031D422AD10A031D422AD20A65
:10147200031D422AD30A031D422AD40A031D422A0B
:10148200D50A2100EC1B462A472A4B2AFD30F805D3
:10149200FF30F9056C08803A2000C2008030420219
:1014A200031D562A013021006B020318592A5A2AB9
:1014B200602A01302000C8000030C900682A2100DB
:1014C2006C082000C90021006B082000C80022001F
:1014D2006A082000CB00220069082000CA004C08DC
:1014E2004D04031D752A762A7A2A781D792A7A2ACA
:1014F2007E2AFF30CA07FF30CB3D1F30D6000030B6
:10150200D7002300BF01EE2AFF302000D607FF30AC
:10151200D73D0A30A000A101A201A301A401A501A7
:10152200A601A7014E08A8004F08A9005008AA006A
:101532005108AB005208AC005308AD005408AE008D
:101542005508AF0095310825893120002108F700A0
:101552002008F6009031412089317608303E200083
:10156200C2005608A03E8600013087004208810072
:10157200FF30C807FF30C93DFF30CA07FF30CB3DFF
:101582000A30A000A101A201A301A401A501A601A4
:10159200A7014E08A8004F08A9005008AA00510848
:1015A200AB005208AC005308AD005408AE00550819
:1015B200AF009531F225893120002008CE002108A4
:1015C200CF002208D0002308D1002408D200250829
:1015D200D3002608D4002708D50020005708803AF7
:1015E200C20080304202031DF82A01305602031C59
:1015F200FB2AFC2A282B20004E084F0450045104D9
:101602005204530454045504031D082B092B852A44
:101612004908803AC20080304202031D122B013079
:1016220048020318152B162B852A20004B08803AF6
:10163200C20080304202031D202B01304A02031CEB
:10164200232B242B282BF818272B282B852A200024
:101652004C084D04031D2E2B2F2B332B781D322BC0
:10166200332B4F2BFF30D607FF30D73D4C084D04AC
:10167200031D3C2B3D2B422B2B30C6000030C700F4
:10168200462B2D30C6000030C7004608C20056085F
:10169200A03E860001308700420881005608A03E25
:1016A200C2004208AD004B08AF004A08AE00450830
:1016B2009431AF24893120002E08BB002D08BA00D6
:1016C20008009F3129278B312100E801E701E6015B
:1016D200E001E401E40AE501E50A20008E1A722B1A
:1016E200732B792B2100E5019F3144278B317C2B11
:1016F200903100208B3120000E1C802B812B852BFA
:101702002100E101E10A872B2100E10120008E186E
:101712008B2B8C2B902B2100E001E00A922B2100D5
:10172200E00165080319962B972B9A2B22008C1344
:101732009C2B22008C1715302100D4004B30D30093
:10174200BE30890BA22BD30BA22BD40BA22B0000F1
:10175200210065080319AE2BAF2B082C4E308731C0
:1017620072278B318E302000A600A030A700D63021
:10177200A800A130A900D730AA00A030AB00B93030
:10178200AC00A130AD009331BB238B31033021007B
:10179200D4000830D3007730890BCD2BD30BCD2B5F
:1017A200D40BCD2B4630873172278B318E302000FF
:1017B200A600A030A7009B30A800A130A900D73016
:1017C200AA00A030AB00B930AC00A130AD0093311B
:1017D200BB238B3103302100D4000830D300773093
:1017E200890BF12BD30BF12BD40BF12B082CE83006
:1017F200D3005308F300E430D4005408F400EE3070
:10180200D5005508F500E6309231BE228B31210019
:10181200680803190D2C0E2CF82BE4019131672175
:101822008B312100E801E80A00309E31C9268B3154
:1018320000309E31D5268B3101309E31E1268B312D
:1018420003302100D4000830D3007730890B272CD5
:10185200D30B272CD40B272C210065080319322C1B
:10186200332C482C75302000A600A330A7001D3071
:10187200A800A130A9008D30AA00A030AB008D30A5
:10188200AC00A030AD009331BB238B31542C03301C
:101892002100D4000830D3007730890B4E2CD30BB3
:1018A2004E2CD40B4E2C01309E31ED268B31013063
:1018B2009E31F9268B3115302100D4004B30D300F4
:1018C200BE30890B622CD30B622CD40B622C00002D
:1018D20001309E31BD268B3129302100D400963053
:1018E200D3007F30890B732CD30B732CD40B732C46
:1018F20001309031FB208B31003A0319812C822C6C
:101902009D2C013091311F218B31003A03198A2C11
:101912008B2C9D2C0130913143218B31003A0319DC
:10192200932C942C9D2C82302000EE00A230EF00EC
:101932009F318E278B31C82C2100E80100309E3167
:10194200ED268B3100309E31F9268B317530210026
:10195200A500A330A600E830D3005308A700E73063
:10196200D4005408A80088311D208B31E8302100B2
:10197200D3005308AD00E730D4005408AE00E43081
:10198200D5005508AF00E63094315D248B31153017
:101992002100D4004B30D300BE30890BCE2CD30BA8
:1019A200CE2CD40BCE2C000000309E31ED268B3194
:1019B20000309E31F9268B31210068080319E32C8F
:1019C2008E31722E8E31F32E65080319E92CEA2C22
:1019D200FF2CA5302000A600A330A7007D30A80070
:1019E200A130A9008D30AA00A030AB008D30AC0030
:1019F200A030AD009331BB238C310B2D033021007D
:101A0200D4000830D3007730890B052DD30B052D78
:101A1200D40B052D01309E31ED268C31063021008C
:101A2200D4001330D300AD30890B152DD30B152DF7
:101A3200D40B152D003200309E31ED268C31210061
:101A420061080319252D262D5D2D660892315B2232
:101A52008C312100D3005308E7006708031D322DA3
:101A6200332D552DE801A530A500A330A600E8309E
:101A7200D3005308A700E730D4005408A8008831E7
:101A82001D208C31E8302100D3005308AD00E7302F
:101A9200D4005408AE00E430D5005508AF00E6305B
:101AA20094315D248C315D2DB2302000EE00A230E5
:101AB200EF009F318E278C31210068080319622DB7
:101AC200632DDF2D65080319672D682D7D2DAD303F
:101AD2002000A600A330A7001130A800A330A9005F
:101AE2008D30AA00A030AB008D30AC00A030AD002C
:101AF2009331BB238C31892D03302100D40008306F
:101B0200D3007730890B832DD30B832DD40B832DF8
:101B120001309E31ED268C3115302100D4004B303E
:101B2200D300BE30890B932DD30B932DD40B932D61
:101B3200000000309E31ED268C3115302100D4009A
:101B42004B30D300BE30890BA42DD30BA42DD40B64
:101B5200A42D000001309031FB208C31003A031992
:101B6200B32DB42DBD2DBE302000EE00A230EF000B
:101B72009F318E278C31DF2D2100E801AD30A50089
:101B8200A330A600E830D3005308A700E730D40002
:101B92005408A80088311D208C31E8302100D30080
:101BA2005308AD00E730D4005408AE00E430D5004D
:101BB2005508AF00E63094315D248C31210068086D
:101BC2000319E42DE52D6A2E65080319E92DEA2D86
:101BD200FF2DB5302000A600A330A7005330A80087
:101BE200A030A9008D30AA00A030AB008D30AC002F
:101BF200A030AD009331BB238C310B2E033021007A
:101C0200D4000830D3007730890B052ED30B052E74
:101C1200D40B052E01309E31ED268C31153021007A
:101C2200D4004B30D300BE30890B152ED30B152EAA
:101C3200D40B152E000000309E31ED268C3115306C
:101C42002100D4004B30D300BE30890B262ED30B9B
:101C5200262ED40B262E000000309031FB208C3132
:101C6200003A0319352E362E482E013091311F21AC
:101C72008C31003A03193E2E3F2E482ECA302000E6
:101C8200EE00A230EF009F318E278C316A2E2100A8
:101C9200E801B530A500A330A600E830D300530810
:101CA200A700E730D4005408A80088311D208C31E9
:101CB200E8302100D3005308AD00E730D4005408C7
:101CC200AE00E430D5005508AF00E63094315D2413
:101CD2008C31210068080319702E8031C3288131AC
:101CE200482965080319762E772E8C2E8530200020
:101CF200A600A330A700E930A800A030A9008D30CB
:101D0200AA00A030AB008D30AC00A030AD00933102
:101D1200BB238E31982E03302100D4000830D3002B
:101D22007730890B922ED30B922ED40B922E003049
:101D32009E31ED268E3100309E31F9268E310B30E8
:101D42002100D4002630D3005D30890BA62ED30BA0
:101D5200A62ED40BA62E003201309031FB208E31FC
:101D6200003A031DB52EB62ED12E013091311F211E
:101D72008E31003A031DBE2EBF2ED12E013091317D
:101D820043218E31003A031DC72EC82ED12E8E302C
:101D92002000EE00A230EF009F318E278E31F32E0D
:101DA2002100E8018530A500A330A600E830D30069
:101DB2005308A700E730D4005408A80088311D203A
:101DC2008E31E8302100D3005308AD00E730D40053
:101DD2005408AE00E430D5005508AF00E630943127
:101DE2005D248E31210068080319F82EF92E7A2F0E
:101DF20065080319FD2EFE2E132F95302000A60034
:101E0200A330A7006E30A800A130A9008D30AA002F
:101E1200A030AB008D30AC00A030AD009331BB23BD
:101E22008E311F2F03302100D4000830D3007730C9
:101E3200890B192FD30B192FD40B192F01309E3177
:101E4200ED268E3106302100D4001330D300AD30A0
:101E5200890B292FD30B292FD40B292F00320030C5
:101E62009E31ED268E31210061080319392F3A2F58
:101E72007A2F2A302000EE009830EF009F318E2713
:101E82008E312100660892315B228E312100D3000F
:101E92005308E7006708031D4F2F502F722FE801E8
:101EA2009530A500A330A600E830D3005308A70060
:101EB200E730D4005408A80088311D208E31E83064
:101EC2002100D3005308AD00E730D4005408AE001F
:101ED200E430D5005508AF00E63094315D248E31F0
:101EE2007A2F9A302000EE00A230EF009F318E2729
:101EF2008E312100680803197F2F802FF82F650883
:101F02000319842F852F9A2F9D302000A600A3301D
:101F1200A7008C30A800A130A9008D30AA00A03003
:101F2200AB008D30AC00A030AD009331BB238E31BD
:101F3200A62F03302100D4000830D3007730890B5C
:101F4200A02FD30BA02FD40BA02F01309E31ED2652
:101F52008E3106302100D4001330D300AD30890B0E
:101F6200B02FD30BB02FD40BB02F003200309E31E4
:101F7200ED268E31210061080319C02FC12FF82FE1
:101F8200660892315B228E312100D3005308E700AC
:101F92006708031DCD2FCE2FF02FE8019D30A5003D
:101FA200A330A600E830D3005308A700E730D400DE
:101FB2005408A80088311D208E31E8302100D3005A
:101FC2005308AD00E730D4005408AE00E430D50029
:101FD2005508AF00E63094315D248E31F82FA630DB
:101FE2002000EE00A230EF009F318E278E312100BB
:101FF20068080319FE2F8C31E52C8D315D2D2830B8
:1020020024009500960194012730920021008E153C
:102012000E160800F6007608F500F50DF50D210004
:102022001D087506833975069D001D140D30890B38
:102032001828000021009D149D18202821281D2801
:102042001C08F4001B08F300080022000C170630DD
:10205200F4001330F300AE30890B2D28F30B2D283A
:10206200F40B2D2822000C130630F4001330F30079
:10207200AE30890B3A28F30B3A28F40B3A280800C1
:102082007708803A2000B00080303002031D4B28D0
:102092000130760203184E284F285C28760920006A
:1020A200B0007709B100B00A0319B10A3008F6008E
:1020B2003108F7005C280800F400F30174080319E2
:1020C200632864286B2820008F1B682869286B28E6
:1020D200F301F30A7408031D6F2870287728200083
:1020E2008F1F742875287728F301F30A73080800F4
:1020F200220090018F018C018D018E010830210098
:1021020090008C01CF308D00FF308E00FF308F00A9
:1021120023008F013F308D0090013C308C00240061
:1021220090018D012100951722009D0108002000D9
:10213200A401A501AB282108240784002208253D1B
:10214200850000089F31B927903101302000A40793
:102152000030A53D2108240784002208253D850082
:102162001200031DB528B6289C2808000030200064
:10217200EE009830EF009F318E2790312100A601AA
:10218200A70191316721903101302100A60700306B
:10219200A73D2708803AA50080302502031DD328D9
:1021A20002302602031CD628D728C22808002100A4
:1021B200A901F42820000F19DF28E028F4280030B4
:1021C200EE00A030EF009F318E2790312100A9014F
:1021D200A90A2508860026088700810127088600AB
:1021E200280887008101210029080319F928FA2803
:1021F200DB280800F400F3017408031901290229FD
:102202000D2920000F1C062907290D298F180A29DC
:102212000B290D29F301F30A7408031D1129122950
:102222001D2920000F18162917291D298F1C1A296C
:102232001B291D29F301F30A73080800F400F301B6
:102242007408031925292629312920008F1D2A29DE
:102252002B2931290F1A2E292F293129F301F30AAB
:102262007408031D35293629412920008F193A297E
:102272003B2941290F1E3E293F294129F301F30A37
:1022820073080800F400F3017408031949294A2964
:10229200552920008F1E4E294F2955290F1B5229DF
:1022A20053295529F301F30A7408031D59295A29A0
:1022B200652920008F1A5E295F2965290F1F62296F
:1022C20063296529F301F30A730808002000A001BD
:1022D200A1019131B32191310230F700A030F60013
:1022E2009230890B7229F60B7229F70B7229003290
:1022F20001302000A0070030A13D2108803AF600FD
:1023020080307602031D872902302002031C8A29AD
:102312008B296A29080020002308A9002208A800A6
:102322002108AB002008AA002B08A5002A08A40057
:10233200AA0A0319AB0A240886002508870029087F
:10234200A7002808A600A80A0319A90A26088400DB
:10235200270885000008C03F8908031DB129B2295A
:1023620095290800F401F50122000D160630F3004C
:102372003030890BBA29F30BBA29003222000D1230
:102382000630F3003030890BC429F30BC429003224
:102392000130F4070030F53D7508803AF3008030D3
:1023A2007302031DD62932307402031CD929DA299B
:1023B200B52908002D343E34203445345234523489
:1023C2004534553452343A34203400340034003425
:1023D2000034003400340034003400340D340A3444
:1023E200003400340034003400340034003400344B
:1023F2000D340A3400340034003400340034003424
:10240200003400342000AC00AA01AB011B2A2908C9
:10241200A600A7012608F3002708F4002508A80053
:102422002808F50094310C24923101302000AA07CB
:102432000030AB3D2A082C07A60026088600013092
:1024420087000108A7002708A9002908031D2A2AD6
:102452002B2A082A08002000A400472A2108BF3E90
:102462009F31A32792315A2A2108933E9F31A327F5
:1024720092315A2A2108D33E9F31A32792315A2AF8
:1024820021087F3E9F31A32792315A2A2408A200B5
:10249200A3012308003A03194F2A412A2208023ACB
:1024A20003192F2A013A0319352A073A03193B2A3D
:1024B200412A0800F500F601F70175080319622A9E
:1024C200632A642A632A7508031D682A692A882AEE
:1024D200832A013090315D209231003A0319722A29
:1024E200732A762AF601F701F70A013088310120B2
:1024F2009231003A03197E2A7F2A832AF601F60ACC
:10250200F701F70A77080319872A882A6A2A7608C0
:1025120008002100A00020006A082100A20020007B
:1025220069082100A100E901EA01AD2AA1302000D9
:10253200EC006C08D8006B08ED006D08D900210092
:1025420020089631F6269231200058082100E9072A
:10255200200059082100EA3D210884002208850054
:102562001200031DB52AB62A972A6A082000EA003B
:10257200210069082000E9000800F700F601EE2AB0
:1025820020000F19C52AC62AD52AF601F60A7708AD
:102592008600870181017408860087018101730822
:1025A200860087018101810A7508860087016130F2
:1025B2000106031DDD2ADE2AEE2AF601F60A770855
:1025C200860087018101810A7408860087018101E2
:1025D2007308860087018101810A76080319F22AAD
:1025E200F32AC12A08002100AA00A5302000EE002B
:1025F2006E082100A9002A082000EE006E082100C2
:10260200AB00AC01AD01AE01AF0124082000EA002D
:10261200210023082000E900A930EE006E08EB003B
:10262200AB3092318A22923120006A082100A80040
:10263200200069082100A7002C082A072000EE00CC
:102642006E0886008701810121002808A40027085E
:10265200A30008002000A001A1012000A201A30103
:102662009131B32193311530F7004B30F600BE3073
:10267200890B392BF60B392BF70B392B0032013032
:102682002000A2070030A33D2308803AF6008030E4
:102692007602031D4E2B04302202031C512B522BB7
:1026A200312B0B30F7002630F6005E30890B572BAA
:1026B200F60B572BF70B572B01302000A0070030E9
:1026C200A13D2108803AF60080307602031D6B2B73
:1026D20004302002031C6E2B6F2B2E2B08002100CE
:1026E200290886002A0887000108031D792B7A2B06
:1026F200822B00302000EE00A030EF009F318E27A9
:1027020093312100250886002608870081012708C9
:102712008600280887008101290886002A08870088
:1027220081012B0886002C088700013081000030CF
:102732009E31C926933100309E31D5269331003027
:102742009E31E126933100309E31BD269331003017
:102752009E31ED26933100309E31F92693310030BF
:102762009F310527933100309F3111279331220089
:102772008C1308009E319C26933106309F31A3278B
:10278200933102302000AF000430AE00BA30890B22
:10279200C82BAE0BC82BAF0BC82B00002000A10129
:1027A200A10A013092312C22933120002708A20085
:1027B2002608A1009031982093312000A101A10A9E
:1027C200023092312C22933120002908A2002808DD
:1027D200A1009031982093312000A101A10A033079
:1027E20092312C22933120002B08A2002A08A1004A
:1027F2009031982093312000A101A10A0430923136
:102802002C22933120002D08A2002C08A100903127
:1028120098209331080075080319102C112C162CDE
:102822007508031D152C162C1B2C73088731FF27E6
:1028320094315C2C7508033E860087011600010462
:102842000319242C252C432C7508033E860087018E
:10285200403F2000A000413FA100750A8600870189
:10286200403FA200413FA3002308803AA400210870
:10287200803A2402031D3F2C200822020318422C16
:10288200432C5C2C73082000A00075088600870189
:10289200750A8400850100080107A100210886004D
:1028A200870120088100750A8600870101308107AF
:1028B20041310318810A08002100B8003808860057
:1028C20087010108B000B1013008A5003108A60057
:1028D2002D08860087010108B200B3013208A70063
:1028E2003308A8009031D820943121002D088600A9
:1028F20087010108B000B1013008A5003108A60027
:102902002E08860087010108B200B3013208A70031
:102912003308A8003808860087010108B400B50111
:102922003408A9003508AA002F088600870101088B
:10293200B600B7013608AB003708AC0093317023FC
:10294200943129302100B1009630B0007F30890BDC
:10295200A82CB00BA82CB10BA82C08002000B400A6
:10296200781CB42CB52CBD2C3408F7007708A500D0
:102972002D089231032294312000AF1BC12CC22CAE
:10298200C72C2F08B3002E08B200C92CB201B30124
:10299200B001B101DD2C2030F3000030F400200042
:1029A2003408F7007708F50094310C249431013093
:1029B2002000B0070030B13D3108803AF7003308FB
:1029C200803A7702031DE72C32083002031CEA2CFE
:1029D200EB2CCC2C7818EE2CEF2CF82C20003408A1
:1029E200F7007708A5002D089231032294312000C8
:1029F2002D08F3000130F4009F31E72794312000C5
:102A020032087307AD003308743DAE000800F501CB
:102A12002830860000308700473FF300F31F122D55
:102A2200132D342D2000A809A909AA09AB09AC0964
:102A3200AD09AE09AF09A80A031D322DA90A031D6B
:102A4200322DAA0A031D322DAB0A031D322DAC0A08
:102A5200031D322DAD0A031D322DAE0A031D322D88
:102A6200AF0AF501F50A2030860000308700473FA3
:102A7200F300F31F3D2D3E2D5D2D2000A009A1097D
:102A8200A209A309A409A509A609A709A00A031D69
:102A92005D2DA10A031D5D2DA20A031D5D2DA30A52
:102AA200031D5D2DA40A031D5D2DA50A031D5D2DC9
:102AB200A60A031D5D2DA70A200020082104220476
:102AC200230424042504260427040319692D6A2DEE
:102AD200BD2DF401F40A792DA035A10DA20DA30D8F
:102AE200A40DA50DA60DA70D0130F3007308F40780
:102AF200A71F7C2D7D2D6D2D27082F02031D9B2DD9
:102B020026082E02031D9B2D25082D02031D9B2D39
:102B120024082C02031D9B2D23082B02031D9B2D31
:102B220022082A02031D9B2D21082902031D9B2D29
:102B320020082802031C9E2D9F2DAF2D2008A802DD
:102B42002108A93B2208AA3B2308AB3B2408AC3B43
:102B52002508AD3B2608AE3B2708AF3BA736A60C9F
:102B6200A50CA40CA30CA20CA10CA00C0130F40225
:102B7200031DBC2DBD2D7D2D75080319C12DC22D40
:102B8200E02DA809A909AA09AB09AC09AD09AE094A
:102B9200AF09A80A031DE02DA90A031DE02DAA0A08
:102BA200031DE02DAB0A031DE02DAC0A031DE02D31
:102BB200AD0A031DE02DAE0A031DE02DAF0A200071
:102BC2002808A0002908A1002A08A2002B08A300B7
:102BD2002C08A4002D08A5002E08A6002F08A70087
:102BE20008002000B1012030860000308700473FF6
:102BF200F300F31FFD2DFE2D202E2000A009A109B8
:102C0200A209A309A409A509A609A709A00A031DE7
:102C12001D2EA10A031D1D2EA20A031D1D2EA30A8D
:102C2200031D1D2EA40A031D1D2EA50A031D1D2E04
:102C3200A60A031D1D2EA70A2000B101B10A2830E1
:102C4200860000308700473FF300F31F292E2A2E0B
:102C52004E2E2000A809A909AA09AB09AC09AD09A1
:102C6200AE09AF09A80A031D492EA90A031D492E60
:102C7200AA0A031D492EAB0A031D492EAC0A031DE5
:102C8200492EAD0A031D492EAE0A031D492EAF0A75
:102C92000130F30073082000B106323086000030A4
:102CA20087000830F30000301E00F30B552E200081
:102CB20020082104220423042404250426042704D2
:102CC2000319642E652EC12EB001B00A742EA035F0
:102CD200A10DA20DA30DA40DA50DA60DA70D0130EA
:102CE200F3007308B007A71F772E782E682EB2352F
:102CF200B30DB40DB50DB60DB70DB80DB90D27084E
:102D02002F02031D9E2E26082E02031D9E2E25082D
:102D12002D02031D9E2E24082C02031D9E2E230825
:102D22002B02031D9E2E22082A02031D9E2E21081D
:102D32002902031D9E2E20082802031CA12EA22E6A
:102D4200B32E2008A8022108A93B2208AA3B230887
:102D5200AB3B2408AC3B2508AD3B2608AE3B27081D
:102D6200AF3B3214A736A60CA50CA40CA30CA20CE4
:102D7200A10CA00C0130B002031DC02EC12E782E72
:102D820031080319C52EC62EE42EB209B309B409BF
:102D9200B509B609B709B809B909B20A031DE42E83
:102DA200B30A031DE42EB40A031DE42EB50A031D63
:102DB200E42EB60A031DE42EB70A031DE42EB80A58
:102DC200031DE42EB90A20003208A0003308A10036
:102DD2003408A2003508A3003608A4003708A5006D
:102DE2003808A6003908A70008002000E8005808A3
:102DF20086008701403FDA00413FDB005A08840029
:102E02005B0885001200253A031D082F092FDC2FCD
:102E12005808860087010130810741310318810A71
:102E22002200E901EA01F801F901FF302100EB007B
:102E3200FF30EC002000580886008701403FDA008E
:102E4200413FDB005A0884005B0885001200643AA7
:102E520003192C2F2D2F3E2F580886008701403F43
:102E6200DA00413FDB005A0884005B08850012004B
:102E7200693A031D3D2F3E2F792F5808860087019E
:102E82000130810741310318810A59088600870100
:102E920001088400850102308107003FDA00013F0A
:102EA200DB005A08DF005B08E000890D893B8909D5
:102EB200E100E200E300E400E500E6005F08BA009A
:102EC2006008BB006108BC006208BD006308BE0068
:102ED2006408BF006508C0006608C100680889313F
:102EE200F921963120003B08D9003A08D800FF2F7B
:102EF200580886008701403FDA00413FDB005A084C
:102F020084005B08850012006E3A031D892F8A2F08
:102F1200A92F580886008701013081074131031823
:102F2200810A590886008701403F84008501810A91
:102F32000008DA005A08E7006708860087012100C6
:102F42006908C03F6A08C13F2000D801D901FF2F9C
:102F5200580886008701403FDA00413FDB005A08EB
:102F620084005B0885001200253A031DB92FBA2F91
:102F7200D32F580886008701013081074131031899
:102F8200810A2530F3000030F4006808DA005A089C
:102F9200F50094310C24963101302000D800003025
:102FA200D900FF2F5808860087010130810741317F
:102FB2000318810AA52F580886008701403FDA00CE
:102FC200413FDB005A0884005B0885000008DC00F2
:102FD200DD015C08F3005D08F4006808DE005E08AD
:102FE200F50094310C2496312000580886008701A0
:102FF2000130810741310318810ACD2F08002D3499
:103002003E3420345434453453345434203443341D
:103012004F344E3446344F3452344D3445342034D8
:103022002D34203441345434543445344E345434E1
:1030320045342034413443345134553449345434C2
:10304200543445344D3445344E3454340D340A34FA
:10305200003441347434743465346E3474346534F9
:103062002034763461346C346934643461347434B9
:1030720069346F346E3420346C34653464342034F3
:1030820072346F347534673465340D340A34003465
:103092002D343E34203454344534533454342034A3
:1030A2004D3441344E34553445344C342034453457
:1030B2004E34203443344F345534523453340D3467
:1030C2000A34003441345434543445344E34543484
:1030D20045342034563441344C3449344434413438
:1030E200543449344F344E3420344C34453444340F
:0830F20053340D340A3400349C
:103CF00016302100970008009E31A5269E31240031
:103D0000161408009E31A5269E31240016150800C1
:103D1000640080010131890B892E0034FE001200FD
:103D20001E00FE0B8F2E0034F03021009E009B0100
:103D30009C0101309D00080001309F31A3279E3176
:103D40003530890BA12E0000080024001419A92E7B
:103D5000AA2EA52E16081F39031DAF2EB02EA52E94
:103D6000080070302100990098012200960121007E
:103D70001A1FBB2EBC2EB72E0800F30073080319C0
:103D8000C22EC32EC62E22000C14C82E22000C10E8
:103D90000800F30073080319CE2ECF2ED22E220076
:103DA0001014D42E220010100800F3007308031919
:103DB000DA2EDB2EDE2E22009014E02E2200901050
:103DC0000800F30073080319E62EE72EEA2E2200FE
:103DD0001015EC2E220010110800F30073080319CF
:103DE000F22EF32EF62E22008C14F82E22008C10C8
:103DF0000800F30073080319FE2EFF2E022F220085
:103E00000C15042F22000C110800F300730803198D
:103E10000A2F0B2F0E2F22000C16102F22000C122F
:103E20000800F30073080319162F172F1A2F22000A
:103E30008C161C2F22008C120800F3007308031943
:103E4000222F232F262F22008C15282F22008C11A1
:103E50000800903179209F319E31B1269F319E31EB
:103E600078269F319E3194269F310800F3009E31C1
:103E7000A5269F317308240091002000911D412F39
:103E8000422F3D2F9111080032302400920036302D
:103E9000950096018030940021008E150E168B1728
:103EA0000B1791150800F4009E317C269F312100EC
:103EB0006D089F3136279F31740821006F049F31B0
:103EC00036279F319E3182269F310800F6007A08FE
:103ED000F5007508F604760804389F3153279F31A2
:103EE0007608FB399F3153279F314230890B762F5B
:103EF000003208002D343E342034453452345234DC
:103F00004534553452343A342034003400340034CB
:103F100000340034003400340034003470302100A8
:103F2000A3002308A40020006F08EA006E08E9003F
:103F3000A4302100A30023082000EB0000309231C0
:103F40008A229F3108002000A000FA012008F039E1
:103F50009F3166279F3120002008F7000330F73596
:103F6000FF3E031DAF2F7735F0399F3166279F3114
:103F700008002000A000FA01FA0A2008F0399F3159
:103F800066279F3120002008F7000330F735FF3EF9
:103F9000031DC62F7735F0399F3166279F31080002
:103FA00020002D08F4002C08F3009F31E7279F31F3
:103FB000730820002C07A00074082D3DA1002F08D5
:103FC000A3002E08A20091318C219F3108007408B3
:103FD000F6007308F500F02F0130F3070030F43DD0
:103FE00073088600740887000108031DF82FF92F55
:103FF000EC2F75087302F3007608743BF400080098
:104000002D343E342034463449344E342034543434
:1040100045345334543420344D3441344E345534C3
:1040200045344C340D340A34003450345234453461
:10403000533453344534523420344F344B342034C9
:104040004F34553420344534523452344534553489
:104050005234003441345434543445344E3454349E
:104060004534203441344334513455344934543484
:10407000543445344D3445344E34543400342D34A6
:104080003E342034413470347034753479346534BE
:104090007234203473347534723420344F344B34DA
:1040A0000D340A34003454344534533454342034F9
:1040B0005234313420344F344634463420342D3495
:1040C00020345234323420344F344E34003454349B
:1040D00045345334543420345234323420344F3441
:1040E0004634463420342D34203452343334203492
:1040F0004F344E3400342D343E342034543445345F
:1041000053345434203441344334513455344934D5
:104110005434543445340D340A3400345434453462
:1041200053345434203443344134523454344534B9
:10413000203444343934323435344534443434341E
:1041400000345634453452344934463449344534C5
:1041500052342034503431342034453454342034F3
:1041600050343234003452344534533455344C34A2
:10417000543441345434203443344F344E34463470
:10418000493452344D344534003454344534533476
:10419000543420344E344F344E34203443344F346E
:1041A0004E3446344F3452344D3445340034503458
:1041B0004F3453344934543449344F344E344E34EC
:1041C0004534523420344334413452345434453429
:1041D000003454344534533454342034333420348C
:1041E000523445344C3441344934533420344F3400
:1041F00046344634003443344C3441345634493424
:10420000453452342034453443344C3441344934F9
:10421000523445343F3400345034523445345334EE
:1042200053344534523420344F344B3420342F34FB
:1042300020344E344F344B340034543445345334EA
:104240005434203433342034523445344C344134E3
:104250004934533420344F344E34003454344534CC
:104260005334543420344C344534443420344334AF
:104270004C34413456344934453452340034433498
:104280004C34413456344934453452342034453466
:104290005434453449344E3454343F340034543467
:1042A00045345334543420344C344534443453343A
:1042B000203443344134523454344534003445348A
:1042C0005234523445345534523420345634413407
:1042D0004C34493444344534453400345434453442
:1042E0005334543420344C34453444342034523420
:1042F0004F34553447344534003454344534533402
:10430000543420344C344534443420345634453409
:1043100052345434453400345434453453345434D2
:1043200020344C3445344434203442344C34453405
:104330005534453400344D344F34443455344C34C2
:10434000453420344534533443344C3441345634AA
:1043500045340034543445345334543420344234D6
:104360004C345534453454344F344F345434483439
:104370000034413450345034553459344534523477
:10438000203453345534523420344F344B340034B9
:104390002D343E3420345434453453345434203492
:1043A0004F34463446340D340A3400344D344F34DF
:1043B000443455344C34453420344D34413449343C
:1043C000543452344534003452344534543449342E
:1043D000523445345234203443344134523454340A
:1043E000453400344C34453444345334203441345F
:1043F0004C344C3455344D34453445345334003406
:104400002D343E3420345434453453345434203421
:104410004F344E340D340A3400342D343E342034BD
:1044200054344534533454343A34313430343A34D7
:10443000313400342D343E34203454344534533434
:1044400054343A34313432343A34313400342D3443
:104450003E34203454344534533454343A343134B3
:1044600033343A34313400342D343E34203454342F
:104470004534533454343A34313434343A343134A6
:1044800000342D343E3420345434453453345434C1
:104490003A34313435343A34313400342D343E3406
:1044A000203454344534533454343A34313436346B
:1044B0003A34313400342D343E34203454344534CD
:1044C000533454343A34313437343A343134003498
:1044D0002D343E34203454344534533454343A3437
:1044E000313438343A34313400345434453453346C
:1044F0005434203448344F3452344C344F344734DD
:10450000453400342D343E3420345434453453344F
:1045100054343A3431343A34313400342D343E3466
:10452000203454344534533454343A3432343A34E5
:10453000313400342D343E34203454344534533433
:1045400054343A3433343A34313400342D343E3434
:10455000203454344534533454343A3434343A34B3
:10456000313400342D343E34203454344534533403
:1045700054343A3435343A34313400342D343E3402
:10458000203454344534533454343A3436343A3481
:10459000313400342D343E342034543445345334D3
:1045A00054343A3437343A34313400342D343E34D0
:1045B000203454344534533454343A3438343A344F
:1045C000313400342D343E342034543445345334A3
:1045D00054343A3439343A34313400345434453470
:1045E000533454342034533446344C3441345334EB
:1045F00048340034463449344E342034443445344D
:1046000020345434453453345434003456344F3405
:104610004934523420344134503450344C344934C9
:104620000034543445345334543420345234313407
:1046300020344F344E3400344534543441345034F3
:10464000453420343134303400344534543441342A
:104650005034453420343134323400345434453409
:1046600053345434203442345034323400344534DA
:1046700054344134503445342034313433340034EC
:104680004534543441345034453420343134343496
:1046900000344534543441345034453420343134BA
:1046A00035340034453454344134503445342034A6
:1046B0003134363400344534543441345034453484
:1046C0002034313437340034453454344134503498
:1046D0004534203431343834003454344534533480
:1046E000543420344F344B34003445345434413442
:1046F0005034453420343134003454344534533448
:10470000543420345034313400344534543441343A
:104710005034453420343234003454344534533426
:104720005434203450343234003445345434413419
:104730005034453420343334003445345434413417
:104740005034453420343434003445345434413406
:1047500050344534203435340034453454344134F5
:1047600050344534203436340034453454344134E4
:1047700050344534203437340034453454344134D3
:1047800050344534203438340034453454344134C2
:104790005034453420343934003425346434003402
:020000040001F9
:08000000FF3FFF3FFF3FFF3F00
:04000E00E43FFF3F8D
:00000001FF
