:1000000080316D28080008347E1480312000911D55
:100010000A280B286B2891112400151B1028112881
:100020001528951F142815281828151395136B28C3
:10003000941A1B281C28232814191F282028232839
:10004000110815166B28941A262827283528141D00
:100050002A282B283528110819307A06031D312843
:1000600032282128553091002128941E382839281B
:100070004E2814193C283D284E281108F00070081D
:10008000F100151619307106031D472848286B2802
:100090001930F0007008FA006B286B28941E512864
:1000A00052284D28141D552856284D281108F000B7
:1000B0007008F200151658307206031D602861287A
:1000C0006328223091004D307206031D682869288C
:1000D0004D28993091007E10090080316F28210051
:1000E000803103208031EF003A3084009230850067
:1000F000203086000130870028309E31C8268031AC
:10010000AB3084009F308500C0308600013087000E
:1001100014309E31C8268031F801F901FA01E90155
:10012000EA01EB01EC01ED01EE012200E901EA0137
:10013000EB01EC01ED01EE01A030840001308500FF
:1001400020309E31C22680317E1020008B31732BEF
:1001500065080319AC28AD28C228CF302000A600BE
:10016000A330A7006730A800A030A9006430AA001F
:100170009830AB006430AC009830AD009331BB23B5
:100180008031CE2803302100D4000830D3007730EE
:10019000890BC828D30BC828D40BC82801309F313D
:1001A0003227803115302100D4004B30D300BE30CF
:1001B000890BD828D30BD828D40BD82800000030BE
:1001C0009F313227803115302100D4004B30D300CD
:1001D000BE30890BE928D30BE928D40BE9280000AD
:1001E000003091317E218031003A0319F828F92836
:1001F0000B2901309131A2218031003A03190129E4
:1002000002290B29E8302000EE00A230EF009F31D8
:10021000D42780312D292100E801CF30A500A3305B
:10022000A600E830D3005308A700E730D4005408F4
:10023000A80088312E208031E8302100D3005308F7
:10024000AD00E730D4005408AE00E430D5005508C6
:10025000AF00E63094315D24803121006808031935
:1002600032293329012A65080319372938294D29EC
:10027000D7302000A600A330A7004030A800A1304E
:10028000A9000D30AA00A130AB006430AC0098305A
:10029000AD009331BB238031592903302100D400B4
:1002A0000830D3007730890B5329D30B5329D40B53
:1002B000532901309F313227803106302100D4008C
:1002C0001330D300AD30890B6329D30B6329D40BD2
:1002D0006329003200309F31322780310B302100FA
:1002E000D4002630D3005D30890B7429D30B7429D8
:1002F000D40B742900320C3090314E2080317408B8
:100300002100E3007308E200DF30A300A330A40063
:100310006308A6006208A500DB309231F422803128
:1003200021002408D8002308D7006308803AD300AE
:1003300083305302031D9E29203062020318A12935
:10034000A229AB29F4302000EE00A230EF009F314B
:10035000D4278031F529D7302100A500A330A6008D
:10036000E830D3005308A700E730D4005408A800B1
:1003700088312E208031210065080319C029C12948
:10038000D629D7302000A600A330A7004030A8000F
:10039000A130A900DB30AA000030AB006430AC0013
:1003A0009830AD009331BB238031E2290330210026
:1003B000D4000830D3007730890BDC29D30BDC293B
:1003C000D40BDC2922008C13E8302100D300530821
:1003D000AD00E730D4005408AE00E430D500550835
:1003E000AF00E63094315D24803129302100D40003
:1003F0009630D3007F30890BFB29D30BFB29D40B1C
:10040000FB29210068080319062A072AD52A65084E
:1004100003190B2A0C2A212A2E302000A600A33013
:10042000A7004030A800A130A9005130AA00A13097
:10043000AB006430AC009830AD009331BB23803109
:100440002D2A03302100D4000830D3007730890BE7
:10045000272AD30B272AD40B272A01309F31322792
:10046000803106302100D4001330D300AD30890B29
:10047000372AD30B372AD40B372A003200309F316A
:10048000322780310B302100D4002630D3005D307C
:10049000890B482AD30B482AD40B482A00320C3047
:1004A00090314E20803174082100E3007308E2008F
:1004B000DF30A300A330A4006308A6006208A500F3
:1004C000DB309231F422803121002408DA00230845
:1004D000D9006308803AD30082305302031D722A88
:1004E000BC3062020318752A762A7F2A1F3020004A
:1004F000EE00A230EF009F31D4278031C92A2E3080
:100500002100A500A330A600E830D3005308A700BF
:10051000E730D4005408A80088312E208031210013
:1005200065080319942A952AAA2A2E302000A600CD
:10053000A330A7004030A800A130A900DB30AA00FA
:100540000030AB006430AC009830AD009331BB2379
:100550008031B62A03302100D4000830D300773030
:10056000890BB02AD30BB02AD40BB02A22008C17E7
:10057000E8302100D3005308AD00E730D400540820
:10058000AE00E430D5005508AF00E63094315D246C
:10059000803129302100D4009630D3007F30890B80
:1005A000CF2AD30BCF2AD40BCF2A210068080319F6
:1005B000DA2ADB2AB62B65080319DF2AE02AF52A96
:1005C00037302000A600A330A7000030A800A330D9
:1005D000A9006430AA009830AB006430AC009830B9
:1005E000AD009331BB238031012B03302100D400B7
:1005F0000830D3007730890BFB2AD30BFB2AD40BAE
:10060000FB2A0B302100D4002630D3005D30890B4B
:10061000072BD30B072BD40B072B003201309F3154
:100620003227803106302100D4001330D300AD30A2
:10063000890B182BD30B182BD40B182B003200303E
:100640009F31322780313D302100D400E130D3008A
:100650003F30890B292BD30B292BD40B292B0032AC
:1006600001309F313227803106302100D400133011
:10067000D300AD30890B3A2BD30B3A2BD40B3A2B4A
:10068000003200309F313227803110302100D400F9
:100690003930D3000D30890B4B2BD30B4B2BD40BA4
:1006A0004B2B0032013091315A218031003A03192D
:1006B0005A2B5B2B762B013091317E218031003A11
:1006C0000319632B642B762B00309131A2218031EA
:1006D000003A03196C2B6D2B762B2C302000EE008A
:1006E000A230EF009F31D4278031A12B2100E801F7
:1006F00000309F313227803100309F313E278031DA
:1007000037302100A500A330A600E830D3005308FD
:10071000A700E730D4005408A80088312E2080318B
:10072000E8302100D3005308AD00E730D40054086E
:10073000AE00E430D5005508AF00E63094315D24BA
:10074000803115302100D4004B30D300BE30890BEE
:10075000A72BD30BA72BD40BA72B000000309F3166
:100760003227803100309F313E27803121006808D8
:100770000319BB2BBC2B372C65080319C02BC12BCD
:10078000D62B49302000A600A330A7006130A80076
:10079000A130A9000430AA00A230AB001E30AC008A
:1007A000A130AD009331BB238031E22B0330210017
:1007B000D4000830D3007730890BDC2BD30BDC2B33
:1007C000D40BDC2B01309F313227803106302100E1
:1007D000D4001330D300AD30890BEC2BD30BEC2BB2
:1007E000D40BEC2B003200309F31322780317F3028
:1007F0002000EE009830EF009F31D4278031210097
:1008000066089231912280312100D3005308E7001D
:100810006708031D0C2C0D2C2F2CE8014930A50076
:10082000A330A600E830D3005308A700E730D40077
:100830005408A80088312E208031E8302100D300F0
:100840005308AD00E730D4005408AE00E430D500C2
:100850005508AF00E63094315D248031372C3930B3
:100860002000EE00A230EF009F31D427803121001C
:10087000680803193C2C3D2CCB2C65080319412C2E
:10088000422C572C52302000A600A330A700403045
:10089000A800A330A9006430AA009830AB006430EF
:1008A000AC009830AD009331BB238031632C033012
:1008B0002100D4000830D3007730890B5D2CD30B96
:1008C0005D2CD40B5D2C01309F313E2780310630EA
:1008D0002100D4001330D300AD30890B6D2CD30B25
:1008E0006D2CD40B6D2C003200309F313E278031AF
:1008F0000B302100D4002630D3005D30890B7E2CD4
:10090000D30B7E2CD40B7E2C0032013091315A2136
:100910008031003A03198D2C8E2CA92C0130913195
:100920007E218031003A0319962C972CA92C013096
:100930009131A2218031003A03199F2CA02CA92CBF
:1009400046302000EE00A230EF009F31D4278031E6
:10095000CB2C2100E8015230A500A330A600E830DE
:10096000D3005308A700E730D4005408A80088310A
:100970002E208031E8302100D3005308AD00E7304D
:10098000D4005408AE00E430D5005508AF00E6307E
:1009900094315D248031210068080319D02CD12CBA
:1009A0005F2D65080319D52CD62CEB2C5B3020006D
:1009B000A600A330A7008730A800A230A9006430A9
:1009C000AA009830AB006430AC009830AD00933191
:1009D000BB238031F72C03302100D4000830D30032
:1009E0007730890BF12CD30BF12CD40BF12C013087
:1009F0009F316227803106302100D4001330D300AC
:100A0000AD30890B012DD30B012DD40B012D0032FC
:100A100000309F31622780310B302100D400263016
:100A2000D3005D30890B122DD30B122DD40B122D58
:100A30000032003091315A218031003A0319212DC2
:100A4000222D3D2D003091317E218031003A031955
:100A50002A2D2B2D3D2D00309131A2218031003ADD
:100A60000319332D342D3D2D53302000EE00A230DC
:100A7000EF009F31D42780315F2D2100E8015B30EA
:100A8000A500A330A600E830D3005308A700E73044
:100A9000D4005408A80088312E208031E83021008D
:100AA000D3005308AD00E730D4005408AE00E43062
:100AB000D5005508AF00E63094315D248031210027
:100AC00068080319642D652DE92D65080319692D42
:100AD0006A2D7F2D64302000A600A330A7008F3040
:100AE000A800A330A9006430AA009830AB0064309D
:100AF000AC009830AD009331BB2380318B2D033097
:100B00002100D4000830D3007730890B852DD30B1A
:100B1000852DD40B852D01309F314A278031193026
:100B20002100D4005A30D300B130890B952DD30B5E
:100B3000952DD40B952D003200309F314A278031FE
:100B40000B302100D4002630D3005D30890BA62D58
:100B5000D30BA62DD40BA62D0032013091315A2192
:100B60008031003A0319B52DB62DD12D01309131C8
:100B70007E218031003A0319BE2DBF2DD12D0130C9
:100B80009131A2218031003A0319C72DC82DD12DF2
:100B900060302000EE00A230EF009F31D42780317A
:100BA000E92D64302100CA00A330CB00E830D30027
:100BB0005308CC00E730D4005408CD00E630D5000F
:100BC0005508CE00E430D6005608CF008831B22058
:100BD0008031210068080319EE2DEF2D7D2E650868
:100BE0000319F32DF42D092E6D302000A600A3303B
:100BF000A7009F30A800A330A9006430AA00983055
:100C0000AB006430AC009830AD009331BB23803131
:100C1000152E03302100D4000830D3007730890B23
:100C20000F2ED30B0F2ED40B0F2E01309F315627D2
:100C3000803119302100D4005A30D300B130890BF3
:100C40001F2ED30B1F2ED40B1F2E003200309F31CE
:100C5000562780310B302100D4002630D3005D3080
:100C6000890B302ED30B302ED40B302E00320030B7
:100C700091315A218031003A03193F2E402E5B2ECC
:100C8000003091317E218031003A0319482E492EDF
:100C90005B2E00309131A2218031003A0319512E90
:100CA000522E5B2E6D302000EE00A230EF009F31FF
:100CB000D42780317D2E2100E8016D30A500A330BE
:100CC000A600E830D3005308A700E730D40054084A
:100CD000A80088312E208031E8302100D30053084D
:100CE000AD00E730D4005408AE00E430D50055081C
:100CF000AF00E63094315D2480312100680803198B
:100D0000822E832EF02E65080319872E882E9D2EA5
:100D100076302000A600A330A700BC30A800A13088
:100D2000A9001830AA00A330AB001E30AC00A130DF
:100D3000AD009331BB238031A92E03302100D400B4
:100D40000830D3007730890BA32ED30BA32ED40BFE
:100D5000A32E9031692080312100660892319122C2
:100D600080312100D3005308E7006708031DB92E26
:100D7000BA2EE82EE8017630A500A330A600E830B0
:100D8000D3005308A700E730D4005408A8008831E6
:100D90002E208031E8302100D3005308AD00E73029
:100DA000D4005408AE00E430D5005508AF00E6305A
:100DB00094315D24803129302100D4009630D30055
:100DC0007F30890BE12ED30BE12ED40BE12EF02ED8
:100DD0007A302000EE00A230EF009F31D42780311E
:100DE000210068080319F52EF72E8B31BA2B650800
:100DF0000319FB2EFC2E112F0C302000A600A3306F
:100E0000A700CE30A800A030A900F630AA00A1307B
:100E1000AB002A30AC00A030AD009331BB23803151
:100E20001D2F03302100D4000830D3007730890B08
:100E3000172FD30B172FD40B172F01309F310E27ED
:100E4000803100309F31022780319131162180316D
:100E5000E6302100A5000030A600E830A7000030F1
:100E6000A800913137218031E8302100A500003001
:100E7000A600E730A7000030A800E630A900003047
:100E8000AA00E430AB000030AC0093317023803115
:100E900029302100D4009630D3007F30890B4E2FAB
:100EA000D30B4E2FD40B4E2FF52E80316D28200002
:100EB000A3002308A10021082100ED0000309F318C
:100EC000982787319C302000A100D730890B662FEE
:100ED000A10B662F03309031042087311A30200097
:100EE000A100F830890B722FA10B722F0000033084
:100EF0009031042087311A302000A100F830890B8E
:100F00007F2FA10B7F2F0000033090310420873109
:100F10001A302000A100F830890B8C2FA10B8C2FE8
:100F2000000002309031042087311A302000A100E7
:100F3000F830890B992FA10B992F000028309031A0
:100F40000420873102302000A2000430A100BA3012
:100F5000890BA82FA10BA82FA20BA82F00000C30E3
:100F600090310420873102302000A2000430A1001B
:100F7000BA30890BB92FA10BB92FA20BB92F0000E2
:100F8000013090310420873102302000A20004306B
:100F9000A100BA30890BCA2FA10BCA2FA20BCA2FEE
:100FA0000000063090310420873102302000A2007A
:100FB0000430A100BA30890BDB2FA10BDB2FA20B71
:100FC000DB2F00000800F500F601FA2F20000F19B2
:100FD000EA2FEB2FFA2FF601F60A75088600870133
:100FE00081017408860087018101730886008701EA
:100FF0008101810A76080319FE2FFF2FE62F0800D2
:1010020016302100970008002000AC00AA01AB01B5
:101012001D282908A600A7012608F3002708F400C6
:101022002508A8002808F50094310C2488310130E5
:101032002000AA070030AB3D2A082C07A60026088C
:101042008600013087000108A7002708A9002908A7
:10105200031D2C282D280A28080020308600013084
:101062008700B43084000030850014302100A900CC
:1010720016001A00A90B39283E308600013087007D
:10108200AA308400003085000A30A90016001A0038
:10109200A90B472801309F311A27883101309F312F
:1010A2002627883100309F310E27883100309F314A
:1010B20002278831210026082000A70021002508E8
:1010C2002000A600C530A800A030A9002A30AA003E
:1010D200A030AB006430AC009830AD009331BB233C
:1010E2008831B4302000AC000030AD002100260869
:1010F2002000AF00210025082000AE009F31E92723
:10110200883120002D082100C90020002C08210070
:10111200C80049082000AD00210048082000AC00AA
:10112200AA30AE000030AF009F31E927883120009D
:101132002D08EF002C08EE009F31D427883193311F
:101142002B23883120000F1DA728A828A3282100BF
:10115200270886008701810128088600870181010E
:101162000800C03086000130870052308400013010
:10117200850014302100D00016001A00D00BBD28C3
:101182003430860001308700483084000130850009
:101192000A30D00016001A00D00BCB2801309F3144
:1011A2001A27883101309F312627883100309F313C
:1011B2000E27883121004B082000A70021004A0891
:1011C2002000A600C530A800A030A900A130AA00C6
:1011D200A030AB001530AC00A030AD009331BB2382
:1011E200883152302000AC000130AD0021004B08A4
:1011F2002000AF0021004A082000AE009F31E927FD
:10120200883120002D082200E70020002C0822004F
:10121200E60067082000AD00220066082000AC004E
:101222004830AE000130AF009F31E92788312000FD
:101232002D08EF002C08EE009F31D427883193311E
:101242002B23883121004E08860087010108923144
:10125200912288312100D00050082200E8000B3092
:101262002100D1002630D0005D30890B3629D00B09
:101272003629D10B36290032220068080319422987
:101282004329722921004C088600870181014D08FB
:1012920086008701810164302000A600A330A700E8
:1012A200CA30A800A030A900B330AA00A030AB0019
:1012B2002A30AC00A030AD009331BB238831CC3052
:1012C2002100D0005008AD00CD30D1005108AE0051
:1012D200CF30D2005208AF00CE3094315D24883135
:1012E200092A64302000A600A330A7008F30A8008E
:1012F200A330A9006430AA009830AB006430AC007F
:101302009830AD009331BB23883100309F311A27CA
:10131200883101309F312627883100309F310E27D6
:10132200883101309F314A27883119302100D1009C
:101332005A30D000B130890B9C29D00B9C29D10B9B
:101342009C29003200309F314A2788311530210014
:10135200D1004B30D000BE30890BAD29D00BAD2966
:10136200D10BAD290000013091315A218831003A68
:101372000319BC29BD29E429013091317E2188312C
:10138200003A0319C529C629E42901309131A22165
:101392008831003A0319CE29CF29E429643020008C
:1013A200A600A330A7008F30A800A330A900713097
:1013B200AA00A130AB007F30AC00A330AD00933166
:1013C200BB238831092A21004C088600870181014C
:1013D2006430A500A330A600CC30D0005008A7008E
:1013E200CD30D1005108A80088312E208831CC3070
:1013F2002100D0005008AD00CD30D1005108AE0020
:10140200CF30D2005208AF00CE3094315D24883103
:1014120008002000C5003A08CE003B08CF003C0877
:10142200D0003D08D1003E08D2003F08D30040085A
:10143200D4004108D5004E30860000308700473F77
:10144200C200C21B252A272A0130282A0030200088
:10145200C300C4014308CC004408CD004C084D042D
:101462000319342A352A532ACE09CF09D009D109C2
:10147200D209D309D409D509CE0A031D532ACF0AAA
:10148200031D532AD00A031D532AD10A031D532ACE
:10149200D20A031D532AD30A031D532AD40A031D59
:1014A200532AD50A2100EC1B572A582A5C2AFD3000
:1014B200F805FF30F9056C08803A2000C200803040
:1014C2004202031D672A013021006B0203186A2AB7
:1014D2006B2A712A01302000C8000030C900792A25
:1014E20021006C082000C90021006B082000C80000
:1014F20022006A082000CB00220069082000CA00EE
:101502004C084D04031D862A872A8B2A781D8A2AB5
:101512008B2A8F2AFF30CA07FF30CB3D1F30D600FF
:101522000030D7002300BF01FF2AFF302000D6077A
:10153200FF30D73D0A30A000A101A201A301A401FE
:10154200A501A601A7014E08A8004F08A90050084E
:10155200AA005108AB005208AC005308AD00540871
:10156200AE005508AF00953108258A3120002108C8
:10157200F7002008F600903184208A317608303E48
:101582002000C2005608A03E8600013087004208B3
:101592008100FF30C807FF30C93DFF30CA07FF3066
:1015A200CB3D0A30A000A101A201A301A401A50123
:1015B200A601A7014E08A8004F08A9005008AA00DA
:1015C2005108AB005208AC005308AD005408AE00FD
:1015D2005508AF009531F2258A3120002008CE004F
:1015E2002108CF002208D0002308D1002408D2000D
:1015F2002508D3002608D4002708D5002000570864
:10160200803AC20080304202031D092B013056028B
:10161200031C0C2B0D2B392B20004E084F045004B9
:1016220051045204530454045504031D192B1A2B5C
:10163200962A4908803AC20080304202031D232BB9
:10164200013048020318262B272B962A20004B082C
:10165200803AC20080304202031D312B01304A021F
:10166200031C342B352B392BF818382B392B962A9F
:1016720020004C084D04031D3F2B402B442B781DAA
:10168200432B442B602BFF30D607FF30D73D4C084D
:101692004D04031D4D2B4E2B532B2B30C600003017
:1016A200C700572B2D30C6000030C7004608C200C5
:1016B2005608A03E86000130870042088100560885
:1016C200A03EC2004208AD004B08AF004A08AE007F
:1016D20045089431AF248A3120002E08BB002D0822
:1016E200BA0008009F316E278B312100E801E70123
:1016F200E601E001E401E40AE501E50A20008E1AB0
:10170200832B842B8A2B2100E5019F3189278B3182
:101712008D2B9E31DF268B3120000E1C912B922BBC
:10172200962B2100E101E10A982B2100E101200022
:101732008E189C2B9D2BA12B2100E001E00AA32BEC
:101742002100E00165080319A72BA82BAB2B22006F
:101752008C13AD2B22008C1715302100D4004B3096
:10176200D300BE30890BB32BD30BB32BD40BB32BCB
:101772000000210065080319BF2BC02B152C4E3029
:10178200873157278B318E302000A600A030A7006A
:10179200E830A800A130A900E930AA00A030AB00CF
:1017A200CB30AC00A130AD009331BB238B31033081
:1017B2002100D4000830D3007730890BDE2BD30B05
:1017C200DE2BD40BDE2B4630873157278B318E3000
:1017D2002000A600A030A700AD30A800A130A900CB
:1017E200E930AA00A030AB00CB30AC00A130AD0094
:1017F2009331BB238B3103302100D4000830D30056
:101802007730890B022CD30B022CD40B022C152C13
:10181200E830D3005308F300E430D4005408F40055
:10182200E6308731E3278B312100680803191A2C2F
:101832001B2C092CE4019131C6218B312100E801D6
:10184200E80A00309F310E278B3100309F311A2772
:101852008B3101309F3126278B3103302100D40098
:101862000830D3007730890B342CD30B342CD40BB3
:10187200342C2100650803193F2C402C542C87304E
:101882002000A600A330A7002F30A800A130A90095
:101892006430AA009830AB006430AC009830AD00E0
:1018A2009331BB238B3101309F3132278B31013091
:1018B2009F313E278B3115302100D4004B30D300AD
:1018C200BE30890B622CD30B622CD40B622C00002D
:1018D20001309F3102278B3129302100D40096300C
:1018E200D3007F30890B732CD30B732CD40B732C46
:1018F200013091315A218B31003A0319812C822C0B
:101902009D2C013091317E218B31003A03198A2CB2
:101912008B2C9D2C01309131A2218B31003A03197D
:10192200932C942C9D2C94302000EE00A230EF00DA
:101932009F31D4278B31C82C2100E80100309F3120
:1019420032278B3100309F313E278B318730210087
:10195200A500A330A600E830D3005308A700E73063
:10196200D4005408A80088312E208B31E8302100A1
:10197200D3005308AD00E730D4005408AE00E43081
:10198200D5005508AF00E63094315D248B31153017
:101992002100D4004B30D300BE30890BCE2CD30BA8
:1019A200CE2CD40BCE2C000000309F3132278B314D
:1019B20000309F313E278B31210068080319E32C48
:1019C2008E31722E8E31F32E65080319E92CEA2C22
:1019D200FF2CB7302000A600A330A7008F30A8004C
:1019E200A130A9006430AA009830AB006430AC008A
:1019F2009830AD009331BB238C310B2D0330210085
:101A0200D4000830D3007730890B052DD30B052D78
:101A1200D40B052D01309F3132278C310630210045
:101A2200D4001330D300AD30890B152DD30B152DF7
:101A3200D40B152D003200309F3132278C3121001A
:101A420061080319252D262D5D2D660892319122FC
:101A52008C312100D3005308E7006708031D322DA3
:101A6200332D552DE801B730A500A330A600E8308C
:101A7200D3005308A700E730D4005408A8008831E7
:101A82002E208C31E8302100D3005308AD00E7301E
:101A9200D4005408AE00E430D5005508AF00E6305B
:101AA20094315D248C315D2DC4302000EE00A230D3
:101AB200EF009F31D4278C31210068080319622D71
:101AC200632DDF2D65080319672D682D7D2DBF302D
:101AD2002000A600A330A7002330A800A330A9004D
:101AE2006430AA009830AB006430AC009830AD008E
:101AF2009331BB238C31892D03302100D40008306F
:101B0200D3007730890B832DD30B832DD40B832DF8
:101B120001309F3132278C3115302100D4004B30F7
:101B2200D300BE30890B932DD30B932DD40B932D61
:101B3200000000309F3132278C3115302100D40053
:101B42004B30D300BE30890BA42DD30BA42DD40B64
:101B5200A42D0000013091315A218C31003A031931
:101B6200B32DB42DBD2DD0302000EE00A230EF00F9
:101B72009F31D4278C31DF2D2100E801BF30A50031
:101B8200A330A600E830D3005308A700E730D40002
:101B92005408A80088312E208C31E8302100D3006F
:101BA2005308AD00E730D4005408AE00E430D5004D
:101BB2005508AF00E63094315D248C31210068086D
:101BC2000319E42DE52D6A2E65080319E92DEA2D86
:101BD200FF2DC7302000A600A330A7005330A80075
:101BE200A030A9006430AA009830AB006430AC0089
:101BF2009830AD009331BB238C310B2E0330210082
:101C0200D4000830D3007730890B052ED30B052E74
:101C1200D40B052E01309F3132278C311530210033
:101C2200D4004B30D300BE30890B152ED30B152EAA
:101C3200D40B152E000000309F3132278C31153025
:101C42002100D4004B30D300BE30890B262ED30B9B
:101C5200262ED40B262E0000003091315A218C31D1
:101C6200003A0319352E362E482E013091317E214D
:101C72008C31003A03193E2E3F2E482EDC302000D4
:101C8200EE00A230EF009F31D4278C316A2E210062
:101C9200E801C730A500A330A600E830D3005308FE
:101CA200A700E730D4005408A80088312E208C31D8
:101CB200E8302100D3005308AD00E730D4005408C7
:101CC200AE00E430D5005508AF00E63094315D2413
:101CD2008C31210068080319702E8031A8288131C7
:101CE2002D2965080319762E772E8C2E9730200029
:101CF200A600A330A700FB30A800A030A9006430E2
:101D0200AA009830AB006430AC009830AD0093313B
:101D1200BB238E31982E03302100D4000830D3002B
:101D22007730890B922ED30B922ED40B922E003049
:101D32009F3132278E3100309F313E278E310B305A
:101D42002100D4002630D3005D30890BA62ED30BA0
:101D5200A62ED40BA62E0032013091315A218E319B
:101D6200003A031DB52EB62ED12E013091317E21BF
:101D72008E31003A031DBE2EBF2ED12E013091317D
:101D8200A2218E31003A031DC72EC82ED12EA030BB
:101D92002000EE00A230EF009F31D4278E31F32EC7
:101DA2002100E8019730A500A330A600E830D30057
:101DB2005308A700E730D4005408A80088312E2029
:101DC2008E31E8302100D3005308AD00E730D40053
:101DD2005408AE00E430D5005508AF00E630943127
:101DE2005D248E31210068080319F82EF92E7A2F0E
:101DF20065080319FD2EFE2E132FA7302000A60022
:101E0200A330A7008030A800A130A9006430AA0046
:101E12009830AB006430AC009830AD009331BB23F6
:101E22008E311F2F03302100D4000830D3007730C9
:101E3200890B192FD30B192FD40B192F01309F3176
:101E420032278E3106302100D4001330D300AD305A
:101E5200890B292FD30B292FD40B292F00320030C5
:101E62009F3132278E31210061080319392F3A2F11
:101E72007A2F2A302000EE009830EF009F31D427CD
:101E82008E3121006608923191228E312100D300D9
:101E92005308E7006708031D4F2F502F722FE801E8
:101EA200A730A500A330A600E830D3005308A7004E
:101EB200E730D4005408A80088312E208E31E83053
:101EC2002100D3005308AD00E730D4005408AE001F
:101ED200E430D5005508AF00E63094315D248E31F0
:101EE2007A2FAC302000EE00A230EF009F31D427D1
:101EF2008E312100680803197F2F802FF82F650883
:101F02000319842F852F9A2FAF302000A600A3300B
:101F1200A7009E30A800A130A9006430AA00983022
:101F2200AB006430AC009830AD009331BB238E31EE
:101F3200A62F03302100D4000830D3007730890B5C
:101F4200A02FD30BA02FD40BA02F01309F3132270B
:101F52008E3106302100D4001330D300AD30890B0E
:101F6200B02FD30BB02FD40BB02F003200309F31E3
:101F720032278E31210061080319C02FC12FF82F9B
:101F82006608923191228E312100D3005308E70076
:101F92006708031DCD2FCE2FF02FE801AF30A5002B
:101FA200A330A600E830D3005308A700E730D400DE
:101FB2005408A80088312E208E31E8302100D30049
:101FC2005308AD00E730D4005408AE00E430D50029
:101FD2005508AF00E63094315D248E31F82FB830C9
:101FE2002000EE00A230EF009F31D4278E31210075
:0E1FF20068080319FE2F8C31E52C8D315D2D12
:102008002000A0002100EE0120002008F0399F31B7
:10201800BF27903120002008F7000330F735FF3E36
:10202800031D12287735F0399F31BF2790310800FA
:102038002000A0002100EE01EE0A20002008F0395F
:102048009F31BF27903120002008F7000330F73573
:10205800FF3E031D2B287735F0399F31BF2790317C
:1020680008007408F6007308F5003E280130F307ED
:102078000030F43D73088600740887000108031DCA
:10208800462847283A2875087302F3007608743BF7
:10209800F4000800F6007608F500F50DF50D2100AE
:1020A8001D087506833975069D001D140D30890BB2
:1020B8005B28000021009D149D186328642860286F
:1020C8001C08F4001B08F300080022000C17063057
:1020D800F4001330F300AE30890B7028F30B70282E
:1020E800F40B702822000C130630F4001330F300B0
:1020F800AE30890B7D28F30B7D28F40B7D28080072
:102108007708803A2000B00080303002031D8E2806
:10211800013076020318912892289F28760920001A
:10212800B0007709B100B00A0319B10A3008F60007
:102138003108F7009F280800F400F3017408031918
:10214800A628A728AE2820008F1BAB28AC28AE28CD
:10215800F301F30A7408031DB228B328BA28200033
:102168008F1FB728B828BA28F301F30A73080800A4
:10217800F400F30174080319C228C328CA282000F0
:102188000F19C728C828CA28F301F30A7408031DC1
:10219800CE28CF28D62820000F1DD328D428D6280B
:1021A800F301F30A73080800220090018F018C01E3
:1021B8008D018E010830210090008C01CF308D00F8
:1021C800FF308E00FF308F0023008F013F308D00DD
:1021D80090013C308C00240090018D01210095175E
:1021E80022009D0108002000A401A5010A29210858
:1021F800240784002208253D8500000890311C2012
:10220800903101302000A4070030A53D21082407A3
:1022180084002208253D85001200031D1429152974
:10222800FB28080000302000EE009830EF009F31B6
:10223800D42791312100A601A7019131C6219131FE
:1022480001302100A6070030A73D2708803AA500E5
:1022580080302502031D322902302602031C35294D
:102268003629212908002100A901532920000F1926
:102278003E293F2953290030EE00A030EF009F315E
:10228800D42791312100A901A90A2508860026082A
:10229800870081012708860028088700810121001E
:1022A80029080319582959293A290800F400F30183
:1022B80074080319602961296C2920000F1C6529FD
:1022C80066296C298F1869296A296C29F301F30A90
:1022D8007408031D702971297C2920000F1875299D
:1022E80076297C298F1C79297A297C29F301F30A1C
:1022F80073080800F400F301740803198429852978
:10230800902920008F1D89298A2990290F1A8D2943
:102318008E299029F301F30A7408031D942995293D
:10232800A02920008F1999299A29A0290F1E9D29D3
:102338009E29A029F301F30A73080800F400F301A9
:1023480074080319A829A929B42920008F1EAD29CA
:10235800AE29B4290F1BB129B229B429F301F30A14
:102368007408031DB829B929C42920008F1ABD296A
:10237800BE29C4290F1FC129C229C429F301F30AA0
:10238800730808002000A001A101923112229131A6
:102398000230F700A030F6009230890BD129F60BF5
:1023A800D129F70BD129003201302000A0070030D5
:1023B800A13D2108803AF60080307602031DE62907
:1023C80002302002031CE929EA29C9290800200053
:1023D8002308A9002208A8002108AB002008AA00A9
:1023E8002B08A5002A08A400AA0A0319AB0A240886
:1023F8008600250887002908A7002808A600A80A3B
:102408000319A90A26088400270885000008C03F88
:102418008908031D102A112AF4290800F401F5017E
:1024280022000D160630F3003030890B192AF30B01
:10243800192A003222000D120630F3003030890BC1
:10244800232AF30B232A00320130F4070030F53D2C
:102458007508803AF30080307302031D352A323044
:102468007402031C382A392A142A08002D343E34F1
:1024780020344534523452344534553452343A3485
:102488002034003400340034003400340034003484
:10249800003400340D340A3400340034003400347D
:1024A80000340034003400340D340A34003400346D
:1024B8000034003400340034003400342000A40018
:1024C8007D2A2108BF3E903104209231902A2108AC
:1024D800933E903104209231902A2108D33E9031C6
:1024E80004209231902A21087F3E903104209231B5
:1024F800902A2408A200A3012308003A0319852A78
:10250800772A2208023A0319652A013A03196B2A25
:10251800073A0319712A772A0800F500F601F7012E
:1025280075080319982A992A9A2A992A7508031D61
:102538009E2A9F2ABE2AB92A01309031A0209231C2
:10254800003A0319A82AA92AAC2AF601F701F70AC2
:1025580001309031BC209231003A0319B42AB52ACF
:10256800B92AF601F60AF701F70A77080319BD2A0E
:10257800BE2AA02A760808002100A00020006A08C8
:102588002100A200200069082100A100E901EA0158
:10259800E32AA1302000EC006C08D8006B08ED009D
:1025A8006D08D900210020089631F62692312000C6
:1025B80058082100E907200059082100EA3D2108B0
:1025C8008400220885001200031DEB2AEC2ACD2A7C
:1025D8006A082000EA00210069082000E9000800D4
:1025E8002100AA00A5302000EE006E082100A900F5
:1025F8002A082000EE006E082100AB00AC01AD01F6
:10260800AE01AF0124082000EA00210023082000C1
:10261800E900A930EE006E08EB00AB309231C02221
:10262800923120006A082100A800200069082100D2
:10263800A7002C082A072000EE006E0886008701F4
:10264800810121002808A4002708A3000800200011
:10265800A001A1012000A201A3019231122293310D
:102668001530F7004B30F600BE30890B392BF60BCE
:10267800392BF70B392B003201302000A20700302C
:10268800A33D2308803AF60080307602031D4E2BC6
:1026980004302202031C512B522B312B0B30F70034
:1026A8002630F6005E30890B572BF60B572BF70BAD
:1026B800572B01302000A0070030A13D2108803AA7
:1026C800F60080307602031D6B2B04302002031CB9
:1026D8006E2B6F2B2E2B08002100290886002A0854
:1026E80087000108031D792B7A2B822B00302000EC
:1026F800EE00A030EF009F31D42793312100250848
:102708008600260887008101270886002808870098
:102718008101290886002A08870081012B08860084
:102728002C0887000130810000309F310E2793313B
:1027380000309F311A27933100309F31262793317B
:1027480000309F310227933100309F313227933177
:1027580000309F313E27933100309F314A27933113
:1027680000309F315627933122008C1308009E3188
:10277800D626933106309031042093310230200060
:10278800AF000430AE00BA30890BC82BAE0BC82B93
:10279800AF0BC82B00002000A101A10A0130923123
:1027A8006222933120002708A2002608A100903158
:1027B800F72093312000A101A10A02309231622250
:1027C800933120002908A2002808A1009031F720A1
:1027D80093312000A101A10A033092316222933182
:1027E80020002B08A2002A08A1009031F72093317D
:1027F8002000A101A10A0430923162229331200005
:102808002D08A2002C08A1009031F7209331080070
:1028180075080319102C112C162C7508031D152C7E
:10282800162C1B2C73088031022094315C2C7508FF
:10283800033E86008701160001040319242C252C69
:10284800432C7508033E86008701403F2000A00006
:10285800413FA100750A86008701403FA200413F21
:10286800A3002308803AA4002108803A2402031D0B
:102878003F2C200822020318422C432C5C2C73089E
:102888002000A000750886008701750A840085016C
:1028980000080107A100210886008701200881009F
:1028A800750A860087010130810741310318810AC2
:1028B80008002100B8003808860087010108B00028
:1028C800B1013008A5003108A6002D08860087014F
:1028D8000108B200B3013208A7003308A8009131FB
:1028E8003721943121002D08860087010108B000A6
:1028F800B1013008A5003108A6002E08860087011E
:102908000108B200B3013208A7003308A80038084C
:10291800860087010108B400B5013408A90035080C
:10292800AA002F08860087010108B600B7013608FB
:10293800AB003708AC009331702394312930210063
:10294800B1009630B0007F30890BA82CB00BA82CB2
:10295800B10BA82C08002000B400781CB42CB52CAE
:10296800BD2C3408F7007708A5002D08883105200C
:1029780094312000AF1BC12CC22CC72C2F08B300E8
:102988002E08B200C92CB201B301B001B101DD2C8F
:102998002030F3000030F40020003408F7007708F6
:1029A800F50094310C24943101302000B007003038
:1029B800B13D3108803AF7003308803A7702031DA9
:1029C800E72C32083002031CEA2CEB2CCC2C7818AC
:1029D800EE2CEF2CF82C20003408F7007708A5001F
:1029E8002D0888310520943120002D08F30001308E
:1029F800F400903135209431200032087307AD007F
:102A08003308743DAE000800F50128308600003018
:102A18008700473FF300F31F122D132D342D20009C
:102A2800A809A909AA09AB09AC09AD09AE09AF09FA
:102A3800A80A031D322DA90A031D322DAA0A031D57
:102A4800322DAB0A031D322DAC0A031D322DAD0AFF
:102A5800031D322DAE0A031D322DAF0AF501F50A0A
:102A68002030860000308700473FF300F31F3D2DDC
:102A78003E2D5D2D2000A009A109A209A309A409E2
:102A8800A509A609A709A00A031D5D2DA10A031D12
:102A98005D2DA20A031D5D2DA30A031D5D2DA40A49
:102AA800031D5D2DA50A031D5D2DA60A031D5D2DC1
:102AB800A70A200020082104220423042404250452
:102AC800260427040319692D6A2DBD2DF401F40A83
:102AD800792DA035A10DA20DA30DA40DA50DA60D50
:102AE800A70D0130F3007308F407A71F7C2D7D2D77
:102AF8006D2D27082F02031D9B2D26082E02031D6E
:102B08009B2D25082D02031D9B2D24082C02031D37
:102B18009B2D23082B02031D9B2D22082A02031D2F
:102B28009B2D21082902031D9B2D20082802031C28
:102B38009E2D9F2DAF2D2008A8022108A93B220811
:102B4800AA3B2308AB3B2408AC3B2508AD3B260831
:102B5800AE3B2708AF3BA736A60CA50CA40CA30CCC
:102B6800A20CA10CA00C0130F402031DBC2DBD2D3C
:102B78007D2D75080319C12DC22DE02DA809A909BD
:102B8800AA09AB09AC09AD09AE09AF09A80A031D2A
:102B9800E02DA90A031DE02DAA0A031DE02DAB0AAA
:102BA800031DE02DAC0A031DE02DAD0A031DE02D29
:102BB800AE0A031DE02DAF0A20002808A00029084E
:102BC800A1002A08A2002B08A3002C08A4002D08A5
:102BD800A5002E08A6002F08A70008002000B101B4
:102BE8002030860000308700473FF300F31FFD2D9B
:102BF800FE2D202E2000A009A109A209A309A409DD
:102C0800A509A609A709A00A031D1D2EA10A031DCF
:102C18001D2EA20A031D1D2EA30A031D1D2EA40A84
:102C2800031D1D2EA50A031D1D2EA60A031D1D2EFC
:102C3800A70A2000B101B10A2830860000308700B9
:102C4800473FF300F31F292E2A2E4E2E2000A809F5
:102C5800A909AA09AB09AC09AD09AE09AF09A80AC7
:102C6800031D492EA90A031D492EAA0A031D492E30
:102C7800AB0A031D492EAC0A031D492EAD0A031DDC
:102C8800492EAE0A031D492EAF0A0130F30073081E
:102C98002000B10632308600003087000830F3008B
:102CA80000301E00F30B552E2000200821042204BA
:102CB800230424042504260427040319642E652EFE
:102CC800C12EB001B00A742EA035A10DA20DA30D1E
:102CD800A40DA50DA60DA70D0130F3007308B007CC
:102CE800A71F772E782E682EB235B30DB40DB50D0B
:102CF800B60DB70DB80DB90D27082F02031D9E2E6E
:102D080026082E02031D9E2E25082D02031D9E2E29
:102D180024082C02031D9E2E23082B02031D9E2E21
:102D280022082A02031D9E2E21082902031D9E2E19
:102D380020082802031CA12EA22EB32E2008A802C8
:102D48002108A93B2208AA3B2308AB3B2408AC3B3B
:102D58002508AD3B2608AE3B2708AF3B3214A73603
:102D6800A60CA50CA40CA30CA20CA10CA00C013061
:102D7800B002031DC02EC12E782E31080319C52EAE
:102D8800C62EE42EB209B309B409B509B609B709C4
:102D9800B809B909B20A031DE42EB30A031DE42ECB
:102DA800B40A031DE42EB50A031DE42EB60A031D5A
:102DB800E42EB70A031DE42EB80A031DE42EB90A4F
:102DC80020003208A0003308A1003408A20035080A
:102DD800A3003608A4003708A5003808A60039085B
:102DE800A70008002000E800580886008701403F37
:102DF800DA00413FDB005A0884005B0885001200B6
:102E0800253A031D082F092FDC2F58088600870153
:102E18000130810741310318810A2200E901EA01E2
:102E2800F801F901FF302100EB00FF30EC00200031
:102E3800580886008701403FDA00413FDB005A0806
:102E480084005B0885001200643A03192C2F2D2F8B
:102E58003E2F580886008701403FDA00413FDB00DB
:102E68005A0884005B0885001200693A031D3D2F4B
:102E78003E2F792F5808860087010130810741319C
:102E88000318810A59088600870101088400850112
:102E980002308107003FDA00013FDB005A08DF00FB
:102EA8005B08E000890D893B8909E100E200E30045
:102EB800E400E500E6005F08BA006008BB006108AE
:102EC800BC006208BD006308BE006408BF00650856
:102ED800C0006608C10068088A310A2296312000BD
:102EE8003B08D9003A08D800FF2F58088600870108
:102EF800403FDA00413FDB005A0884005B08850048
:102F080012006E3A031D892F8A2FA92F58088600B0
:102F180087010130810741310318810A5908860069
:102F28008701403F84008501810A0008DA005A08B9
:102F3800E70067088600870121006908C03F6A0822
:102F4800C13F2000D801D901FF2F5808860087010A
:102F5800403FDA00413FDB005A0884005B088500E7
:102F68001200253A031DB92FBA2FD32F580886000F
:102F780087010130810741310318810A2530F300A8
:102F88000030F4006808DA005A08F50094310C247F
:102F9800963101302000D8000030D900FF2F5808A2
:102FA800860087010130810741310318810AA52F66
:102FB800580886008701403FDA00413FDB005A0885
:102FC80084005B0885000008DC00DD015C08F30074
:102FD8005D08F4006808DE005E08F50094310C24F2
:102FE8009631200058088600870101308107413159
:102FF8000318810ACD2F08002D343E342034543470
:10300800453453345434203443344F344E344634E6
:103018004F3452344D34453420342D342034413427
:103028005434543445344E345434453420344134C3
:1030380043345134553449345434543445344D347C
:1030480045344E3454340D340A3400344134743425
:10305800743465346E3474346534203476346134B1
:103068006C34693464346134743469346F346E3464
:1030780020346C3465346434203472346F347534DD
:10308800673465340D340A3400342D343E3420342A
:10309800503452344F344734523441344D344D3423
:1030A8004134543449344F344E3420345434453444
:1030B80052344D3449344E34453445340D340A3491
:1030C80000342D343E34203454344534533454348D
:1030D80020344D3441344E34553445344C34203446
:1030E80045344E34203443344F34553452345334F9
:1030F8000D340A34003441345434543445344E3495
:10310800543445342034563441344C3449344434EE
:103118004134543449344F344E3420344C344534DB
:0A312800443453340D340A340034EB
:103D6C009E31EA269E312400161408009E31EA2664
:103D7C009E31240016150800640080010131890B66
:103D8C00C32E0034FE0012001E00FE0BC92E0034A0
:103D9C00F03021009E009B019C0101309D00080029
:103DAC000130903104209E313530890BDB2E000020
:103DBC0008002830240095009601940127309200C9
:103DCC0021008E150E16080024001419EE2EEF2E6D
:103DDC00EA2E16081F39031DF42EF52EEA2E0800C4
:103DEC0070302100990098012200960121001A1FC1
:103DFC00002F012FFC2E0800F30073080319072F66
:103E0C00082F0B2F22000C140D2F22000C10080071
:103E1C00F30073080319132F142F172F22001014FB
:103E2C00192F220010100800F300730803191F2F1C
:103E3C00202F232F22009014252F220090100800F1
:103E4C00F300730803192B2F2C2F2F2F2200101582
:103E5C00312F220010110800F30073080319372FBB
:103E6C00382F3B2F22008C143D2F22008C10080081
:103E7C00F30073080319432F442F472F22000C150E
:103E8C00492F22000C110800F300730803194F2F5F
:103E9C00502F532F22000C16552F22000C12080005
:103EAC00F300730803195B2F5C2F5F2F22008C1615
:103EBC00612F22008C120800F30073080319672F7E
:103ECC00682F6B2F22008C156D2F22008C1108008F
:103EDC009031D8209F319E31F6269F3188310120B8
:103EEC009F319E31CE269F310800F3009E31EA2689
:103EFC009F317308240091002000911D862F872F7D
:103F0C00822F911108003230240092003630950037
:103F1C0096018030940021008E150E168B170B170E
:103F2C0091150800F4009E31B6269F3121006D08D2
:103F3C009F317B279F31740821006F049F317B27B1
:103F4C009F319E31BC269F3108002D343E342034E5
:103F5C004534523452344534553452343A34203486
:103F6C0000340034003400340034003400340034A5
:103F7C000034F60021006E08F5007508F60476088A
:103F8C0004389F3198279F317608FB399F31982749
:103F9C009F314230890BD02F003208007030210045
:103FAC00A3002308A40020006F08EA006E08E900B3
:103FBC00A4302100A30023082000EB000030923134
:103FCC00C0229F31080020002D08F4002C08F300BB
:103FDC00903135209F31730820002C07A000740805
:103FEC002D3DA1002F08A3002E08A2009131EB213A
:103FFC009F3108002D343E342034463449344E343D
:10400C002034543445345334543420344D344134F6
:10401C004E34553445344C340D340A340034503459
:10402C0052344534533453344534523420344F34A1
:10403C004B3420344F3455342034453452345234BC
:10404C0045345534523400344134543454344534AA
:10405C004E34543445342034413443345134553483
:10406C0049345434543445344D3445344E3454343A
:10407C0000342D343E342034413470347034753473
:10408C00793465347234203473347534723420349A
:10409C004F344B340D340A340034543445345334D7
:1040AC00543420345234313420344F344634463472
:1040BC0020342D3420345234323420344F344E34A6
:1040CC000034543445345334543420345234323460
:1040DC0020344F344634463420342D34203452347A
:1040EC00333420344F344E3400342D343E342034A9
:1040FC0054344534533454342034413443345134DF
:10410C00553449345434543445340D340A34003461
:10411C0054344534533454342034433441345234BD
:10412C005434453420344434393432343534453401
:10413C0044343434003456344534523449344634DF
:10414C0049344534523420345034313420344534DD
:10415C0054342034503432340034523445345334D3
:10416C0055344C34543441345434203443344F3467
:10417C004E344634493452344D344534003454347E
:10418C0045345334543420344E344F344E3420346C
:10419C0043344F344E3446344F3452344D3445341A
:1041AC000034463449344E342034503452344F3475
:1041BC004734523441344D344D3441345434493401
:1041CC004F344E34003450344F3453344934543417
:1041DC0049344F344E344E34453452342034433405
:1041EC00413452345434453400345434453453340B
:1041FC005434203433342034523445344C34413428
:10420C004934533420344F34463446340034433428
:10421C004C344134563449344534523420344534CA
:10422C0043344C3441344934523445343F340034F3
:10423C00503452344534533453344534523420348E
:10424C004F344B3420342F3420344E344F344B34D1
:10425C0000345434453453345434203433342034FF
:10426C00523445344C3441344934533420344F3473
:10427C004E340034543445345334543420344C3498
:10428C0045344434203443344C344134563449346A
:10429C0045345234003443344C344134563449346C
:1042AC0045345234203445345434453449344E3436
:1042BC0054343F340034543445345334543420345F
:1042CC004C34453444345334203443344134523424
:1042DC005434453400344534523452344534553416
:1042EC0052342034563441344C34493444344534FB
:1042FC0045340034543445345334543420344C3421
:10430C0045344434203452344F34553447344534D6
:10431C000034543445345334543420344C34453400
:10432C0044342034563445345234543445340034F7
:10433C00543445345334543420344C34453444349C
:10434C00203442344C3445345534453400344D34E7
:10435C004F34443455344C34453420344534533480
:10436C0043344C344134563445340034543445349D
:10437C0053345434203442344C345534453454344E
:10438C004F344F3454344834003441345034503466
:10439C005534593445345234203453345534523412
:1043AC0020344F344B3400342D343E3420345434C8
:1043BC0045345334543420344F34463446340D345D
:1043CC000A3400344D344F34443455344C34453471
:1043DC0020344D344134493454345234453400344F
:1043EC0052344534543449345234453452342034E4
:1043FC004334413452345434453400344C34453411
:10440C0044345334203441344C344C3455344D34CE
:10441C0045344534533400342D343E342034543434
:10442C0045345334543420344F344E340D340A3420
:10443C0000342D343E342034543445345334543405
:10444C003A34313430343A34313400342D343E344F
:10445C00203454344534533454343A3431343234B3
:10446C003A34313400342D343E3420345434453411
:10447C00533454343A34313433343A3431340034E0
:10448C002D343E34203454344534533454343A347B
:10449C00313434343A34313400342D343E34203415
:1044AC0054344534533454343A34313435343A3446
:1044BC00313400342D343E342034543445345334A8
:1044CC0054343A34313436343A34313400342D34B3
:1044DC003E34203454344534533454343A34313427
:1044EC0037343A34313400342D343E34203454349F
:1044FC004534533454343A34313438343A34313416
:10450C0000345434453453345434203448344F3408
:10451C0052344C344F344734453400342D343E340B
:10452C00203454344534533454343A3431343A34DA
:10453C00313400342D343E34203454344534533427
:10454C0054343A3432343A34313400342D343E3429
:10455C00203454344534533454343A3433343A34A8
:10456C00313400342D343E342034543445345334F7
:10457C0054343A3434343A34313400342D343E34F7
:10458C00203454344534533454343A3435343A3476
:10459C00313400342D343E342034543445345334C7
:1045AC0054343A3436343A34313400342D343E34C5
:1045BC00203454344534533454343A3437343A3444
:1045CC00313400342D343E34203454344534533497
:1045DC0054343A3438343A34313400342D343E3493
:1045EC00203454344534533454343A3439343A3412
:1045FC00313400345434453453345434203453342B
:10460C0046344C3441345334483400344634493401
:10461C004E342034443445342034543445345334EB
:10462C005434003456344F344934523420344134E9
:10463C00503450344C3449340034543445345334AD
:10464C00543420345234313420344F344E3400340A
:10465C0045345434413450344534203431343034BE
:10466C0000344534543441345034453420343134DE
:10467C0032340034543445345334543420344234BA
:10468C00503432340034453454344134503445348D
:10469C0020343134333400344534543441345034C0
:1046AC0045342034313434340034453454344134BA
:1046BC00503445342034313435340034453454349A
:1046CC00413450344534203431343634003445349C
:1046DC00543441345034453420343134373400347C
:1046EC004534543441345034453420343134383426
:1046FC000034543445345334543420344F344B3414
:10470C00003445345434413450344534203431343D
:10471C00003454344534533454342034503431340C
:10472C00003445345434413450344534203432341C
:10473C0000345434453453345434203450343234EB
:10474C0000344534543441345034453420343334FB
:10475C0000344534543441345034453420343434EA
:10476C0000344534543441345034453420343534D9
:10477C0000344534543441345034453420343634C8
:10478C0000344534543441345034453420343734B7
:10479C0000344534543441345034453420343834A6
:1047AC000034453454344134503445342034393495
:0847BC0000342534643400349C
:020000040001F9
:08000000FF3FFF3FFF3FFF3F00
:04000E00E43FFF3F8D
:00000001FF
