:040000008031A22881
:100008007E14803122000C108C100C118C110C12F3
:100018008C120C138C172000911D13281428A0286B
:1000280091112400151B19281A281E28951F1D2810
:100038001E28212815139513A028941A242825284A
:100048002F281419282829282F2822000C172400C3
:1000580011081516A028941A322833284428141D8C
:1000680036283728442822008C1624001108193015
:100078007A06031D402841282D28553091002D2847
:10008800941E47284828712814194B284C28712891
:1000980022000C1624001108F0007008F100151653
:1000A80058307106031D59285A285C2822000C1460
:1000B8004D307106031D61286228642822008C14C3
:1000C80019307106031D69286A28A0281930F00024
:1000D8007008FA0022008C14A028941E7428752831
:1000E800A028141D78287928A02822000C1524009F
:1000F8001108F0007008F200151658307206031D3A
:10010800862887288C2822000C142230240091008D
:100118004D307206031D91289228972822008C14CE
:1001280099302400910019307206031D9C289D28DF
:10013800A02822008C14A0287E1009008031A42851
:1001480021008731FE278031EF00CE3084009030C7
:100158008500203086000130870028309D318425B5
:100168008031543084009E308500C03086000130D4
:10017800870014309D3184258031F801F901FA0196
:10018800E901EA01EB01EC01ED01EE012200E901D0
:10019800EA01EB01EC01ED01EE01A0308400013031
:1001A800850020309D317E2580317E1020008031F1
:1001B800DD289E312A2680312100E801E701E60189
:1001C800E501E50ADB01DB0A20008E1AEC28ED28A0
:1001D800F3282100DB019E3145268031F6289D3128
:1001E8009B25803115302100D4004B30D300BE3020
:1001F800890BFC28D30BFC28D40BFC2800004E30BC
:1002080087314327803179302000A600A130A7002C
:10021800F130A800A230A900D430AA00A130AB0068
:10022800C530AC00A230AD00923159228031033084
:100238002100D4000830D3007730890B2129D30B53
:100248002129D40B21294630873143278031793041
:100258002000A600A130A700A730A800A230A9005E
:10026800D430AA00A130AB00C530AC00A230AD003C
:1002780092315922803103302100D4000830D30054
:100288007730890B4529D30B4529D40B4529220002
:100298008C1320000E1C5129522956292100E201F5
:1002A800E20A58292100E20120008E185C295D2904
:1002B8005E296B296B29E830D3005308A500E53087
:1002C800D4005408A600E6308231E62280312100AD
:1002D80068080319702971295F29E50190315B20AD
:1002E80080312100E801E80A00309D31CA258031BB
:1002F80000309D31D625803101309D31E225803195
:1003080003302100D4000830D3007730890B8A29C4
:10031800D30B8A29D40B8A29463087314327803169
:1003280079302000A600A130A700D430A800A23060
:10033800A900D430AA00A130AB00C530AC00A2306F
:10034800AD0092315922803103302100D4000830A9
:10035800D3007730890BAE29D30BAE29D40BAE2945
:100368004E3087314327803190302000A600A430DA
:10037800A7001A30A800A230A9003A30AA00A0307D
:10038800AB003A30AC00A030AD0092315922803138
:10039800193091318A2180312100D3005308E100BE
:1003A80003302100D4000830D3007730890BDA29D4
:1003B800D30BDA29D40BDA2901309D31EE258031AF
:1003C80001309D31FA25803115302100D4004B30A1
:1003D800D300BE30890BEE29D30BEE29D40BEE29BE
:1003E800000001309D31BE25803129302100D40024
:1003F8009630D3007F30890BFF29D30BFF29D40B0C
:10040800FF2901309F31DC278031003A03190D2A7A
:100418000E2A292A0130903113208031003A03191D
:10042800162A172A292A0130903137208031003ABC
:1004380003191F2A202A292A9D302000EE00A33004
:10044800EF009E317D268031542A2100E8010030DA
:100458009D31EE25803100309D31FA258031903074
:100468002100A500A430A600E830D3005308A70057
:10047800E730D4005408A8009331FF238031E830D6
:100488002100D3005308AD00E730D4005408AE0073
:10049800E530D5005508AF00E6309231FB228031B7
:1004A80015302100D4004B30D300BE30890B5A2AB6
:1004B800D30B5A2AD40B5A2A000000309D31EE255E
:1004C800803100309D31FA258031210068080319F8
:1004D8006E2A6F2ADE2AA0302000A600A430A700CA
:1004E800E630A800A130A9003A30AA00A030AB003D
:1004F8003A30AC00A030AD00923159228031003042
:100508009D31EE25803100309D31FA2580310B3048
:100518002100D4002630D3005D30890B912AD30BFB
:10052800912AD40B912A003201309F31DC27803187
:10053800003A031DA02AA12ABC2A013090311320B9
:100548008031003A031DA92AAA2ABC2A0130903119
:1005580037208031003A031DB22AB32ABC2AA930B9
:100568002000EE00A330EF009E317D268031DE2A88
:100578002100E801A030A500A430A600E830D3008F
:100588005308A700E730D4005408A8009331FF238C
:100598008031E8302100D3005308AD00E730D400A3
:1005A8005408AE00E530D5005508AF00E63092316A
:1005B800FB228031210068080319E42A88310328C6
:1005C800883172282100AB00AA017B2C20000F196A
:1005D800EE2AEF2A5B2C7130EE00A030EF009E313E
:1005E8007D2682312100AA01AA0A2B0886008701EC
:1005F8008101260886008701810125088600870178
:100608008101810A5B2C01001B302000EE00A33021
:10061800EF009E317D26823121002B08860087015C
:100628008101810A2508860087018101810A26083F
:1006380086008701810102302100A8000430A7004C
:10064800BA30890B252BA70B252BA80B252B0000CF
:100658002100AA01AA0A7B2C57302000EE00A03006
:10066800EF009E317D26823179302000A600A1302E
:10067800A7003A30A800A030A900EB30AA00A030AB
:10068800AB003A30AC00A030AD0092315922823133
:1006980021002B08860087018101810A0230210090
:1006A800A8000430A700BA30890B582BA70B582B89
:1006B800A80B582B00002100AA01AA0A25088600C9
:1006C8008701810122008C137B2C3B302000EE0037
:1006D800A030EF009E317D26823179302000A600BF
:1006E800A130A7003A30A800A030A900C630AA005F
:1006F800A130AB003A30AC00A030AD0092315922A5
:10070800823121002B08860087018101810A250892
:100718008600870181012608860087018101023051
:100728002100A8000430A700BA30890B992BA70B29
:10073800992BA80B992B00002100AA01AA0A2200D4
:100748008C177B2C1F302000EE00A030EF009E316C
:100758007D26823179302000A600A130A7003A30EA
:10076800A800A030A900C230AA00A130AB003A30DE
:10077800AC00A030AD0092315922823121002B0803
:10078800860087018101810A02302100A800043017
:10079800A700BA30890BCE2BA70BCE2BA80BCE2BDC
:1007A80000002100AA01AA0A250886008701810104
:1007B80022008C137B2CA5302000EE00A030EF0027
:1007C8009E317D26823179302000A600A130A70015
:1007D8003A30A800A030A9006F30AA00A230AB00C0
:1007E8003A30AC00A030AD0092315922823121005C
:1007F8002B08860087018101810A25088600870168
:1008080081012608860087018101810A02302100C2
:10081800A8000430A700BA30890B102CA70B102CA5
:10082800A80B102C00002100AA01AA0A22008C178C
:100838007B2CBE302000EE00A030EF009E317D26DC
:10084800823179302000A600A130A7003A30A800F4
:10085800A030A9006B30AA00A230AB003A30AC003F
:10086800A030AD0092315922823121002B08860038
:1008780087018101810A25088600870181012608F0
:10088800860087018101810A02302100A800043016
:10089800A700BA30890B4E2CA70B4E2CA80B4E2C58
:1008A80000002100AA01AA0A22008C137B2C210037
:1008B8002908A700A8012808003A0319642C7B2CF2
:1008C8002708303A0319072B013A0319082B043A71
:1008D80003191D2C033A0319302B013A0319692B0C
:1008E8000F3A0319DF2B013A0319A62B7B2C2100A1
:1008F8002A080319802C812CEA2A08002000C50048
:100908003A08CE003B08CF003C08D0003D08D10093
:100918003E08D2003F08D3004008D4004108D50063
:100928004E30860000308700473FC200C21B9D2C16
:100938009F2C0130A02C00302000C300C4014308C4
:10094800CC004408CD004C084D040319AC2CAD2C48
:10095800CB2CCE09CF09D009D109D209D309D409A2
:10096800D509CE0A031DCB2CCF0A031DCB2CD00AE8
:10097800031DCB2CD10A031DCB2CD20A031DCB2C73
:10098800D30A031DCB2CD40A031DCB2CD50A210076
:10099800EC1BCF2CD02CD42CFD30F805FF30F905FA
:1009A8006C08803A2000C20080304202031DDF2C10
:1009B800013021006B020318E22CE32CE92C0130F2
:1009C8002000C8000030C900F12C21006C0820006C
:1009D800C90021006B082000C80022006A08200016
:1009E800CB00220069082000CA004C084D04031DF2
:1009F800FE2CFF2C032D781D022D032D072DFF3013
:100A0800CA07FF30CB3D1F30D6000030D700230087
:100A1800BF01772DFF302000D607FF30D73D0A30C1
:100A2800A000A101A201A301A401A501A601A7019B
:100A38004E08A8004F08A9005008AA005108AB00AA
:100A48005208AC005308AD005408AE005508AF007A
:100A580095310825843120002108F7002008F60088
:100A68009F31292784317608303E2000C20056087D
:100A7800A03E86000130870042088100FF30C80789
:100A8800FF30C93DFF30CA07FF30CB3D0A30A00018
:100A9800A101A201A301A401A501A601A7014E0875
:100AA800A8004F08A9005008AA005108AB00520836
:100AB800AC005308AD005408AE005508AF0095319E
:100AC800F225843120002008CE002108CF0022081A
:100AD800D0002308D1002408D2002508D300260816
:100AE800D4002708D50020005708803AC20080307B
:100AF8004202031D812D01305602031C842D852DD1
:100B0800B12D20004E084F045004510452045304E0
:100B180054045504031D912D922D0E2D4908803A39
:100B2800C20080304202031D9B2D01304802031889
:100B38009E2D9F2D0E2D20004B08803AC20080303C
:100B48004202031DA92D01304A02031CAC2DAD2D14
:100B5800B12DF818B02DB12D0E2D20004C084D04E4
:100B6800031DB72DB82DBC2D781DBB2DBC2DD82D40
:100B7800FF30D607FF30D73D4C084D04031DC52D67
:100B8800C62DCB2D2B30C6000030C700CF2D2D3001
:100B9800C6000030C7004608C2005608A03E8600BE
:100BA80001308700420881005608A03EC200420872
:100BB800AD004B08AF004A08AE00450893314D23FD
:100BC800843120002E08BB002D08BA000800C03070
:100BD80086000130870052308400013085001430CF
:100BE8002100D00016001A00D00BF62D34308600F4
:100BF8000130870048308400013085000A30D00079
:100C080016001A00D00B042E01309D31D6258531EF
:100C180001309D31E225853100309D31CA2585316D
:100C280021004B082000A70021004A082000A60048
:100C3800B030A800A130A9008C30AA00A130AB00C8
:100C48000030AC00A130AD009231592285315230CC
:100C58002000AC000130AD0021004B082000AF009F
:100C680021004A082000AE009E31922685312000DE
:100C78002D082200E70020002C082200E600670863
:100C88002000AD00220066082000AC004830AE000D
:100C98000130AF009E319226853120002D08EF00EB
:100CA8002C08EE009E317D2685319131CA2185318F
:100CB80021004E088600870101089431832485317C
:100CC8002100D00050082200E8000B302100D1009C
:100CD8002630D0005D30890B6F2ED00B6F2ED10BD4
:100CE8006F2E00322200680803197B2E7C2EAB2E53
:100CF80021004C088600870181014D088600870184
:100D080081016D302000A600A430A700B530A800EE
:100D1800A130A9009E30AA00A130AB001530AC006C
:100D2800A130AD00923159228531CC302100D0005C
:100D38005008AD00CD30D1005108AE00CF30D20000
:100D48005208AF00CE309231FB228531422F6D30F0
:100D58002000A600A430A7009830A800A430A9005D
:100D68003A30AA00A030AB003A30AC00A030AD0059
:100D780092315922853100309D31D6258531013097
:100D88009D31E225853100309D31CA2585310130FC
:100D98009E310626853119302100D1005A30D00005
:100DA800B130890BD52ED00BD52ED10BD52E0032D4
:100DB80000309E310626853115302100D1004B3098
:100DC800D000BE30890BE62ED00BE62ED10BE62ED6
:100DD800000001309F31DC278531003A0319F52ED8
:100DE800F62E1D2F0130903113208531003A03195A
:100DF800FE2EFF2E1D2F0130903137208531003A0D
:100E08000319072F082F1D2F6D302000A600A430CE
:100E1800A7009830A800A430A9005C30AA00A2302E
:100E2800AB008830AC00A430AD0092315922853136
:100E3800422F21004C088600870181016D30A500F2
:100E4800A430A600CC30D0005008A700CD30D10087
:100E58005108A8009331FF238531CC302100D00000
:100E68005008AD00CD30D1005108AE00CF30D200CF
:100E78005208AF00CE309231FB22853108002000A5
:100E8800A3002308A10021082100ED0000309031C3
:100E9800002087319C302000A100D730890B522FC9
:100EA800A10B522F03309E31A92687311A3020001A
:100EB800A100F830890B5E2FA10B5E2F00000330D4
:100EC8009E31A92687311A302000A100F830890BFD
:100ED8006B2FA10B6B2F000003309E31A9268731A1
:100EE8001A302000A100F830890B782FA10B782F39
:100EF800000002309E31A92687311A302000A10057
:100F0800F830890B852FA10B852F000028309E31E2
:100F1800A926873102302000A2000430A100BA308F
:100F2800890B942FA10B942FA20B942F00000C3047
:100F38009E31A926873102302000A2000430A1008A
:100F4800BA30890BA52FA10BA52FA20BA52F000046
:100F580001309E31A926873102302000A2000430DA
:100F6800A100BA30890BB62FA10BB62FA20BB62F52
:100F7800000006309E31A926873102302000A200E9
:100F88000430A100BA30890BC72FA10BC72FA20BC1
:100F9800C72F000008002000A400EA2F2108BF3E48
:100FA8009E31A9268731FD2F2108933E9E31A9261F
:100FB8008731FD2F2108D33E9E31A9268731FD2F89
:100FC80021087F3E9E31A9268731FD2F2408A200E3
:100FD800A3012308003A0319F22FE42F2208023A4A
:100FE8000319D22F013A0319D82F073A0319DE2F14
:080FF800E42F08000834080092
:10100600B0302000A600A430A7007A30A800A23095
:10101600A9003A30AA00A030AB003A30AC00A030AC
:10102600AD0092315922883101309D31EE2588314B
:1010360006302100D4001330D300AD30890B2128AF
:10104600D30B2128D40B2128003200309D31EE2508
:1010560088312100620803193128322872280030AD
:101066002000EE00A030EF009E317D268831210061
:1010760066089431832488312100D3005308E700A1
:101086006708031D472848286A28E801B030A500EC
:10109600A430A600E830D3005308A700E730D400F8
:1010A6005408A8009331FF238831E8302100D3008B
:1010B6005308AD00E730D4005408AE00E530D50043
:1010C6005508AF00E6309231FB2288317228B530E0
:1010D6002000EE00A330EF009E317D2688312100EE
:1010E6006808031977287828DE28B8302000A6007B
:1010F600A430A7009830A800A230A9003A30AA0070
:10110600A030AB003A30AC00A030AD00923159228D
:10111600883101309D31EE25883106302100D4001A
:101126001330D300AD30890B9628D30B9628D40BF9
:101136009628003200309D31EE2588312100620864
:101146000319A628A728DE28660894318324883147
:101156002100D3005308E7006708031DB328B4280D
:10116600D628E801B830A500A430A600E830D300A0
:101176005308A700E730D4005408A8009331FF2392
:101186008831E8302100D3005308AD00E730D400A1
:101196005408AE00E530D5005508AF00E630923170
:1011A600FB228831DE28C1302000EE00A330EF009C
:1011B6009E317D268831210068080319E328E4283A
:1011C6004A29C0302000A600A430A7008930A80014
:1011D600A230A9003A30AA00A030AB003A30AC00E9
:1011E600A030AD0092315922883101309D31EE2573
:1011F600883106302100D4001330D300AD30890B7E
:101206000229D30B0229D40B0229003200309D316A
:10121600EE258831210062080319122913294A296B
:1012260066089431832488312100D3005308E700EF
:101236006708031D1F2920294229E801C030A5009F
:10124600A430A600E830D3005308A700E730D40046
:101256005408A8009331FF238831E8302100D300D9
:101266005308AD00E730D4005408AE00E530D50091
:101276005508AF00E6309231FB2288314A29CD303D
:101286002000EE00A330EF009E317D26883121003C
:10129600680803194F295029BA29C8302000A6002A
:1012A600A430A7002C30A800A430A9003A30AA0028
:1012B600A030AB003A30AC00A030AD0092315922DC
:1012C600883101309D31EE25883115302100D4005A
:1012D6004B30D300BE30890B6E29D30B6E29D40B4D
:1012E6006E29000000309D31EE2588311530210031
:1012F600D4004B30D300BE30890B7F29D30B7F2916
:10130600D40B7F29000001309F31DC278831003A59
:1013160003198E298F299829D9302000EE00A33091
:10132600EF009E317D268831BA292100E801C830B8
:10133600A500A430A600E830D3005308A700E73084
:10134600D4005408A8009331FF238831E8302100E7
:10135600D3005308AD00E730D4005408AE00E530A2
:10136600D5005508AF00E6309231FB2288312100C6
:1013760068080319BF29C029332AD0302000A600E7
:10138600A430A7003E30A800A130A9003A30AA0038
:10139600A030AB003A30AC00A030AD0092315922FB
:1013A600883101309D31EE25883115302100D40079
:1013B6004B30D300BE30890BDE29D30BDE29D40B8C
:1013C600DE29000000309D31EE25883115302100E0
:1013D600D4004B30D300BE30890BEF29D30BEF2955
:1013E600D40BEF29000000309F31DC278831003A0A
:1013F6000319FE29FF29112A013090311320883163
:10140600003A0319072A082A112AE5302000EE00BF
:10141600A330EF009E317D268831332A2100E80172
:10142600D030A500A430A600E830D3005308A700AA
:10143600E730D4005408A8009331FF238831E83000
:101446002100D3005308AD00E730D4005408AE00A5
:10145600E530D5005508AF00E6309231FB228831E1
:10146600210068080319382A392AAC2AD830200006
:10147600A600A430A7005230A800A130A9003A3037
:10148600AA00A030AB003A30AC00A030AD009231DB
:101496005922883101309D31EE25883115302100E1
:1014A600D4004B30D300BE30890B572AD30B572AB2
:1014B600D40B572A000000309D31EE2588311530B7
:1014C6002100D4004B30D300BE30890B682AD30BE1
:1014D600682AD40B682A0000003090311320883126
:1014E600003A0319772A782A8A2A01309031372060
:1014F6008831003A0319802A812A8A2AF13020008D
:10150600EE00A330EF009E317D268831AC2A210003
:10151600E801D830A500A430A600E830D30053086F
:10152600A700E730D4005408A8009331FF23883180
:10153600E8302100D3005308AD00E730D40054084A
:10154600AE00E530D5005508AF00E6309231FB22FB
:101556008831210068080319B12AB22A5D2BE030D0
:101566002000A600A430A7002B30A800A230A900B6
:10157600F830AA00A130AB003A30AC00A030AD0084
:1015860092315922883101309D31EE25883106305D
:101596002100D4001330D300AD30890BD02AD30BF1
:1015A600D02AD40BD02A003200309D31EE25883166
:1015B6000B302100D4002630D3005D30890BE12AA0
:1015C600D30BE12AD40BE12A00320C309E31F326EC
:1015D600883174082100E4007308E300E830A300B2
:1015E600A430A4006408A6006308A500DC3091318D
:1015F6005321883121002408D8002308D700640825
:10160600803AD30083305302031D0B2B2030630234
:1016160003180E2B0F2B1A2B22008C17FD302000DF
:10162600EE00A330EF009E317D268831512BE0304D
:101636002100A500A430A600E830D3005308A70077
:10164600E730D4005408A8009331FF238831E030F6
:101656002000A600A430A7002B30A800A230A900C5
:10166600DC30AA000030AB003A30AC00A030AD0050
:1016760092315922883122008C13E8302100D300A0
:101686005308AD00E730D4005408AE00E530D5006D
:101696005508AF00E6309231FB228831293021000F
:1016A600D4009630D3007F30890B572BD30B572BA2
:1016B600D40B572B210068080319622B632B0E2CC1
:1016C60037302000A600A430A7002B30A800A23097
:1016D600A9003C30AA00A230AB003A30AC00A030E2
:1016E600AD0092315922883101309D31EE25883185
:1016F60006302100D4001330D300AD30890B812B86
:10170600D30B812BD40B812B003200309D31EE257B
:1017160088310B302100D4002630D3005D30890B90
:10172600922BD30B922BD40B922B00320C309E3182
:10173600F326883174082100E4007308E300E830DA
:10174600A300A430A4006408A6006308A500DC304A
:1017560091315321883121002408DA002308D90069
:101766006408803AD30082305302031DBC2BBC3080
:1017760063020318BF2BC02BCB2B22008C132830FF
:101786002000EE00A330EF009E317D268831022C2A
:1017960037302100A500A430A600E830D300530856
:1017A600A700E730D4005408A8009331FF238831FE
:1017B60037302000A600A430A7002B30A800A230A6
:1017C600A900DC30AA000030AB003A30AC00A030F3
:1017D600AD0092315922883122008C17E830210061
:1017E600D3005308AD00E730D4005408AE00E5300E
:1017F600D5005508AF00E6309231FB2288312930FA
:101806002100D4009630D3007F30890B082CD30BEF
:10181600082CD40B082C210068080319132C142C4F
:10182600DD2C40302000A600A430A7000930A80017
:10183600A430A9003A30AA00A030AB003A30AC0080
:10184600A030AD009231592288310B302100D400EE
:101856002630D3005D30890B2E2CD30B2E2CD40BC7
:101866002E2C003201309D31EE25883106302100C4
:10187600D4001330D300AD30890B3F2CD30B3F2C53
:10188600D40B3F2C003200309D31EE2588313D309F
:101896002100D400E130D3003F30890B502CD30B0C
:1018A600502CD40B502C003201309D31EE2588315E
:1018B60006302100D4001330D300AD30890B612CE3
:1018C600D30B612CD40B612C003200309D31EE25F8
:1018D600883110302100D4003930D3000D30890B07
:1018E600722CD30B722CD40B722C003201309F3128
:1018F600DC278831003A0319812C822C9D2C01307B
:10190600903113208831003A03198A2C8B2C9D2C98
:101916000030903137208831003A0319932C942CEB
:101926009D2C35302000EE00A330EF009E317D2641
:101936008831C82C2100E80100309D31EE25883120
:1019460000309D31FA25883140302100A500A430B1
:10195600A600E830D3005308A700E730D4005408A7
:10196600A8009331FF238831E8302100D3005308C3
:10197600AD00E730D4005408AE00E530D500550878
:10198600AF00E6309231FB22883115302100D400B9
:101996004B30D300BE30890BCE2CD30BCE2CD40BC0
:1019A600CE2C000000309D31EE25883100309D316F
:1019B600FA258831210068080319E22CE32C4C2D06
:1019C60052302000A600A430A7004C30A800A23058
:1019D600A9000D30AA00A330AB000930AC00A2303C
:1019E600AD0092315922883101309D31EE25883182
:1019F60006302100D4001330D300AD30890B012D01
:101A0600D30B012DD40B012D003200309D31EE2574
:101A160088318B302000EE00A030EF009E317D260D
:101A26008831210066089431832488312100D3004F
:101A36005308E7006708031D212D222D442DE801D8
:101A46005230A500A430A600E830D3005308A70002
:101A5600E730D4005408A8009331FF238831E830DA
:101A66002100D3005308AD00E730D4005408AE007F
:101A7600E530D5005508AF00E6309231FB228831BB
:101A86004C2D42302000EE00A330EF009E317D2623
:101A96008831210068080319512D522DCE2D5B3057
:101AA6002000A600A430A7004930A800A430A90051
:101AB6003A30AA00A030AB003A30AC00A030AD00FE
:101AC60092315922883101309D31FA25883106300C
:101AD6002100D4001330D300AD30890B702DD30B09
:101AE600702DD40B702D003200309D31FA258831CF
:101AF6000B302100D4002630D3005D30890B812DB8
:101B0600D30B812DD40B812D003201309F31DC2780
:101B16008831003A0319902D912DAC2D013090316A
:101B260013208831003A0319992D9A2DAC2D0130D6
:101B3600903137208831003A0319A22DA32DAC2D00
:101B46004F302000EE00A330EF009E317D26883115
:101B5600CE2D2100E8015B30A500A430A600E830B8
:101B6600D3005308A700E730D4005408A8009331E7
:101B7600FF238831E8302100D3005308AD00E73059
:101B8600D4005408AE00E530D5005508AF00E63065
:101B96009231FB228831210068080319D32DD42DF8
:101BA600502E64302000A600A430A7009030A80074
:101BB600A330A9003A30AA00A030AB003A30AC00FE
:101BC600A030AD0092315922883101309E311E2657
:101BD600883106302100D4001330D300AD30890B94
:101BE600F22DD30BF22DD40BF22D003200309E31A4
:101BF6001E2688310B302100D4002630D3005D30FC
:101C0600890B032ED30B032ED40B032E0032003088
:101C16009F31DC278831003A0319122E132E2E2EFF
:101C26000030903113208831003A03191B2E1C2EE8
:101C36002E2E0030903137208831003A0319242E99
:101C4600252E2E2E5C302000EE00A330EF009E31B4
:101C56007D268831502E2100E8016430A500A4308D
:101C6600A600E830D3005308A700E730D400540894
:101C7600A8009331FF238831E8302100D3005308B0
:101C8600AD00E730D4005408AE00E530D500550865
:101C9600AF00E6309231FB22883121006808031933
:101CA600552E562EC82E6D302000A600A430A70053
:101CB6009830A800A430A9003A30AA00A030AB00A2
:101CC6003A30AC00A030AD00923159228831013053
:101CD6009E310626883119302100D4005A30D300AF
:101CE600B130890B742ED30B742ED40B742E0032A4
:101CF60000309E31062688310B302100D400263074
:101D0600D3005D30890B852ED30B852ED40B852E03
:101D1600003201309F31DC278831003A0319942EB6
:101D2600952EB02E0130903113208831003A0319D8
:101D36009D2E9E2EB02E0130903137208831003AEC
:101D46000319A62EA72EB02E69302000EE00A33070
:101D5600EF009E317D268831C82E6D302100CA00E5
:101D6600A430CB00E830D3005308CC00E730D400D1
:101D76005408CD00E630D5005508CE00E530D60033
:101D86005608CF008531EB258831210068080319F4
:101D9600CD2ECE2E4A2F76302000A600A430A700E6
:101DA600A830A800A430A9003A30AA00A030AB00A1
:101DB6003A30AC00A030AD00923159228831013062
:101DC6009E311226883119302100D4005A30D300B2
:101DD600B130890BEC2ED30BEC2ED40BEC2E00324B
:101DE60000309E31122688310B302100D400263077
:101DF600D3005D30890BFD2ED30BFD2ED40BFD2EAB
:101E0600003200309F31DC278831003A03190C2F4D
:101E16000D2F282F0030903113208831003A0319F6
:101E2600152F162F282F0030903137208831003A91
:101E360003191E2F1F2F282F76302000EE00A33007
:101E4600EF009E317D2688314A2F2100E801763049
:101E5600A500A430A600E830D3005308A700E73059
:101E6600D4005408A8009331FF238831E8302100BC
:101E7600D3005308AD00E730D4005408AE00E53077
:101E8600D5005508AF00E6309231FB22883121009B
:101E9600680803194F2F502FAB2F7F302000A60064
:101EA600A430A700B630A800A230A9002130AA00AD
:101EB600A430AB000930AC00A230AD0092315922FB
:101EC60088319F310E27883121006608943183249A
:101ED60088312100D3005308E7006708031D742FDB
:101EE600752FA32FE8017F30A500A430A600E830A7
:101EF600D3005308A700E730D4005408A800933154
:101F0600FF238831E8302100D3005308AD00E730C5
:101F1600D4005408AE00E530D5005508AF00E630D1
:101F26009231FB22883129302100D4009630D3002B
:101F36007F30890B9C2FD30B9C2FD40B9C2FAB2F60
:101F460083302000EE00A330EF009E317D268831DD
:101F5600210068080319B02FB22F813103291530EB
:101F66002000A600A430A700B930A800A130A9001F
:101F7600FF30AA00A230AB001530AC00A130AD0096
:101F860092315922883101309D31CA25883100307D
:101F96009D31BE2588319F31BB278831E63021002F
:101FA600A5000030A600E830A7000030A800933155
:101FB600A6238831E8302100A5000030A600E730CE
:101FC600A7000030A800E630A9000030AA00E530DE
:101FD600AB000030AC0092310E228831293021004E
:101FE600D4009630D3007F30890BF72FD30BF72F11
:101FF600D40BF72FB02F8031A228F4009D31722523
:10200600903121006D089E313726903174082100E9
:102016006F049E31372690319D3178259031080026
:10202600F400F3017408031919281A28252820003A
:102036008F1D1E281F2825280F1A22282328252809
:10204600F301F30A7408031D29282A2835282000DD
:102056008F192E282F2835280F1E32283328352889
:10206600F301F30A73080800F400F3017408031976
:102076003D283E28492820008F1E4228432849280B
:102086000F1B462847284928F301F30A7408031D45
:102096004D284E28592820008F1A5228532859288F
:1020A6000F1F562857285928F301F30A730808000A
:1020B6002000A001A1019031A62090310B30F7003D
:1020C6002630F6005E30890B6628F60B6628F70B7D
:1020D600662801302000A0070030A13D2108803A83
:1020E600F60080307602031D7A2802302002031C97
:1020F6007D287E285E28080020002308A9002208E3
:10210600A8002108AB002008AA002B08A5002A0871
:10211600A400AA0A0319AB0A24088600250887002A
:102126002908A7002808A600A80A0319A90A26084C
:102136008400270885000008C03F8908031DA428DD
:10214600A52888280800F401F50122000D1606309E
:10215600F3003030890BAD28F30BAD280032220096
:102166000D120630F3003030890BB728F30BB72871
:1021760000320130F4070030F53D7508803AF3006F
:1021860080307302031DC92832307402031CCC2828
:10219600CD28A82808002D343E3420344534523446
:1021A60052344534553452343A34203400340034F1
:1021B60000340034003400340034003400340D346C
:1021C6000A3400340034003400340034003400345F
:1021D60000340D340A340034003400340034003442
:1021E6000034003400342000AC00AA01AB010E29F3
:1021F6002908A600A7012608F3002708F4002508E9
:10220600A8002808F5009231AA229031013020005A
:10221600AA070030AB3D2A082C07A6002608860030
:10222600013087000108A7002708A9002908031D17
:102236001D291E29FB2808002100A00020006A088D
:102246002100A200200069082100A100E901EA019D
:102256004229A1302000EC006C08D8006B08ED0084
:102266006D08D900210020089631F626913120000C
:1022760058082100E907200059082100EA3D2108F5
:102286008400220885001200031D4A294B292C29A7
:102296006A082000EA00210069082000E900080019
:1022A6002100AA00A5302000EE006E082100A9003A
:1022B6002A082000EE006E082100AB00AC01AD013B
:1022C600AE01AF0124082000EA0021002308200007
:1022D600E900A930EE006E08EB00AB3091311F210A
:1022E600913120006A082100A80020006908210019
:1022F600A7002C082A072000EE006E08860087013A
:10230600810121002808A4002708A3000800F40082
:10231600240016141618902991298D29323091001F
:10232600141896299729932914199A299B299729CC
:10233600740891001418A029A1299D291419A4290B
:10234600A529A12996149618A929AA29A6293330C0
:1023560091001418AF29B029AC291419B329B4294E
:10236600B0299615141CB829B929B5291108F30006
:102376007308F50096161616161AC229C329BF2920
:1023860016151619C729C829C4297508080020007A
:10239600A001A1012000A201A3019031A620913144
:1023A6000B30F7002630F6005E30890BD829F60B85
:1023B600D829F70BD82901302000A2070030A33D09
:1023C6002308803AF60080307602031DEC2904309B
:1023D6002202031CEF29F029D0290B30F700263002
:1023E600F6005E30890BF529F60BF529F70BF52972
:1023F60001302000A0070030A13D2108803AF600F8
:1024060080307602031D092A04302002031C0C2AA0
:102416000D2ACD2908002100290886002A088700F0
:102426000108031D172A182A202AD6302000EE009C
:10243600A030EF009E317D269231210025088600CE
:102446002608870081012708860028088700810161
:10245600290886002A08870081012B0886002C0897
:1024660087000130810000309D31CA25923100304D
:102476009D31D625923100309D31E22592310030D2
:102486009D31BE25923100309D31EE2592310030CE
:102496009D31FA25923100309E3106269231003068
:1024A6009E311226923122008C1308009D3192250E
:1024B600923106309E31A926923102302000AF00BB
:1024C6000430AE00BA30890B662AAE0B662AAF0B13
:1024D600662A00002000A101A10A01308731CF271A
:1024E600923120002708A2002608A1009F319C27D0
:1024F60092312000A101A10A02308731CF27923103
:1025060020002908A2002808A1009F319C279231AB
:102516002000A101A10A03308731CF279231200084
:102526002B08A2002A08A1009F319C279231200087
:10253600A101A10A04308731CF27923120002D084E
:10254600A2002C08A1009F319C2792310800750833
:102556000319AE2AAF2AB42A7508031DB32AB42A72
:10256600B92A73088731FF279231FA2A7508033E84
:1025760086008701160001040319C22AC32AE12A2C
:102586007508033E86008701403F2000A000413FBA
:10259600A100750A86008701403FA200413FA300C3
:1025A6002308803AA4002108803A2402031DDD2A6C
:1025B600200822020318E02AE12AFA2A73082000DA
:1025C600A000750886008701750A84008501000849
:1025D6000107A10021088600870120088100750AED
:1025E600860087010130810741310318810A0800FE
:1025F6002100B8003808860087010108B000B10143
:102606003008A5003108A6002D08860087010108BC
:10261600B200B3013208A7003308A8009331A623FD
:10262600923121002D08860087010108B000B10112
:102636003008A5003108A6002E088600870101088B
:10264600B200B3013208A7003308A8003808860094
:1026560087010108B400B5013408A9003508AA00AD
:102666002F08860087010108B600B7013608AB00BF
:102676003708AC0092310E22923129302100B10088
:102686009630B0007F30890B462BB00B462BB10B32
:10269600462B08002000B400781C522B532B5B2BD2
:1026A6003408F7007708A5002D089031F6209331FD
:1026B6002000AF1B5F2B602B652B2F08B3002E0865
:1026C600B200672BB201B301B001B1017B2B203000
:1026D600F3000030F40020003408F7007708F50016
:1026E6009231AA22933101302000B0070030B13D6B
:1026F6003108803AF7003308803A7702031D852BAC
:1027060032083002031C882B892B6A2B78188C2BF5
:102716008D2B962B20003408F7007708A5002D088E
:102726009031F620933120002D08F3000130F4009B
:102736009E31DA269331200032087307AD00330844
:10274600743DAE0008002100AC01F92B20000F19E2
:10275600AD2BAE2BE82BD630EE00A030EF009E312D
:102766007D2693312100AC01AC0A25088600260897
:102776008700810127088600280887008101E82B49
:10278600010066302000EE00A130EF009E317D266C
:102796009331210025088600260887008101270835
:1027A600860028088700810102302100AA00043033
:1027B600A900BA30890BDD2BA90BDD2BAA0BDD2B6B
:1027C60000002100AC01AC0AF92B21002B08A9005E
:1027D600AA012A08003A0319F12BF92B2908303AE5
:1027E6000319C32B043A0319C42BF92B2C0803191C
:1027F600FD2BFE2BA92B0800203086000130870018
:10280600B43084000030850014302100A900160081
:102816001A00A90B0A2C3E30860001308700AA3028
:102826008400003085000A30A90016001A00A90BA2
:10283600182C01309D31D625933101309D31E2258A
:10284600933100309D31CA25933100309D31BE252C
:102856009331210026082000A7002100250820002A
:10286600A600B030A800A130A9001530AA00A130FA
:10287600AB003A30AC00A030AD0092315922933112
:10288600B4302000AC000030AD0021002608200046
:10289600AF00210025082000AE009E31922693311C
:1028A60020002D082100C90020002C082100C800A6
:1028B60049082000AD00210048082000AC00AA30DD
:1028C600AE000030AF009E319226933120002D08D5
:1028D600EF002C08EE009E317D2693319131CA21FE
:1028E600933120000F1D782C792C742C2100270899
:1028F600860087018101280886008701810108007A
:102906002000A100A201A301210803198B2C8C2C05
:10291600DF2CD92C01000230F6000430F500BA3065
:10292600890B932CF50B932CF60B932C003220007D
:10293600A201A20AA301A30AD92C0230F600043090
:10294600F500BA30890BA52CF50BA52CF60BA52C9A
:1029560000322000A2019D2C0230F6000430F50062
:10296600BA30890BB42CF50BB42CF60BB42C003210
:102976002000A201A20AA301A30A22008C13D92CCB
:102986002008F500F6017608003A0319CB2CD92C5D
:102996007508303A03198D2C023A03198E2C013A28
:1029A6000319A02C0A3A0319AF2CD92C20002308AE
:1029B6000319DE2CDF2CC32C2108031DE32CE42C89
:1029C600062D002D01309F3145279431003A031919
:1029D600ED2CEE2CF22C2000A201A301A30A01305B
:1029E6009F3161279431003A0319FA2CFB2C002DF4
:1029F6002000A201A20AA301A30A200023080319AA
:102A0600052D062DE52C22080800F5012830860044
:102A160000308700473FF300F31F122D132D342D8E
:102A26002000A809A909AA09AB09AC09AD09AE0994
:102A3600AF09A80A031D322DA90A031D322DAA0AC1
:102A4600031D322DAB0A031D322DAC0A031D322D98
:102A5600AD0A031D322DAE0A031D322DAF0AF50154
:102A6600F50A2030860000308700473FF300F31F49
:102A76003D2D3E2D5D2D2000A009A109A209A30927
:102A8600A409A509A609A709A00A031D5D2DA10A87
:102A9600031D5D2DA20A031D5D2DA30A031D5D2DD9
:102AA600A40A031D5D2DA50A031D5D2DA60A031D9F
:102AB6005D2DA70A200020082104220423042404F3
:102AC6002504260427040319692D6A2DBD2DF4015A
:102AD600F40A792DA035A10DA20DA30DA40DA50D07
:102AE600A60DA70D0130F3007308F407A71F7C2D70
:102AF6007D2D6D2D27082F02031D9B2D26082E02E6
:102B0600031D9B2D25082D02031D9B2D24082C0239
:102B1600031D9B2D23082B02031D9B2D22082A0231
:102B2600031D9B2D21082902031D9B2D2008280229
:102B3600031C9E2D9F2DAF2D2008A8022108A93B1E
:102B46002208AA3B2308AB3B2408AC3B2508AD3B37
:102B56002608AE3B2708AF3BA736A60CA50CA40C4F
:102B6600A30CA20CA10CA00C0130F402031DBC2D79
:102B7600BD2D7D2D75080319C12DC22DE02DA80987
:102B8600A909AA09AB09AC09AD09AE09AF09A80A9A
:102B9600031DE02DA90A031DE02DAA0A031DE02D41
:102BA600AB0A031DE02DAC0A031DE02DAD0A031D83
:102BB600E02DAE0A031DE02DAF0A20002808A00074
:102BC6002908A1002A08A2002B08A3002C08A400AB
:102BD6002D08A5002E08A6002F08A7000800200033
:102BE600B1012030860000308700473FF300F31F15
:102BF600FD2DFE2D202E2000A009A109A209A30962
:102C0600A409A509A609A709A00A031D1D2EA10A44
:102C1600031D1D2EA20A031D1D2EA30A031D1D2E14
:102C2600A40A031D1D2EA50A031D1D2EA60A031D9B
:102C36001D2EA70A2000B101B10A283086000030F7
:102C46008700473FF300F31F292E2A2E4E2E200021
:102C5600A809A909AA09AB09AC09AD09AE09AF09CA
:102C6600A80A031D492EA90A031D492EAA0A031DF7
:102C7600492EAB0A031D492EAC0A031D492EAD0A87
:102C8600031D492EAE0A031D492EAF0A0130F3007B
:102C960073082000B1063230860000308700083005
:102CA600F30000301E00F30B552E200020082104EF
:102CB6002204230424042504260427040319642E6D
:102CC600652EC12EB001B00A742EA035A10DA20D3D
:102CD600A30DA40DA50DA60DA70D0130F3007308D5
:102CE600B007A71F772E782E682EB235B30DB40D18
:102CF600B50DB60DB70DB80DB90D27082F02031D7A
:102D06009E2E26082E02031D9E2E25082D02031D2B
:102D16009E2E24082C02031D9E2E23082B02031D23
:102D26009E2E22082A02031D9E2E21082902031D1B
:102D36009E2E20082802031CA12EA22EB32E2008A8
:102D4600A8022108A93B2208AA3B2308AB3B24087A
:102D5600AC3B2508AD3B2608AE3B2708AF3B3214FB
:102D6600A736A60CA50CA40CA30CA20CA10CA00CB7
:102D76000130B002031DC02EC12E782E3108031972
:102D8600C52EC62EE42EB209B309B409B509B60993
:102D9600B709B809B909B20A031DE42EB30A031D1F
:102DA600E42EB40A031DE42EB50A031DE42EB60A6A
:102DB600031DE42EB70A031DE42EB80A031DE42EF4
:102DC600B90A20003208A0003308A1003408A20086
:102DD6003508A3003608A4003708A5003808A60061
:102DE6003908A70008002000E80058088600870177
:102DF600403FDA00413FDB005A0884005B0885004B
:102E06001200253A031D082F092FDC2F58088600CB
:102E160087010130810741310318810A2200E90147
:102E2600EA01F801F901FF302100EB00FF30EC0068
:102E36002000580886008701403FDA00413FDB004A
:102E46005A0884005B0885001200643A03192C2F87
:102E56002D2F3E2F580886008701403FDA00413F5C
:102E6600DB005A0884005B0885001200693A031DDE
:102E76003D2F3E2F792F58088600870101308107A4
:102E860041310318810A5908860087010108840028
:102E9600850102308107003FDA00013FDB005A0856
:102EA600DF005B08E000890D893B8909E100E2004B
:102EB600E300E400E500E6005F08BA006008BB0036
:102EC6006108BC006208BD006308BE006408BF005C
:102ED6006508C0006608C1006808843182249631FE
:102EE60020003B08D9003A08D800FF2F5808860072
:102EF6008701403FDA00413FDB005A0884005B0847
:102F0600850012006E3A031D892F8A2FA92F5808B3
:102F1600860087010130810741310318810A59086B
:102F260086008701403F84008501810A0008DA0097
:102F36005A08E70067088600870121006908C03F34
:102F46006A08C13F2000D801D901FF2F5808860022
:102F56008701403FDA00413FDB005A0884005B08E6
:102F660085001200253A031DB92FBA2FD32F580812
:102F7600860087010130810741310318810A253017
:102F8600F3000030F4006808DA005A08F5009231C0
:102F9600AA22963101302000D8000030D900FF2F38
:102FA6005808860087010130810741310318810ADC
:102FB600A52F580886008701403FDA00413FDB0015
:102FC6005A0884005B0885000008DC00DD015C0807
:102FD600F3005D08F4006808DE005E08F500923133
:102FE600AA22963120005808860087010130810701
:102FF60041310318810ACD2F08002D343E34203488
:103006005434453453345434203443344F344E34DA
:1030160046344F3452344D34453420342D34203424
:1030260041345434543445344E34543445342034C5
:10303600413443345134553449345434543445348A
:0E3046004D3445344E3454340D340A340034C5
:103ADC0016302100970008009D31A6259D31240049
:103AEC00161408009D31A6259D31240016150800DA
:103AFC00640080010131890B7F2D0034FE0012001F
:103B0C001E00FE0B852D0034F03021009E009B0121
:103B1C009C0101309D00080001309E31A9269D3189
:103B2C003530890B972D00000800283024009500B3
:103B3C00960194012730920021008E150E16080074
:103B4C0024001419AA2DAB2DA62D16081F39031D00
:103B5C00B02DB12DA62D08007030210099009801D0
:103B6C002200960121001A1FBC2DBD2DB82D080076
:103B7C00F30073080319C32DC42DC72D22000C1498
:103B8C00C92D22000C100800F30073080319CF2D67
:103B9C00D02DD32D22001014D52D2200101008008A
:103BAC00F30073080319DB2DDC2DDF2D220090149C
:103BBC00E12D220090100800F30073080319E72D83
:103BCC00E82DEB2D22001015ED2D22001011080010
:103BDC00F30073080319F32DF42DF72D22008C1428
:103BEC00F92D22008C100800F30073080319FF2D27
:103BFC00002E032E22000C15052E22000C1108009D
:103C0C00F300730803190B2E0C2E0F2E22000C162A
:103C1C00112E22000C120800F30073080319172E42
:103C2C00182E1B2E22008C161D2E22008C12080022
:103C3C00F30073080319232E242E272E22008C1533
:103C4C00292E22008C1108009F317D279E319D3139
:103C5C00B2259E319D316E259E319D318A259E3136
:103C6C000800F3009D31A6259E31730824009100B5
:103C7C002000911D422E432E3E2E91110800323011
:103C8C00240092003630950096018030940021007B
:103C9C008E150E168B170B17911508002D343E340C
:103CAC0020344534523452344534553452343A3439
:103CBC002034003400340034003400340034003438
:103CCC0000340034F60021006E08F5007508F60487
:103CDC0076080438903100209E317608FB399031FB
:103CEC0000209E314230890B792E00320800703052
:103CFC002100A3002308A40020006F08EA006E082E
:103D0C00E900A4302100A30023082000EB000030C0
:103D1C0091311F219E31080020002D08F4002C0841
:103D2C00F3009E31DA269E31730820002C07A00088
:103D3C0074082D3DA1002F08A3002E08A20090317D
:103D4C007F209E3108002000A0002100EE01200001
:103D5C002008F0399E3168269E3120002008F7009B
:103D6C000330F735FF3E031DB72E7735F0399E3102
:103D7C0068269E3108002000A0002100EE01EE0A0A
:103D8C0020002008F0399E3168269E312000200842
:103D9C00F7000330F735FF3E031DD02E7735F03991
:103DAC009E3168269E3108007408F6007308F500F1
:103DBC00E32E0130F3070030F43D730886007408DD
:103DCC0087000108031DEB2EEC2EDF2E7508730205
:103DDC00F3007608743BF4000800F6007608F50052
:103DEC00F50DF50D21001D087506833975069D002E
:103DFC001D140D30890B002F000021009D149D18FF
:103E0C00082F092F052F1C08F4001B08F3000800CD
:103E1C0022000C170630F4001330F300AE30890B7F
:103E2C00152FF30B152FF40B152F22000C13063046
:103E3C00F4001330F300AE30890B222FF30B222F3A
:103E4C00F40B222F08007708803A2000B000803055
:103E5C003002031D332F013076020318362F372F13
:103E6C00442F76092000B0007709B100B00A03197D
:103E7C00B10A3008F6003108F700442F0800F400AE
:103E8C00F301740803194B2F4C2F532F20008F1B59
:103E9C00502F512F532FF301F30A7408031D572F82
:103EAC00582F5F2F20008F1F5C2F5D2F5F2FF3018A
:103EBC00F30A73080800F400F30174080319672F60
:103ECC00682F6F2F20000F196C2F6D2F6F2FF301A0
:103EDC00F30A7408031D732F742F7B2F20000F1D02
:103EEC00782F792F7B2FF301F30A73080800220037
:103EFC0090018F018C018D018E0108302100900002
:103F0C008C01CF308D00FF308E00FF308F002300EE
:103F1C008F013F308D0090013C308C0024009001CB
:103F2C008D012100951722009D0108002000A4019D
:103F3C00A501AF2F2108240784002208253D850008
:103F4C0000089E31C1269F3101302000A4070030AB
:103F5C00A53D2108240784002208253D8500120078
:103F6C00031DB92FBA2FA02F080000302000EE003F
:103F7C009830EF009E317D269F312100A601A701CC
:103F8C0090315B209F3101302100A6070030A73D06
:103F9C002708803AA50080302502031DD72F023058
:103FAC002602031CDA2FDB2FC62F0800F400F301C6
:103FBC0074080319E22FE32FEE2F20000F1CE72FBC
:103FCC00E82FEE2F8F18EB2FEC2FEE2FF301F30AC7
:103FDC007408031DF22FF32FFE2F20000F18F72F5C
:103FEC00F82FFE2F8F1CFB2FFC2FFE2FF301F30A53
:103FFC007308080041347434743465346E3474348A
:10400C0065342034763461346C346934643461340E
:10401C00743469346F346E3420346C3465346434E5
:10402C00203472346F347534673465340D340A348B
:10403C0000342D343E342034503452344F34473411
:10404C00523441344D344D344134543449344F346A
:10405C004E3420345434453452344D3449344E3477
:10406C00453445340D340A3400342D343E34203478
:10407C00503452344F344734523441344D344D342F
:10408C004134543449344F344E34203445344E3456
:10409C00203443344F345534523453340D340A34B1
:1040AC0000342D343E3420344534523452344534AB
:1040BC00553452342034503452344F344734523403
:1040CC0041344D344D344134543449344F344E34EE
:1040DC000D340A3400342D343E34203454344534F9
:1040EC005334543420344D3441344E3455344534E7
:1040FC004C34203445344E34203443344F3455340E
:10410C00523453340D340A3400344134543454345E
:10411C0045344E34543445342034563441344C34C4
:10412C00493444344134543449344F344E342034BB
:10413C004C344534443453340D340A3400342D3467
:10414C003E342034453446344634413443344534CB
:10415C004D3445344E345434203445344E342034AC
:10416C0043344F345534523453340D340A34003400
:10417C002D343E34203445344634463441344334B3
:10418C0045344D3445344E34543420345434453451
:10419C0052344D3449344E3445340D340A340034E1
:1041AC002D343E342034463449344E342034543487
:1041BC0045345334543420344D3441344E34553416
:1041CC0045344C340D340A340034453452345234B2
:1041DC004534553452342034503452344F344734EF
:1041EC00523441344D344D344134543449344F34C9
:1041FC004E340034503452344534533453344534F3
:10420C00523420344F344B3420344F345534203412
:10421C0045345234523445345534523400344134DC
:10422C005434543445344E345434453420344134AD
:10423C0043345134553449345434543445344D3466
:10424C0045344E34543400342D343E34203441340F
:10425C00703470347534793465347234203473347A
:10426C007534723420344F344B340D340A340034EA
:10427C00543445345334543420345234313420348F
:10428C004F344634463420342D34203452343234B6
:10429C0020344F344E340034543445345334543475
:1042AC0020345234323420344F34463446342034A3
:1042BC002D3420345234333420344F344E340034C3
:1042CC002D343E3420345434453453345434203457
:1042DC0041344334513455344934543454344534D2
:1042EC000D340A34003454344534533454342034AB
:1042FC004334413452345434453420344434393406
:10430C003234353445344434343400345634453442
:10431C0052344934463449344534523420345034C0
:10432C003134203445345434203450343234003455
:10433C0052344534533455344C345434413454345D
:10434C00203443344F344E344634493452344D3493
:10435C0045340034543445345334543420344E34BE
:10436C004F344E34203443344F344E3446344F346F
:10437C0052344D3445340034463449344E342034B0
:10438C00503452344F344734523441344D344D341C
:10439C004134543449344F344E34003450344F3457
:1043AC0053344934543449344F344E344E344534F8
:1043BC005234203443344134523454344534003470
:1043CC00543445345334543420343334203452343C
:1043DC0045344C3441344934533420344F3446340E
:1043EC004634003443344C34413456344934453427
:1043FC0052342034453443344C34413449345234EF
:10440C0045343F34003450345234453453345334EF
:10441C004534523420344F344B3420342F34203430
:10442C004E344F344B3400345434453453345434B8
:10443C00203433342034523445344C3441344934F0
:10444C00533420344F344E340034543445345334C4
:10445C00543420344C3445344434203443344C34B8
:10446C0041345634493445345234003443344C349A
:10447C004134563449344534523420344534543460
:10448C00453449344E3454343F3400345434453478
:10449C005334543420344C34453444345334203461
:1044AC00433441345234543445340034453452345A
:1044BC0052344534553452342034563441344C340F
:1044CC0049344434453445340034463449344E344C
:1044DC0020344534463446344134433445344D3429
:1044EC0045344E34543400345434453453345434F9
:1044FC0020344C3445344434203452344F34553405
:10450C004734453400345434453453345434203413
:10451C004C344534443420345634453452345434B9
:10452C0045340034543445345334543420344C34EE
:10453C0045344434203442344C34453455344534B9
:10454C0000344D344F34443455344C3445342034D9
:10455C004534533443344C344134563445340034AC
:10456C005434453453345434203442344C3455345C
:10457C00453454344F344F3454344834003441347B
:10458C005034503455345934453452342034533427
:10459C005534523420344F344B3400344D34613460
:1045AC007334743465347234203465346E3420348E
:1045BC00743465347334743400342D343E34203404
:1045CC00543445345334543420344F344634463404
:1045DC000D340A3400344D344F34443455344C3497
:1045EC00453420344D3441344934543452344534F8
:1045FC0000345234453454344934523445345234F2
:10460C0020344334413452345434453400344C3423
:10461C00453444345334203441344C344C345534C4
:10462C004D3445344534533400342D343E34203429
:10463C00543445345334543420344F344E340D34C4
:10464C000A3400342D343E3420345434453453343D
:10465C0054343A34313430343A34313400342D3427
:10466C003E34203454344534533454343A34313495
:10467C0032343A34313400342D343E342034543412
:10468C004534533454343A34313433343A34313489
:10469C0000342D343E3420345434453453345434A3
:1046AC003A34313434343A34313400342D343E34E9
:1046BC00203454344534533454343A34313435344E
:1046CC003A34313400342D343E34203454344534AF
:1046DC00533454343A34313436343A34313400347B
:1046EC002D343E34203454344534533454343A3419
:1046FC00313437343A34313400342D343E342034B0
:10470C0054344534533454343A34313438343A34E0
:10471C003134003454344534533454342034483414
:10472C004F3452344C344F344734453400342D34E8
:10473C003E34203454344534533454343A343134C4
:10474C003A34313400342D343E342034543445342E
:10475C00533454343A3432343A34313400342D3402
:10476C003E34203454344534533454343A34333492
:10477C003A34313400342D343E34203454344534FE
:10478C00533454343A3434343A34313400342D34D0
:10479C003E34203454344534533454343A34353460
:1047AC003A34313400342D343E34203454344534CE
:1047BC00533454343A3436343A34313400342D349E
:1047CC003E34203454344534533454343A3437342E
:1047DC003A34313400342D343E342034543445349E
:1047EC00533454343A3438343A34313400342D346C
:1047FC003E34203454344534533454343A343934FC
:10480C003A34313400345434453453345434203431
:10481C00533446344C3441345334483400344634E5
:10482C0049344E34203444344534203454344534E3
:10483C0053345434003456344F34493452342034C5
:10484C004134503450344C344934003454344534AD
:10485C005334543420345234313420344F344E34A5
:10486C0000344534543441345034453420343134DC
:10487C0030340034453454344134503445342034CD
:10488C0031343234003454344534533454342034B9
:10489C00423450343234003445345434413450347E
:1048AC0045342034313433340034453454344134B9
:1048BC005034453420343134343400344534543499
:1048CC00413450344534203431343534003445349B
:1048DC00543441345034453420343134363400347B
:1048EC004534543441345034453420343134373425
:1048FC00003445345434413450344534203431344C
:10490C0038340034543445345334543420344F3414
:10491C004B34003445345434413450344534203411
:10492C0031340034543445345334543420345034FA
:10493C00313400344534543441345034453420340B
:10494C0032340034543445345334543420345034D9
:10495C0032340034453454344134503445342034EA
:10496C0033340034453454344134503445342034D9
:10497C0034340034453454344134503445342034C8
:10498C0035340034453454344134503445342034B7
:10499C0036340034453454344134503445342034A6
:1049AC003734003445345434413450344534203495
:1049BC003834003445345434413450344534203484
:0A49CC00393400342534643400341B
:020000040001F9
:08000000FF3FFF3FFF3FFF3F00
:04000E00E43FFF3F8D
:00000001FF
